{
  "_format": "hh-sol-artifact-1",
  "contractName": "Auction",
  "sourceName": "contracts/Auction.sol",
  "abi": [
    {
      "inputs": [
        {
          "internalType": "contract IERC20",
          "name": "_token",
          "type": "address"
        },
        {
          "internalType": "contract IERC721",
          "name": "_nft",
          "type": "address"
        }
      ],
      "stateMutability": "nonpayable",
      "type": "constructor"
    },
    {
      "anonymous": false,
      "inputs": [
        {
          "indexed": true,
          "internalType": "address",
          "name": "previousOwner",
          "type": "address"
        },
        {
          "indexed": true,
          "internalType": "address",
          "name": "newOwner",
          "type": "address"
        }
      ],
      "name": "OwnershipTransferred",
      "type": "event"
    },
    {
      "inputs": [],
      "name": "AUCTION_SERVICE_FEE_RATE",
      "outputs": [
        {
          "internalType": "uint256",
          "name": "",
          "type": "uint256"
        }
      ],
      "stateMutability": "view",
      "type": "function"
    },
    {
      "inputs": [],
      "name": "MINIMUM_BID_RATE",
      "outputs": [
        {
          "internalType": "uint256",
          "name": "",
          "type": "uint256"
        }
      ],
      "stateMutability": "view",
      "type": "function"
    },
    {
      "inputs": [
        {
          "internalType": "uint256",
          "name": "_auctionId",
          "type": "uint256"
        }
      ],
      "name": "cancelAuction",
      "outputs": [],
      "stateMutability": "nonpayable",
      "type": "function"
    },
    {
      "inputs": [
        {
          "internalType": "uint256",
          "name": "_tokenId",
          "type": "uint256"
        },
        {
          "internalType": "uint256",
          "name": "_initialPrice",
          "type": "uint256"
        },
        {
          "internalType": "uint256",
          "name": "_startTime",
          "type": "uint256"
        },
        {
          "internalType": "uint256",
          "name": "_endTime",
          "type": "uint256"
        }
      ],
      "name": "createAuction",
      "outputs": [],
      "stateMutability": "nonpayable",
      "type": "function"
    },
    {
      "inputs": [
        {
          "internalType": "uint256",
          "name": "_auctionId",
          "type": "uint256"
        }
      ],
      "name": "finishAuction",
      "outputs": [],
      "stateMutability": "nonpayable",
      "type": "function"
    },
    {
      "inputs": [
        {
          "internalType": "uint256",
          "name": "_auctionId",
          "type": "uint256"
        }
      ],
      "name": "getAuction",
      "outputs": [
        {
          "components": [
            {
              "internalType": "address",
              "name": "auctioneer",
              "type": "address"
            },
            {
              "internalType": "uint256",
              "name": "_tokenId",
              "type": "uint256"
            },
            {
              "internalType": "uint256",
              "name": "initialPrice",
              "type": "uint256"
            },
            {
              "internalType": "address",
              "name": "previousBidder",
              "type": "address"
            },
            {
              "internalType": "uint256",
              "name": "lastBid",
              "type": "uint256"
            },
            {
              "internalType": "address",
              "name": "lastBidder",
              "type": "address"
            },
            {
              "internalType": "uint256",
              "name": "startTime",
              "type": "uint256"
            },
            {
              "internalType": "uint256",
              "name": "endTime",
              "type": "uint256"
            },
            {
              "internalType": "bool",
              "name": "completed",
              "type": "bool"
            },
            {
              "internalType": "bool",
              "name": "active",
              "type": "bool"
            },
            {
              "internalType": "uint256",
              "name": "auctionId",
              "type": "uint256"
            }
          ],
          "internalType": "struct Auction.AuctionInfo",
          "name": "",
          "type": "tuple"
        }
      ],
      "stateMutability": "view",
      "type": "function"
    },
    {
      "inputs": [
        {
          "internalType": "bool",
          "name": "_active",
          "type": "bool"
        }
      ],
      "name": "getAuctionByStatus",
      "outputs": [
        {
          "components": [
            {
              "internalType": "address",
              "name": "auctioneer",
              "type": "address"
            },
            {
              "internalType": "uint256",
              "name": "_tokenId",
              "type": "uint256"
            },
            {
              "internalType": "uint256",
              "name": "initialPrice",
              "type": "uint256"
            },
            {
              "internalType": "address",
              "name": "previousBidder",
              "type": "address"
            },
            {
              "internalType": "uint256",
              "name": "lastBid",
              "type": "uint256"
            },
            {
              "internalType": "address",
              "name": "lastBidder",
              "type": "address"
            },
            {
              "internalType": "uint256",
              "name": "startTime",
              "type": "uint256"
            },
            {
              "internalType": "uint256",
              "name": "endTime",
              "type": "uint256"
            },
            {
              "internalType": "bool",
              "name": "completed",
              "type": "bool"
            },
            {
              "internalType": "bool",
              "name": "active",
              "type": "bool"
            },
            {
              "internalType": "uint256",
              "name": "auctionId",
              "type": "uint256"
            }
          ],
          "internalType": "struct Auction.AuctionInfo[]",
          "name": "",
          "type": "tuple[]"
        }
      ],
      "stateMutability": "view",
      "type": "function"
    },
    {
      "inputs": [
        {
          "internalType": "uint256",
          "name": "_auctionId",
          "type": "uint256"
        },
        {
          "internalType": "uint256",
          "name": "_bid",
          "type": "uint256"
        }
      ],
      "name": "joinAuction",
      "outputs": [],
      "stateMutability": "nonpayable",
      "type": "function"
    },
    {
      "inputs": [
        {
          "internalType": "address",
          "name": "",
          "type": "address"
        },
        {
          "internalType": "address",
          "name": "",
          "type": "address"
        },
        {
          "internalType": "uint256",
          "name": "",
          "type": "uint256"
        },
        {
          "internalType": "bytes",
          "name": "",
          "type": "bytes"
        }
      ],
      "name": "onERC721Received",
      "outputs": [
        {
          "internalType": "bytes4",
          "name": "",
          "type": "bytes4"
        }
      ],
      "stateMutability": "pure",
      "type": "function"
    },
    {
      "inputs": [],
      "name": "owner",
      "outputs": [
        {
          "internalType": "address",
          "name": "",
          "type": "address"
        }
      ],
      "stateMutability": "view",
      "type": "function"
    },
    {
      "inputs": [],
      "name": "renounceOwnership",
      "outputs": [],
      "stateMutability": "nonpayable",
      "type": "function"
    },
    {
      "inputs": [
        {
          "internalType": "address",
          "name": "newOwner",
          "type": "address"
        }
      ],
      "name": "transferOwnership",
      "outputs": [],
      "stateMutability": "nonpayable",
      "type": "function"
    }
  ],
  "bytecode": "0x60806040523480156200001157600080fd5b5060405162003db138038062003db18339818101604052810190620000379190620001db565b620000576200004b620000e160201b60201c565b620000e960201b60201c565b81600260006101000a81548173ffffffffffffffffffffffffffffffffffffffff021916908373ffffffffffffffffffffffffffffffffffffffff16021790555080600160006101000a81548173ffffffffffffffffffffffffffffffffffffffff021916908373ffffffffffffffffffffffffffffffffffffffff1602179055505050620002ac565b600033905090565b60008060009054906101000a900473ffffffffffffffffffffffffffffffffffffffff169050816000806101000a81548173ffffffffffffffffffffffffffffffffffffffff021916908373ffffffffffffffffffffffffffffffffffffffff1602179055508173ffffffffffffffffffffffffffffffffffffffff168173ffffffffffffffffffffffffffffffffffffffff167f8be0079c531659141344cd1fd0a4f28419497f9722a3daafe3b4186f6b6457e060405160405180910390a35050565b600081519050620001be8162000278565b92915050565b600081519050620001d58162000292565b92915050565b60008060408385031215620001ef57600080fd5b6000620001ff85828601620001ad565b92505060206200021285828601620001c4565b9150509250929050565b6000620002298262000258565b9050919050565b60006200023d826200021c565b9050919050565b600062000251826200021c565b9050919050565b600073ffffffffffffffffffffffffffffffffffffffff82169050919050565b620002838162000230565b81146200028f57600080fd5b50565b6200029d8162000244565b8114620002a957600080fd5b50565b613af580620002bc6000396000f3fe608060405234801561001057600080fd5b50600436106100b45760003560e01c806396b5a7551161007157806396b5a7551461017b578063bd0a079d14610197578063c00a6fb7146101b5578063cf266ed0146101e5578063f08e6e7614610201578063f2fde38b1461021d576100b4565b8063150b7a02146100b9578063431f21da146100e95780636aadfdd014610105578063715018a61461012357806378bd79351461012d5780638da5cb5b1461015d575b600080fd5b6100d360048036038101906100ce91906129f0565b610239565b6040516100e0919061353d565b60405180910390f35b61010360048036038101906100fe9190612b50565b610267565b005b61010d610818565b60405161011a91906137d6565b60405180910390f35b61012b61081d565b005b61014760048036038101906101429190612ac2565b610831565b60405161015491906137ba565b60405180910390f35b610165610a08565b6040516101729190613477565b60405180910390f35b61019560048036038101906101909190612ac2565b610a31565b005b61019f611098565b6040516101ac91906137d6565b60405180910390f35b6101cf60048036038101906101ca9190612a70565b61109d565b6040516101dc919061351b565b60405180910390f35b6101ff60048036038101906101fa9190612ac2565b611464565b005b61021b60048036038101906102169190612b14565b611b07565b005b6102376004803603810190610232919061299e565b61232d565b005b60007f150b7a023d4804d13e8c85fb27262cb750cf6ba9f9dd3bb30d90f482ceeb4b1f905095945050505050565b814211156102aa576040517f08c379a00000000000000000000000000000000000000000000000000000000081526004016102a1906136fa565b60405180910390fd5b8082106102ec576040517f08c379a00000000000000000000000000000000000000000000000000000000081526004016102e39061369a565b60405180910390fd5b8260001061032f576040517f08c379a00000000000000000000000000000000000000000000000000000000081526004016103269061379a565b60405180910390fd5b3373ffffffffffffffffffffffffffffffffffffffff16600160009054906101000a900473ffffffffffffffffffffffffffffffffffffffff1673ffffffffffffffffffffffffffffffffffffffff16636352211e866040518263ffffffff1660e01b81526004016103a191906137d6565b60206040518083038186803b1580156103b957600080fd5b505afa1580156103cd573d6000803e3d6000fd5b505050506040513d601f19601f820116820180604052508101906103f191906129c7565b73ffffffffffffffffffffffffffffffffffffffff1614610447576040517f08c379a000000000000000000000000000000000000000000000000000000000815260040161043e9061357a565b60405180910390fd5b3073ffffffffffffffffffffffffffffffffffffffff16600160009054906101000a900473ffffffffffffffffffffffffffffffffffffffff1673ffffffffffffffffffffffffffffffffffffffff1663081812fc866040518263ffffffff1660e01b81526004016104b991906137d6565b60206040518083038186803b1580156104d157600080fd5b505afa1580156104e5573d6000803e3d6000fd5b505050506040513d601f19601f8201168201806040525081019061050991906129c7565b73ffffffffffffffffffffffffffffffffffffffff161461055f576040517f08c379a0000000000000000000000000000000000000000000000000000000008152600401610556906135da565b60405180910390fd5b600160009054906101000a900473ffffffffffffffffffffffffffffffffffffffff1673ffffffffffffffffffffffffffffffffffffffff166342842e0e3330876040518463ffffffff1660e01b81526004016105be939291906134bb565b600060405180830381600087803b1580156105d857600080fd5b505af11580156105ec573d6000803e3d6000fd5b5050505060006040518061016001604052803373ffffffffffffffffffffffffffffffffffffffff168152602001868152602001858152602001600073ffffffffffffffffffffffffffffffffffffffff168152602001858152602001600073ffffffffffffffffffffffffffffffffffffffff168152602001848152602001838152602001600015158152602001600115158152602001600380549050815250905060038190806001815401808255809150506001900390600052602060002090600a020160009091909190915060008201518160000160006101000a81548173ffffffffffffffffffffffffffffffffffffffff021916908373ffffffffffffffffffffffffffffffffffffffff160217905550602082015181600101556040820151816002015560608201518160030160006101000a81548173ffffffffffffffffffffffffffffffffffffffff021916908373ffffffffffffffffffffffffffffffffffffffff1602179055506080820151816004015560a08201518160050160006101000a81548173ffffffffffffffffffffffffffffffffffffffff021916908373ffffffffffffffffffffffffffffffffffffffff16021790555060c0820151816006015560e082015181600701556101008201518160080160006101000a81548160ff0219169083151502179055506101208201518160080160016101000a81548160ff021916908315150217905550610140820151816009015550505050505050565b606e81565b6108256123b1565b61082f600061242f565b565b610839612836565b60038281548110610873577f4e487b7100000000000000000000000000000000000000000000000000000000600052603260045260246000fd5b90600052602060002090600a0201604051806101600160405290816000820160009054906101000a900473ffffffffffffffffffffffffffffffffffffffff1673ffffffffffffffffffffffffffffffffffffffff1673ffffffffffffffffffffffffffffffffffffffff16815260200160018201548152602001600282015481526020016003820160009054906101000a900473ffffffffffffffffffffffffffffffffffffffff1673ffffffffffffffffffffffffffffffffffffffff1673ffffffffffffffffffffffffffffffffffffffff168152602001600482015481526020016005820160009054906101000a900473ffffffffffffffffffffffffffffffffffffffff1673ffffffffffffffffffffffffffffffffffffffff1673ffffffffffffffffffffffffffffffffffffffff16815260200160068201548152602001600782015481526020016008820160009054906101000a900460ff161515151581526020016008820160019054906101000a900460ff161515151581526020016009820154815250509050919050565b60008060009054906101000a900473ffffffffffffffffffffffffffffffffffffffff16905090565b8060038181548110610a6c577f4e487b7100000000000000000000000000000000000000000000000000000000600052603260045260246000fd5b90600052602060002090600a020160000160009054906101000a900473ffffffffffffffffffffffffffffffffffffffff1673ffffffffffffffffffffffffffffffffffffffff163373ffffffffffffffffffffffffffffffffffffffff161480610b095750610ada610a08565b73ffffffffffffffffffffffffffffffffffffffff163373ffffffffffffffffffffffffffffffffffffffff16145b610b48576040517f08c379a0000000000000000000000000000000000000000000000000000000008152600401610b3f9061371a565b60405180910390fd5b6000151560038381548110610b86577f4e487b7100000000000000000000000000000000000000000000000000000000600052603260045260246000fd5b90600052602060002090600a020160080160009054906101000a900460ff16151514610be7576040517f08c379a0000000000000000000000000000000000000000000000000000000008152600401610bde9061359a565b60405180910390fd5b60038281548110610c21577f4e487b7100000000000000000000000000000000000000000000000000000000600052603260045260246000fd5b90600052602060002090600a020160080160019054906101000a900460ff16610c7f576040517f08c379a0000000000000000000000000000000000000000000000000000000008152600401610c769061367a565b60405180910390fd5b600160009054906101000a900473ffffffffffffffffffffffffffffffffffffffff1673ffffffffffffffffffffffffffffffffffffffff166342842e0e3060038581548110610cf8577f4e487b7100000000000000000000000000000000000000000000000000000000600052603260045260246000fd5b90600052602060002090600a020160000160009054906101000a900473ffffffffffffffffffffffffffffffffffffffff1660038681548110610d64577f4e487b7100000000000000000000000000000000000000000000000000000000600052603260045260246000fd5b90600052602060002090600a0201600101546040518463ffffffff1660e01b8152600401610d94939291906134bb565b600060405180830381600087803b158015610dae57600080fd5b505af1158015610dc2573d6000803e3d6000fd5b50505050600073ffffffffffffffffffffffffffffffffffffffff1660038381548110610e18577f4e487b7100000000000000000000000000000000000000000000000000000000600052603260045260246000fd5b90600052602060002090600a020160050160009054906101000a900473ffffffffffffffffffffffffffffffffffffffff1673ffffffffffffffffffffffffffffffffffffffff1614610fcc57600260009054906101000a900473ffffffffffffffffffffffffffffffffffffffff1673ffffffffffffffffffffffffffffffffffffffff1663a9059cbb60038481548110610edd577f4e487b7100000000000000000000000000000000000000000000000000000000600052603260045260246000fd5b90600052602060002090600a020160050160009054906101000a900473ffffffffffffffffffffffffffffffffffffffff1660038581548110610f49577f4e487b7100000000000000000000000000000000000000000000000000000000600052603260045260246000fd5b90600052602060002090600a0201600401546040518363ffffffff1660e01b8152600401610f789291906134f2565b602060405180830381600087803b158015610f9257600080fd5b505af1158015610fa6573d6000803e3d6000fd5b505050506040513d601f19601f82011682018060405250810190610fca9190612a99565b505b600160038381548110611008577f4e487b7100000000000000000000000000000000000000000000000000000000600052603260045260246000fd5b90600052602060002090600a020160080160006101000a81548160ff02191690831515021790555060006003838154811061106c577f4e487b7100000000000000000000000000000000000000000000000000000000600052603260045260246000fd5b90600052602060002090600a020160080160016101000a81548160ff0219169083151502179055505050565b600381565b60606000805b60038054905081101561113657831515600382815481106110ed577f4e487b7100000000000000000000000000000000000000000000000000000000600052603260045260246000fd5b90600052602060002090600a020160080160019054906101000a900460ff161515141561112357818061111f906139c2565b9250505b808061112e906139c2565b9150506110a3565b5060008167ffffffffffffffff811115611179577f4e487b7100000000000000000000000000000000000000000000000000000000600052604160045260246000fd5b6040519080825280602002602001820160405280156111b257816020015b61119f612836565b8152602001906001900390816111975790505b5090506000805b6003805490508110156114585785151560038281548110611203577f4e487b7100000000000000000000000000000000000000000000000000000000600052603260045260246000fd5b90600052602060002090600a020160080160019054906101000a900460ff16151514156114455760038181548110611264577f4e487b7100000000000000000000000000000000000000000000000000000000600052603260045260246000fd5b90600052602060002090600a0201604051806101600160405290816000820160009054906101000a900473ffffffffffffffffffffffffffffffffffffffff1673ffffffffffffffffffffffffffffffffffffffff1673ffffffffffffffffffffffffffffffffffffffff16815260200160018201548152602001600282015481526020016003820160009054906101000a900473ffffffffffffffffffffffffffffffffffffffff1673ffffffffffffffffffffffffffffffffffffffff1673ffffffffffffffffffffffffffffffffffffffff168152602001600482015481526020016005820160009054906101000a900473ffffffffffffffffffffffffffffffffffffffff1673ffffffffffffffffffffffffffffffffffffffff1673ffffffffffffffffffffffffffffffffffffffff16815260200160068201548152602001600782015481526020016008820160009054906101000a900460ff161515151581526020016008820160019054906101000a900460ff1615151515815260200160098201548152505083838151811061142b577f4e487b7100000000000000000000000000000000000000000000000000000000600052603260045260246000fd5b60200260200101819052508180611441906139c2565b9250505b8080611450906139c2565b9150506111b9565b50819350505050919050565b806003818154811061149f577f4e487b7100000000000000000000000000000000000000000000000000000000600052603260045260246000fd5b90600052602060002090600a020160000160009054906101000a900473ffffffffffffffffffffffffffffffffffffffff1673ffffffffffffffffffffffffffffffffffffffff163373ffffffffffffffffffffffffffffffffffffffff16148061153c575061150d610a08565b73ffffffffffffffffffffffffffffffffffffffff163373ffffffffffffffffffffffffffffffffffffffff16145b61157b576040517f08c379a00000000000000000000000000000000000000000000000000000000081526004016115729061371a565b60405180910390fd5b60001515600383815481106115b9577f4e487b7100000000000000000000000000000000000000000000000000000000600052603260045260246000fd5b90600052602060002090600a020160080160009054906101000a900460ff1615151461161a576040517f08c379a00000000000000000000000000000000000000000000000000000000081526004016116119061359a565b60405180910390fd5b60038281548110611654577f4e487b7100000000000000000000000000000000000000000000000000000000600052603260045260246000fd5b90600052602060002090600a020160080160019054906101000a900460ff166116b2576040517f08c379a00000000000000000000000000000000000000000000000000000000081526004016116a99061367a565b60405180910390fd5b600160009054906101000a900473ffffffffffffffffffffffffffffffffffffffff1673ffffffffffffffffffffffffffffffffffffffff166342842e0e306003858154811061172b577f4e487b7100000000000000000000000000000000000000000000000000000000600052603260045260246000fd5b90600052602060002090600a020160050160009054906101000a900473ffffffffffffffffffffffffffffffffffffffff1660038681548110611797577f4e487b7100000000000000000000000000000000000000000000000000000000600052603260045260246000fd5b90600052602060002090600a0201600101546040518463ffffffff1660e01b81526004016117c7939291906134bb565b600060405180830381600087803b1580156117e157600080fd5b505af11580156117f5573d6000803e3d6000fd5b50505050600060038381548110611835577f4e487b7100000000000000000000000000000000000000000000000000000000600052603260045260246000fd5b90600052602060002090600a0201600401549050600060038481548110611885577f4e487b7100000000000000000000000000000000000000000000000000000000600052603260045260246000fd5b90600052602060002090600a020160020154600385815481106118d1577f4e487b7100000000000000000000000000000000000000000000000000000000600052603260045260246000fd5b90600052602060002090600a0201600401546118ed91906138e7565b905060006064600383611900919061388d565b61190a919061385c565b90506000818461191a91906138e7565b9050600260009054906101000a900473ffffffffffffffffffffffffffffffffffffffff1673ffffffffffffffffffffffffffffffffffffffff1663a9059cbb60038881548110611994577f4e487b7100000000000000000000000000000000000000000000000000000000600052603260045260246000fd5b90600052602060002090600a020160000160009054906101000a900473ffffffffffffffffffffffffffffffffffffffff16836040518363ffffffff1660e01b81526004016119e49291906134f2565b602060405180830381600087803b1580156119fe57600080fd5b505af1158015611a12573d6000803e3d6000fd5b505050506040513d601f19601f82011682018060405250810190611a369190612a99565b50600160038781548110611a73577f4e487b7100000000000000000000000000000000000000000000000000000000600052603260045260246000fd5b90600052602060002090600a020160080160006101000a81548160ff021916908315150217905550600060038781548110611ad7577f4e487b7100000000000000000000000000000000000000000000000000000000600052603260045260246000fd5b90600052602060002090600a020160080160016101000a81548160ff021916908315150217905550505050505050565b600060038381548110611b43577f4e487b7100000000000000000000000000000000000000000000000000000000600052603260045260246000fd5b90600052602060002090600a0201604051806101600160405290816000820160009054906101000a900473ffffffffffffffffffffffffffffffffffffffff1673ffffffffffffffffffffffffffffffffffffffff1673ffffffffffffffffffffffffffffffffffffffff16815260200160018201548152602001600282015481526020016003820160009054906101000a900473ffffffffffffffffffffffffffffffffffffffff1673ffffffffffffffffffffffffffffffffffffffff1673ffffffffffffffffffffffffffffffffffffffff168152602001600482015481526020016005820160009054906101000a900473ffffffffffffffffffffffffffffffffffffffff1673ffffffffffffffffffffffffffffffffffffffff1673ffffffffffffffffffffffffffffffffffffffff16815260200160068201548152602001600782015481526020016008820160009054906101000a900460ff161515151581526020016008820160019054906101000a900460ff1615151515815260200160098201548152505090508060c00151421015611d1a576040517f08c379a0000000000000000000000000000000000000000000000000000000008152600401611d11906136ba565b60405180910390fd5b60001515816101000151151514611d66576040517f08c379a0000000000000000000000000000000000000000000000000000000008152600401611d5d9061359a565b60405180910390fd5b806101200151611dab576040517f08c379a0000000000000000000000000000000000000000000000000000000008152600401611da29061367a565b60405180910390fd5b60008073ffffffffffffffffffffffffffffffffffffffff168260a0015173ffffffffffffffffffffffffffffffffffffffff1614611e06576064606e8360800151611df7919061388d565b611e01919061385c565b611e0c565b81604001515b905082811115611e51576040517f08c379a0000000000000000000000000000000000000000000000000000000008152600401611e489061373a565b60405180910390fd5b82600260009054906101000a900473ffffffffffffffffffffffffffffffffffffffff1673ffffffffffffffffffffffffffffffffffffffff166370a08231336040518263ffffffff1660e01b8152600401611ead9190613477565b60206040518083038186803b158015611ec557600080fd5b505afa158015611ed9573d6000803e3d6000fd5b505050506040513d601f19601f82011682018060405250810190611efd9190612aeb565b1015611f3e576040517f08c379a0000000000000000000000000000000000000000000000000000000008152600401611f359061363a565b60405180910390fd5b82600260009054906101000a900473ffffffffffffffffffffffffffffffffffffffff1673ffffffffffffffffffffffffffffffffffffffff1663dd62ed3e33306040518363ffffffff1660e01b8152600401611f9c929190613492565b60206040518083038186803b158015611fb457600080fd5b505afa158015611fc8573d6000803e3d6000fd5b505050506040513d601f19601f82011682018060405250810190611fec9190612aeb565b101561202d576040517f08c379a00000000000000000000000000000000000000000000000000000000081526004016120249061361a565b60405180910390fd5b3373ffffffffffffffffffffffffffffffffffffffff16826000015173ffffffffffffffffffffffffffffffffffffffff1614156120a0576040517f08c379a0000000000000000000000000000000000000000000000000000000008152600401612097906135fa565b60405180910390fd5b6120ce600260009054906101000a900473ffffffffffffffffffffffffffffffffffffffff163330866124f3565b600073ffffffffffffffffffffffffffffffffffffffff168260a0015173ffffffffffffffffffffffffffffffffffffffff16146121bf57600260009054906101000a900473ffffffffffffffffffffffffffffffffffffffff1673ffffffffffffffffffffffffffffffffffffffff1663a9059cbb8360a0015184608001516040518363ffffffff1660e01b815260040161216b9291906134f2565b602060405180830381600087803b15801561218557600080fd5b505af1158015612199573d6000803e3d6000fd5b505050506040513d601f19601f820116820180604052508101906121bd9190612a99565b505b8160a00151600385815481106121fe577f4e487b7100000000000000000000000000000000000000000000000000000000600052603260045260246000fd5b90600052602060002090600a020160030160006101000a81548173ffffffffffffffffffffffffffffffffffffffff021916908373ffffffffffffffffffffffffffffffffffffffff1602179055503360038581548110612288577f4e487b7100000000000000000000000000000000000000000000000000000000600052603260045260246000fd5b90600052602060002090600a020160050160006101000a81548173ffffffffffffffffffffffffffffffffffffffff021916908373ffffffffffffffffffffffffffffffffffffffff1602179055508260038581548110612312577f4e487b7100000000000000000000000000000000000000000000000000000000600052603260045260246000fd5b90600052602060002090600a02016004018190555050505050565b6123356123b1565b600073ffffffffffffffffffffffffffffffffffffffff168173ffffffffffffffffffffffffffffffffffffffff1614156123a5576040517f08c379a000000000000000000000000000000000000000000000000000000000815260040161239c906135ba565b60405180910390fd5b6123ae8161242f565b50565b6123b961257c565b73ffffffffffffffffffffffffffffffffffffffff166123d7610a08565b73ffffffffffffffffffffffffffffffffffffffff161461242d576040517f08c379a0000000000000000000000000000000000000000000000000000000008152600401612424906136da565b60405180910390fd5b565b60008060009054906101000a900473ffffffffffffffffffffffffffffffffffffffff169050816000806101000a81548173ffffffffffffffffffffffffffffffffffffffff021916908373ffffffffffffffffffffffffffffffffffffffff1602179055508173ffffffffffffffffffffffffffffffffffffffff168173ffffffffffffffffffffffffffffffffffffffff167f8be0079c531659141344cd1fd0a4f28419497f9722a3daafe3b4186f6b6457e060405160405180910390a35050565b612576846323b872dd60e01b858585604051602401612514939291906134bb565b604051602081830303815290604052907bffffffffffffffffffffffffffffffffffffffffffffffffffffffff19166020820180517bffffffffffffffffffffffffffffffffffffffffffffffffffffffff8381831617835250505050612584565b50505050565b600033905090565b60006125e6826040518060400160405280602081526020017f5361666545524332303a206c6f772d6c6576656c2063616c6c206661696c65648152508573ffffffffffffffffffffffffffffffffffffffff1661264c9092919063ffffffff16565b90506000815114806126085750808060200190518101906126079190612a99565b5b612647576040517f08c379a000000000000000000000000000000000000000000000000000000000815260040161263e9061377a565b60405180910390fd5b505050565b606061265b8484600085612664565b90509392505050565b6060824710156126a9576040517f08c379a00000000000000000000000000000000000000000000000000000000081526004016126a09061365a565b60405180910390fd5b6000808673ffffffffffffffffffffffffffffffffffffffff1685876040516126d29190613460565b60006040518083038185875af1925050503d806000811461270f576040519150601f19603f3d011682016040523d82523d6000602084013e612714565b606091505b509150915061272587838387612731565b92505050949350505050565b606083156127945760008351141561278c5761274c856127a7565b61278b576040517f08c379a00000000000000000000000000000000000000000000000000000000081526004016127829061375a565b60405180910390fd5b5b82905061279f565b61279e83836127e6565b5b949350505050565b6000808273ffffffffffffffffffffffffffffffffffffffff16803b806020016040519081016040528181526000908060200190933c51119050919050565b6000825111156127f95781518083602001fd5b806040517f08c379a000000000000000000000000000000000000000000000000000000000815260040161282d9190613558565b60405180910390fd5b604051806101600160405280600073ffffffffffffffffffffffffffffffffffffffff1681526020016000815260200160008152602001600073ffffffffffffffffffffffffffffffffffffffff16815260200160008152602001600073ffffffffffffffffffffffffffffffffffffffff1681526020016000815260200160008152602001600015158152602001600015158152602001600081525090565b6000813590506128e581613a7a565b92915050565b6000815190506128fa81613a7a565b92915050565b60008135905061290f81613a91565b92915050565b60008151905061292481613a91565b92915050565b60008083601f84011261293c57600080fd5b8235905067ffffffffffffffff81111561295557600080fd5b60208301915083600182028301111561296d57600080fd5b9250929050565b60008135905061298381613aa8565b92915050565b60008151905061299881613aa8565b92915050565b6000602082840312156129b057600080fd5b60006129be848285016128d6565b91505092915050565b6000602082840312156129d957600080fd5b60006129e7848285016128eb565b91505092915050565b600080600080600060808688031215612a0857600080fd5b6000612a16888289016128d6565b9550506020612a27888289016128d6565b9450506040612a3888828901612974565b935050606086013567ffffffffffffffff811115612a5557600080fd5b612a618882890161292a565b92509250509295509295909350565b600060208284031215612a8257600080fd5b6000612a9084828501612900565b91505092915050565b600060208284031215612aab57600080fd5b6000612ab984828501612915565b91505092915050565b600060208284031215612ad457600080fd5b6000612ae284828501612974565b91505092915050565b600060208284031215612afd57600080fd5b6000612b0b84828501612989565b91505092915050565b60008060408385031215612b2757600080fd5b6000612b3585828601612974565b9250506020612b4685828601612974565b9150509250929050565b60008060008060808587031215612b6657600080fd5b6000612b7487828801612974565b9450506020612b8587828801612974565b9350506040612b9687828801612974565b9250506060612ba787828801612974565b91505092959194509250565b6000612bbf8383613280565b6101608301905092915050565b612bd58161391b565b82525050565b612be48161391b565b82525050565b6000612bf582613801565b612bff818561382f565b9350612c0a836137f1565b8060005b83811015612c3b578151612c228882612bb3565b9750612c2d83613822565b925050600181019050612c0e565b5085935050505092915050565b612c518161392d565b82525050565b612c6081613939565b82525050565b6000612c718261380c565b612c7b8185613840565b9350612c8b81856020860161398f565b80840191505092915050565b6000612ca282613817565b612cac818561384b565b9350612cbc81856020860161398f565b612cc581613a69565b840191505092915050565b6000612cdd60198361384b565b91507f4d757374207374616b6520796f7572206f776e20746f6b656e000000000000006000830152602082019050919050565b6000612d1d601c8361384b565b91507f41756374696f6e20697320616c726561647920636f6d706c65746564000000006000830152602082019050919050565b6000612d5d60268361384b565b91507f4f776e61626c653a206e6577206f776e657220697320746865207a65726f206160008301527f64647265737300000000000000000000000000000000000000000000000000006020830152604082019050919050565b6000612dc360348361384b565b91507f5468697320636f6e7472616374206d75737420626520617070726f766564207460008301527f6f207472616e736665722074686520746f6b656e0000000000000000000000006020830152604082019050919050565b6000612e29601f8361384b565b91507f43616e206e6f7420626964206f6e20796f7572206f776e2061756374696f6e006000830152602082019050919050565b6000612e6960168361384b565b91507f496e73756666696369656e7420616c6c6f77616e6365000000000000000000006000830152602082019050919050565b6000612ea960148361384b565b91507f496e73756666696369656e742062616c616e63650000000000000000000000006000830152602082019050919050565b6000612ee960268361384b565b91507f416464726573733a20696e73756666696369656e742062616c616e636520666f60008301527f722063616c6c00000000000000000000000000000000000000000000000000006020830152604082019050919050565b6000612f4f60158361384b565b91507f41756374696f6e206973206e6f742061637469766500000000000000000000006000830152602082019050919050565b6000612f8f60248361384b565b91507f41756374696f6e2063616e206e6f7420656e64206265666f726520697420737460008301527f61727473000000000000000000000000000000000000000000000000000000006020830152604082019050919050565b6000612ff560178361384b565b91507f41756374696f6e20686173206e6f7420737461727465640000000000000000006000830152602082019050919050565b600061303560208361384b565b91507f4f776e61626c653a2063616c6c6572206973206e6f7420746865206f776e65726000830152602082019050919050565b600061307560158361384b565b91507f41756374696f6e2063616e206e6f7420737461727400000000000000000000006000830152602082019050919050565b60006130b560308361384b565b91507f4f6e6c792061756374696f6e656572206f72206f776e65722063616e2070657260008301527f666f726d207468697320616374696f6e000000000000000000000000000000006020830152604082019050919050565b600061311b60308361384b565b91507f426964207072696365206d7573742062652067726561746572207468616e207460008301527f6865206d696e696d756d207072696365000000000000000000000000000000006020830152604082019050919050565b6000613181601d8361384b565b91507f416464726573733a2063616c6c20746f206e6f6e2d636f6e74726163740000006000830152602082019050919050565b60006131c1602a8361384b565b91507f5361666545524332303a204552433230206f7065726174696f6e20646964206e60008301527f6f742073756363656564000000000000000000000000000000000000000000006020830152604082019050919050565b600061322760248361384b565b91507f496e697469616c207072696365206d757374206265206772656174657220746860008301527f616e2030000000000000000000000000000000000000000000000000000000006020830152604082019050919050565b610160820160008201516132976000850182612bcc565b5060208201516132aa6020850182613442565b5060408201516132bd6040850182613442565b5060608201516132d06060850182612bcc565b5060808201516132e36080850182613442565b5060a08201516132f660a0850182612bcc565b5060c082015161330960c0850182613442565b5060e082015161331c60e0850182613442565b50610100820151613331610100850182612c48565b50610120820151613346610120850182612c48565b5061014082015161335b610140850182613442565b50505050565b610160820160008201516133786000850182612bcc565b50602082015161338b6020850182613442565b50604082015161339e6040850182613442565b5060608201516133b16060850182612bcc565b5060808201516133c46080850182613442565b5060a08201516133d760a0850182612bcc565b5060c08201516133ea60c0850182613442565b5060e08201516133fd60e0850182613442565b50610100820151613412610100850182612c48565b50610120820151613427610120850182612c48565b5061014082015161343c610140850182613442565b50505050565b61344b81613985565b82525050565b61345a81613985565b82525050565b600061346c8284612c66565b915081905092915050565b600060208201905061348c6000830184612bdb565b92915050565b60006040820190506134a76000830185612bdb565b6134b46020830184612bdb565b9392505050565b60006060820190506134d06000830186612bdb565b6134dd6020830185612bdb565b6134ea6040830184613451565b949350505050565b60006040820190506135076000830185612bdb565b6135146020830184613451565b9392505050565b600060208201905081810360008301526135358184612bea565b905092915050565b60006020820190506135526000830184612c57565b92915050565b600060208201905081810360008301526135728184612c97565b905092915050565b6000602082019050818103600083015261359381612cd0565b9050919050565b600060208201905081810360008301526135b381612d10565b9050919050565b600060208201905081810360008301526135d381612d50565b9050919050565b600060208201905081810360008301526135f381612db6565b9050919050565b6000602082019050818103600083015261361381612e1c565b9050919050565b6000602082019050818103600083015261363381612e5c565b9050919050565b6000602082019050818103600083015261365381612e9c565b9050919050565b6000602082019050818103600083015261367381612edc565b9050919050565b6000602082019050818103600083015261369381612f42565b9050919050565b600060208201905081810360008301526136b381612f82565b9050919050565b600060208201905081810360008301526136d381612fe8565b9050919050565b600060208201905081810360008301526136f381613028565b9050919050565b6000602082019050818103600083015261371381613068565b9050919050565b60006020820190508181036000830152613733816130a8565b9050919050565b600060208201905081810360008301526137538161310e565b9050919050565b6000602082019050818103600083015261377381613174565b9050919050565b60006020820190508181036000830152613793816131b4565b9050919050565b600060208201905081810360008301526137b38161321a565b9050919050565b6000610160820190506137d06000830184613361565b92915050565b60006020820190506137eb6000830184613451565b92915050565b6000819050602082019050919050565b600081519050919050565b600081519050919050565b600081519050919050565b6000602082019050919050565b600082825260208201905092915050565b600081905092915050565b600082825260208201905092915050565b600061386782613985565b915061387283613985565b92508261388257613881613a3a565b5b828204905092915050565b600061389882613985565b91506138a383613985565b9250817fffffffffffffffffffffffffffffffffffffffffffffffffffffffffffffffff04831182151516156138dc576138db613a0b565b5b828202905092915050565b60006138f282613985565b91506138fd83613985565b9250828210156139105761390f613a0b565b5b828203905092915050565b600061392682613965565b9050919050565b60008115159050919050565b60007fffffffff0000000000000000000000000000000000000000000000000000000082169050919050565b600073ffffffffffffffffffffffffffffffffffffffff82169050919050565b6000819050919050565b60005b838110156139ad578082015181840152602081019050613992565b838111156139bc576000848401525b50505050565b60006139cd82613985565b91507fffffffffffffffffffffffffffffffffffffffffffffffffffffffffffffffff821415613a00576139ff613a0b565b5b600182019050919050565b7f4e487b7100000000000000000000000000000000000000000000000000000000600052601160045260246000fd5b7f4e487b7100000000000000000000000000000000000000000000000000000000600052601260045260246000fd5b6000601f19601f8301169050919050565b613a838161391b565b8114613a8e57600080fd5b50565b613a9a8161392d565b8114613aa557600080fd5b50565b613ab181613985565b8114613abc57600080fd5b5056fea2646970667358221220b3fbe8fdbd00d91d495d5c4f5b17e2787c466ac8a3e31937cbe4e1e69e4f4f8364736f6c63430008000033",
  "linkReferences": {},
  "deployedLinkReferences": {}
}