{
  "_format": "hh-sol-artifact-1",
  "contractName": "Donate",
  "sourceName": "contracts/Donate.sol",
  "abi": [
    {
      "inputs": [],
      "stateMutability": "payable",
      "type": "constructor"
    },
    {
      "anonymous": false,
      "inputs": [
        {
          "indexed": true,
          "internalType": "address",
          "name": "form",
          "type": "address"
        },
        {
          "indexed": true,
          "internalType": "uint256",
          "name": "amount",
          "type": "uint256"
        }
      ],
      "name": "Deposit",
      "type": "event"
    },
    {
      "anonymous": false,
      "inputs": [
        {
          "indexed": true,
          "internalType": "address",
          "name": "previousOwner",
          "type": "address"
        },
        {
          "indexed": true,
          "internalType": "address",
          "name": "newOwner",
          "type": "address"
        }
      ],
      "name": "OwnershipTransferred",
      "type": "event"
    },
    {
      "anonymous": false,
      "inputs": [
        {
          "indexed": true,
          "internalType": "address",
          "name": "to",
          "type": "address"
        },
        {
          "indexed": false,
          "internalType": "uint256",
          "name": "value",
          "type": "uint256"
        }
      ],
      "name": "withdraw",
      "type": "event"
    },
    {
      "inputs": [
        {
          "internalType": "uint256",
          "name": "_donateAmount",
          "type": "uint256"
        }
      ],
      "name": "donate",
      "outputs": [],
      "stateMutability": "nonpayable",
      "type": "function"
    },
    {
      "inputs": [],
      "name": "getBalance",
      "outputs": [
        {
          "internalType": "uint256",
          "name": "",
          "type": "uint256"
        }
      ],
      "stateMutability": "view",
      "type": "function"
    },
    {
      "inputs": [],
      "name": "owner",
      "outputs": [
        {
          "internalType": "address",
          "name": "",
          "type": "address"
        }
      ],
      "stateMutability": "view",
      "type": "function"
    },
    {
      "inputs": [],
      "name": "renounceOwnership",
      "outputs": [],
      "stateMutability": "nonpayable",
      "type": "function"
    },
    {
      "inputs": [
        {
          "internalType": "address",
          "name": "tokenAddress",
          "type": "address"
        }
      ],
      "name": "setToken",
      "outputs": [],
      "stateMutability": "nonpayable",
      "type": "function"
    },
    {
      "inputs": [],
      "name": "token",
      "outputs": [
        {
          "internalType": "contract IERC20",
          "name": "",
          "type": "address"
        }
      ],
      "stateMutability": "view",
      "type": "function"
    },
    {
      "inputs": [
        {
          "internalType": "address",
          "name": "newOwner",
          "type": "address"
        }
      ],
      "name": "transferOwnership",
      "outputs": [],
      "stateMutability": "nonpayable",
      "type": "function"
    },
    {
      "inputs": [],
      "name": "withdraws",
      "outputs": [],
      "stateMutability": "nonpayable",
      "type": "function"
    },
    {
      "stateMutability": "payable",
      "type": "receive"
    }
  ],
  "bytecode": "0x608060405261002061001561006660201b60201c565b61006e60201b60201c565b33600160006101000a81548173ffffffffffffffffffffffffffffffffffffffff021916908373ffffffffffffffffffffffffffffffffffffffff160217905550610132565b600033905090565b60008060009054906101000a900473ffffffffffffffffffffffffffffffffffffffff169050816000806101000a81548173ffffffffffffffffffffffffffffffffffffffff021916908373ffffffffffffffffffffffffffffffffffffffff1602179055508173ffffffffffffffffffffffffffffffffffffffff168173ffffffffffffffffffffffffffffffffffffffff167f8be0079c531659141344cd1fd0a4f28419497f9722a3daafe3b4186f6b6457e060405160405180910390a35050565b611301806101416000396000f3fe60806040526004361061007f5760003560e01c8063d95102151161004e578063d951021514610165578063f14faf6f1461017c578063f2fde38b146101a5578063fc0c546a146101ce576100ca565b806312065fe0146100cf578063144fa6d7146100fa578063715018a6146101235780638da5cb5b1461013a576100ca565b366100ca57343373ffffffffffffffffffffffffffffffffffffffff167fe1fffcc4923d04b559f4d29a8bfc6cda04eb5b0d3c460751c2402c5c5cc9109c60405160405180910390a3005b600080fd5b3480156100db57600080fd5b506100e46101f9565b6040516100f19190611100565b60405180910390f35b34801561010657600080fd5b50610121600480360381019061011c9190610c44565b6102ab565b005b34801561012f57600080fd5b506101386102f7565b005b34801561014657600080fd5b5061014f61030b565b60405161015c9190610f88565b60405180910390f35b34801561017157600080fd5b5061017a610334565b005b34801561018857600080fd5b506101a3600480360381019061019e9190610c96565b610590565b005b3480156101b157600080fd5b506101cc60048036038101906101c79190610c44565b6106c1565b005b3480156101da57600080fd5b506101e3610745565b6040516101f09190611003565b60405180910390f35b6000600260009054906101000a900473ffffffffffffffffffffffffffffffffffffffff1673ffffffffffffffffffffffffffffffffffffffff166370a08231306040518263ffffffff1660e01b81526004016102569190610f88565b60206040518083038186803b15801561026e57600080fd5b505afa158015610282573d6000803e3d6000fd5b505050506040513d601f19601f820116820180604052508101906102a69190610cbf565b905090565b6102b361076b565b80600260006101000a81548173ffffffffffffffffffffffffffffffffffffffff021916908373ffffffffffffffffffffffffffffffffffffffff16021790555050565b6102ff61076b565b61030960006107e9565b565b60008060009054906101000a900473ffffffffffffffffffffffffffffffffffffffff16905090565b61033c61076b565b3373ffffffffffffffffffffffffffffffffffffffff167ff3fef3a3f44f9c277339b67d54f015748bd8d6b77a985b0ab6e71126b018c34a600260009054906101000a900473ffffffffffffffffffffffffffffffffffffffff1673ffffffffffffffffffffffffffffffffffffffff166370a08231306040518263ffffffff1660e01b81526004016103cf9190610f88565b60206040518083038186803b1580156103e757600080fd5b505afa1580156103fb573d6000803e3d6000fd5b505050506040513d601f19601f8201168201806040525081019061041f9190610cbf565b60405161042c9190611100565b60405180910390a2600260009054906101000a900473ffffffffffffffffffffffffffffffffffffffff1673ffffffffffffffffffffffffffffffffffffffff1663a9059cbb33600260009054906101000a900473ffffffffffffffffffffffffffffffffffffffff1673ffffffffffffffffffffffffffffffffffffffff166370a08231306040518263ffffffff1660e01b81526004016104ce9190610f88565b60206040518083038186803b1580156104e657600080fd5b505afa1580156104fa573d6000803e3d6000fd5b505050506040513d601f19601f8201168201806040525081019061051e9190610cbf565b6040518363ffffffff1660e01b815260040161053b929190610fda565b602060405180830381600087803b15801561055557600080fd5b505af1158015610569573d6000803e3d6000fd5b505050506040513d601f19601f8201168201806040525081019061058d9190610c6d565b50565b80600260009054906101000a900473ffffffffffffffffffffffffffffffffffffffff1673ffffffffffffffffffffffffffffffffffffffff166370a08231336040518263ffffffff1660e01b81526004016105ec9190610f88565b60206040518083038186803b15801561060457600080fd5b505afa158015610618573d6000803e3d6000fd5b505050506040513d601f19601f8201168201806040525081019061063c9190610cbf565b101561067d576040517f08c379a000000000000000000000000000000000000000000000000000000000815260040161067490611080565b60405180910390fd5b6106be600260009054906101000a900473ffffffffffffffffffffffffffffffffffffffff163330670de0b6b3a7640000856106b9919061114d565b6108ad565b50565b6106c961076b565b600073ffffffffffffffffffffffffffffffffffffffff168173ffffffffffffffffffffffffffffffffffffffff161415610739576040517f08c379a000000000000000000000000000000000000000000000000000000000815260040161073090611040565b60405180910390fd5b610742816107e9565b50565b600260009054906101000a900473ffffffffffffffffffffffffffffffffffffffff1681565b610773610936565b73ffffffffffffffffffffffffffffffffffffffff1661079161030b565b73ffffffffffffffffffffffffffffffffffffffff16146107e7576040517f08c379a00000000000000000000000000000000000000000000000000000000081526004016107de906110a0565b60405180910390fd5b565b60008060009054906101000a900473ffffffffffffffffffffffffffffffffffffffff169050816000806101000a81548173ffffffffffffffffffffffffffffffffffffffff021916908373ffffffffffffffffffffffffffffffffffffffff1602179055508173ffffffffffffffffffffffffffffffffffffffff168173ffffffffffffffffffffffffffffffffffffffff167f8be0079c531659141344cd1fd0a4f28419497f9722a3daafe3b4186f6b6457e060405160405180910390a35050565b610930846323b872dd60e01b8585856040516024016108ce93929190610fa3565b604051602081830303815290604052907bffffffffffffffffffffffffffffffffffffffffffffffffffffffff19166020820180517bffffffffffffffffffffffffffffffffffffffffffffffffffffffff838183161783525050505061093e565b50505050565b600033905090565b60006109a0826040518060400160405280602081526020017f5361666545524332303a206c6f772d6c6576656c2063616c6c206661696c65648152508573ffffffffffffffffffffffffffffffffffffffff16610a069092919063ffffffff16565b90506000815114806109c25750808060200190518101906109c19190610c6d565b5b610a01576040517f08c379a00000000000000000000000000000000000000000000000000000000081526004016109f8906110e0565b60405180910390fd5b505050565b6060610a158484600085610a1e565b90509392505050565b606082471015610a63576040517f08c379a0000000000000000000000000000000000000000000000000000000008152600401610a5a90611060565b60405180910390fd5b6000808673ffffffffffffffffffffffffffffffffffffffff168587604051610a8c9190610f71565b60006040518083038185875af1925050503d8060008114610ac9576040519150601f19603f3d011682016040523d82523d6000602084013e610ace565b606091505b5091509150610adf87838387610aeb565b92505050949350505050565b60608315610b4e57600083511415610b4657610b0685610b61565b610b45576040517f08c379a0000000000000000000000000000000000000000000000000000000008152600401610b3c906110c0565b60405180910390fd5b5b829050610b59565b610b588383610ba0565b5b949350505050565b6000808273ffffffffffffffffffffffffffffffffffffffff16803b806020016040519081016040528181526000908060200190933c51119050919050565b600082511115610bb35781518083602001fd5b806040517f08c379a0000000000000000000000000000000000000000000000000000000008152600401610be7919061101e565b60405180910390fd5b600081359050610bff81611286565b92915050565b600081519050610c148161129d565b92915050565b600081359050610c29816112b4565b92915050565b600081519050610c3e816112b4565b92915050565b600060208284031215610c5657600080fd5b6000610c6484828501610bf0565b91505092915050565b600060208284031215610c7f57600080fd5b6000610c8d84828501610c05565b91505092915050565b600060208284031215610ca857600080fd5b6000610cb684828501610c1a565b91505092915050565b600060208284031215610cd157600080fd5b6000610cdf84828501610c2f565b91505092915050565b610cf1816111a7565b82525050565b6000610d028261111b565b610d0c8185611131565b9350610d1c818560208601611213565b80840191505092915050565b610d31816111ef565b82525050565b6000610d4282611126565b610d4c818561113c565b9350610d5c818560208601611213565b610d6581611275565b840191505092915050565b6000610d7d60268361113c565b91507f4f776e61626c653a206e6577206f776e657220697320746865207a65726f206160008301527f64647265737300000000000000000000000000000000000000000000000000006020830152604082019050919050565b6000610de360268361113c565b91507f416464726573733a20696e73756666696369656e742062616c616e636520666f60008301527f722063616c6c00000000000000000000000000000000000000000000000000006020830152604082019050919050565b6000610e49601c8361113c565b91507f496e73756666696369656e74206163636f756e742062616c616e6365000000006000830152602082019050919050565b6000610e8960208361113c565b91507f4f776e61626c653a2063616c6c6572206973206e6f7420746865206f776e65726000830152602082019050919050565b6000610ec9601d8361113c565b91507f416464726573733a2063616c6c20746f206e6f6e2d636f6e74726163740000006000830152602082019050919050565b6000610f09602a8361113c565b91507f5361666545524332303a204552433230206f7065726174696f6e20646964206e60008301527f6f742073756363656564000000000000000000000000000000000000000000006020830152604082019050919050565b610f6b816111e5565b82525050565b6000610f7d8284610cf7565b915081905092915050565b6000602082019050610f9d6000830184610ce8565b92915050565b6000606082019050610fb86000830186610ce8565b610fc56020830185610ce8565b610fd26040830184610f62565b949350505050565b6000604082019050610fef6000830185610ce8565b610ffc6020830184610f62565b9392505050565b60006020820190506110186000830184610d28565b92915050565b600060208201905081810360008301526110388184610d37565b905092915050565b6000602082019050818103600083015261105981610d70565b9050919050565b6000602082019050818103600083015261107981610dd6565b9050919050565b6000602082019050818103600083015261109981610e3c565b9050919050565b600060208201905081810360008301526110b981610e7c565b9050919050565b600060208201905081810360008301526110d981610ebc565b9050919050565b600060208201905081810360008301526110f981610efc565b9050919050565b60006020820190506111156000830184610f62565b92915050565b600081519050919050565b600081519050919050565b600081905092915050565b600082825260208201905092915050565b6000611158826111e5565b9150611163836111e5565b9250817fffffffffffffffffffffffffffffffffffffffffffffffffffffffffffffffff048311821515161561119c5761119b611246565b5b828202905092915050565b60006111b2826111c5565b9050919050565b60008115159050919050565b600073ffffffffffffffffffffffffffffffffffffffff82169050919050565b6000819050919050565b60006111fa82611201565b9050919050565b600061120c826111c5565b9050919050565b60005b83811015611231578082015181840152602081019050611216565b83811115611240576000848401525b50505050565b7f4e487b7100000000000000000000000000000000000000000000000000000000600052601160045260246000fd5b6000601f19601f8301169050919050565b61128f816111a7565b811461129a57600080fd5b50565b6112a6816111b9565b81146112b157600080fd5b50565b6112bd816111e5565b81146112c857600080fd5b5056fea2646970667358221220b7f57cdd3e372ea76576d1c950e525f86ddb56e59d39319c844222f9b06bf50564736f6c63430008000033",
  "linkReferences": {},
  "deployedLinkReferences": {}
}