{
  "_format": "hh-sol-artifact-1",
  "contractName": "Faucet",
  "sourceName": "contracts/Faucet.sol",
  "abi": [
    {
      "inputs": [],
      "stateMutability": "payable",
      "type": "constructor"
    },
    {
      "anonymous": false,
      "inputs": [
        {
          "indexed": true,
          "internalType": "address",
          "name": "form",
          "type": "address"
        },
        {
          "indexed": true,
          "internalType": "uint256",
          "name": "amount",
          "type": "uint256"
        }
      ],
      "name": "Deposit",
      "type": "event"
    },
    {
      "anonymous": false,
      "inputs": [
        {
          "indexed": true,
          "internalType": "address",
          "name": "previousOwner",
          "type": "address"
        },
        {
          "indexed": true,
          "internalType": "address",
          "name": "newOwner",
          "type": "address"
        }
      ],
      "name": "OwnershipTransferred",
      "type": "event"
    },
    {
      "anonymous": false,
      "inputs": [
        {
          "indexed": true,
          "internalType": "address",
          "name": "to",
          "type": "address"
        },
        {
          "indexed": false,
          "internalType": "uint256",
          "name": "value",
          "type": "uint256"
        }
      ],
      "name": "withdraw",
      "type": "event"
    },
    {
      "inputs": [
        {
          "internalType": "uint256",
          "name": "_amount",
          "type": "uint256"
        }
      ],
      "name": "deposits",
      "outputs": [],
      "stateMutability": "nonpayable",
      "type": "function"
    },
    {
      "inputs": [],
      "name": "faucetAmount",
      "outputs": [
        {
          "internalType": "uint256",
          "name": "",
          "type": "uint256"
        }
      ],
      "stateMutability": "view",
      "type": "function"
    },
    {
      "inputs": [],
      "name": "getBalance",
      "outputs": [
        {
          "internalType": "uint256",
          "name": "",
          "type": "uint256"
        }
      ],
      "stateMutability": "view",
      "type": "function"
    },
    {
      "inputs": [],
      "name": "locktime",
      "outputs": [
        {
          "internalType": "uint256",
          "name": "",
          "type": "uint256"
        }
      ],
      "stateMutability": "view",
      "type": "function"
    },
    {
      "inputs": [],
      "name": "owner",
      "outputs": [
        {
          "internalType": "address",
          "name": "",
          "type": "address"
        }
      ],
      "stateMutability": "view",
      "type": "function"
    },
    {
      "inputs": [],
      "name": "renounceOwnership",
      "outputs": [],
      "stateMutability": "nonpayable",
      "type": "function"
    },
    {
      "inputs": [],
      "name": "requesttoken",
      "outputs": [],
      "stateMutability": "nonpayable",
      "type": "function"
    },
    {
      "inputs": [
        {
          "internalType": "uint256",
          "name": "amount",
          "type": "uint256"
        }
      ],
      "name": "setFaucetAmount",
      "outputs": [],
      "stateMutability": "nonpayable",
      "type": "function"
    },
    {
      "inputs": [
        {
          "internalType": "uint256",
          "name": "amount",
          "type": "uint256"
        }
      ],
      "name": "setLocktime",
      "outputs": [],
      "stateMutability": "nonpayable",
      "type": "function"
    },
    {
      "inputs": [
        {
          "internalType": "address",
          "name": "tokenAddress",
          "type": "address"
        }
      ],
      "name": "setToken",
      "outputs": [],
      "stateMutability": "nonpayable",
      "type": "function"
    },
    {
      "inputs": [],
      "name": "token",
      "outputs": [
        {
          "internalType": "contract IERC20",
          "name": "",
          "type": "address"
        }
      ],
      "stateMutability": "view",
      "type": "function"
    },
    {
      "inputs": [
        {
          "internalType": "address",
          "name": "newOwner",
          "type": "address"
        }
      ],
      "name": "transferOwnership",
      "outputs": [],
      "stateMutability": "nonpayable",
      "type": "function"
    },
    {
      "inputs": [],
      "name": "withdraws",
      "outputs": [],
      "stateMutability": "nonpayable",
      "type": "function"
    },
    {
      "stateMutability": "payable",
      "type": "receive"
    }
  ],
  "bytecode": "0x60806040526802b5e3af16b1880000600355603c60045561003261002761007860201b60201c565b61008060201b60201c565b33600160006101000a81548173ffffffffffffffffffffffffffffffffffffffff021916908373ffffffffffffffffffffffffffffffffffffffff160217905550610144565b600033905090565b60008060009054906101000a900473ffffffffffffffffffffffffffffffffffffffff169050816000806101000a81548173ffffffffffffffffffffffffffffffffffffffff021916908373ffffffffffffffffffffffffffffffffffffffff1602179055508173ffffffffffffffffffffffffffffffffffffffff168173ffffffffffffffffffffffffffffffffffffffff167f8be0079c531659141344cd1fd0a4f28419497f9722a3daafe3b4186f6b6457e060405160405180910390a35050565b611924806101536000396000f3fe6080604052600436106100c65760003560e01c806381d2fd9c1161007f578063b02c43d011610059578063b02c43d01461026b578063d951021514610294578063f2fde38b146102ab578063fc0c546a146102d457610111565b806381d2fd9c146101ec5780638da5cb5b146102155780639c2814301461024057610111565b806312065fe014610116578063144fa6d714610141578063301099a31461016a57806361c533b4146101935780636a0eacf3146101be578063715018a6146101d557610111565b3661011157343373ffffffffffffffffffffffffffffffffffffffff167fe1fffcc4923d04b559f4d29a8bfc6cda04eb5b0d3c460751c2402c5c5cc9109c60405160405180910390a3005b600080fd5b34801561012257600080fd5b5061012b6102ff565b60405161013891906116cd565b60405180910390f35b34801561014d57600080fd5b506101686004803603810190610163919061107f565b6103b1565b005b34801561017657600080fd5b50610191600480360381019061018c91906110d1565b6103fd565b005b34801561019f57600080fd5b506101a861041b565b6040516101b591906116cd565b60405180910390f35b3480156101ca57600080fd5b506101d3610421565b005b3480156101e157600080fd5b506101ea610707565b005b3480156101f857600080fd5b50610213600480360381019061020e91906110d1565b61071b565b005b34801561022157600080fd5b5061022a610740565b60405161023791906114f5565b60405180910390f35b34801561024c57600080fd5b50610255610769565b60405161026291906116cd565b60405180910390f35b34801561027757600080fd5b50610292600480360381019061028d91906110d1565b61076f565b005b3480156102a057600080fd5b506102a96108a0565b005b3480156102b757600080fd5b506102d260048036038101906102cd919061107f565b610afc565b005b3480156102e057600080fd5b506102e9610b80565b6040516102f69190611570565b60405180910390f35b6000600260009054906101000a900473ffffffffffffffffffffffffffffffffffffffff1673ffffffffffffffffffffffffffffffffffffffff166370a08231306040518263ffffffff1660e01b815260040161035c91906114f5565b60206040518083038186803b15801561037457600080fd5b505afa158015610388573d6000803e3d6000fd5b505050506040513d601f19601f820116820180604052508101906103ac91906110fa565b905090565b6103b9610ba6565b80600260006101000a81548173ffffffffffffffffffffffffffffffffffffffff021916908373ffffffffffffffffffffffffffffffffffffffff16021790555050565b610405610ba6565b603c816104129190611770565b60048190555050565b60045481565b600073ffffffffffffffffffffffffffffffffffffffff163373ffffffffffffffffffffffffffffffffffffffff161415610491576040517f08c379a00000000000000000000000000000000000000000000000000000000081526004016104889061160d565b60405180910390fd5b600354600260009054906101000a900473ffffffffffffffffffffffffffffffffffffffff1673ffffffffffffffffffffffffffffffffffffffff166370a08231306040518263ffffffff1660e01b81526004016104ef91906114f5565b60206040518083038186803b15801561050757600080fd5b505afa15801561051b573d6000803e3d6000fd5b505050506040513d601f19601f8201168201806040525081019061053f91906110fa565b1015610580576040517f08c379a00000000000000000000000000000000000000000000000000000000081526004016105779061166d565b60405180910390fd5b600560003373ffffffffffffffffffffffffffffffffffffffff1673ffffffffffffffffffffffffffffffffffffffff16815260200190815260200160002054421015610602576040517f08c379a00000000000000000000000000000000000000000000000000000000081526004016105f99061162d565b60405180910390fd5b60045442610610919061171a565b600560003373ffffffffffffffffffffffffffffffffffffffff1673ffffffffffffffffffffffffffffffffffffffff16815260200190815260200160002081905550600260009054906101000a900473ffffffffffffffffffffffffffffffffffffffff1673ffffffffffffffffffffffffffffffffffffffff1663a9059cbb336003546040518363ffffffff1660e01b81526004016106b2929190611547565b602060405180830381600087803b1580156106cc57600080fd5b505af11580156106e0573d6000803e3d6000fd5b505050506040513d601f19601f8201168201806040525081019061070491906110a8565b50565b61070f610ba6565b6107196000610c24565b565b610723610ba6565b670de0b6b3a7640000816107379190611770565b60038190555050565b60008060009054906101000a900473ffffffffffffffffffffffffffffffffffffffff16905090565b60035481565b80600260009054906101000a900473ffffffffffffffffffffffffffffffffffffffff1673ffffffffffffffffffffffffffffffffffffffff166370a08231336040518263ffffffff1660e01b81526004016107cb91906114f5565b60206040518083038186803b1580156107e357600080fd5b505afa1580156107f7573d6000803e3d6000fd5b505050506040513d601f19601f8201168201806040525081019061081b91906110fa565b101561085c576040517f08c379a0000000000000000000000000000000000000000000000000000000008152600401610853906115ed565b60405180910390fd5b61089d600260009054906101000a900473ffffffffffffffffffffffffffffffffffffffff163330670de0b6b3a7640000856108989190611770565b610ce8565b50565b6108a8610ba6565b3373ffffffffffffffffffffffffffffffffffffffff167ff3fef3a3f44f9c277339b67d54f015748bd8d6b77a985b0ab6e71126b018c34a600260009054906101000a900473ffffffffffffffffffffffffffffffffffffffff1673ffffffffffffffffffffffffffffffffffffffff166370a08231306040518263ffffffff1660e01b815260040161093b91906114f5565b60206040518083038186803b15801561095357600080fd5b505afa158015610967573d6000803e3d6000fd5b505050506040513d601f19601f8201168201806040525081019061098b91906110fa565b60405161099891906116cd565b60405180910390a2600260009054906101000a900473ffffffffffffffffffffffffffffffffffffffff1673ffffffffffffffffffffffffffffffffffffffff1663a9059cbb33600260009054906101000a900473ffffffffffffffffffffffffffffffffffffffff1673ffffffffffffffffffffffffffffffffffffffff166370a08231306040518263ffffffff1660e01b8152600401610a3a91906114f5565b60206040518083038186803b158015610a5257600080fd5b505afa158015610a66573d6000803e3d6000fd5b505050506040513d601f19601f82011682018060405250810190610a8a91906110fa565b6040518363ffffffff1660e01b8152600401610aa7929190611547565b602060405180830381600087803b158015610ac157600080fd5b505af1158015610ad5573d6000803e3d6000fd5b505050506040513d601f19601f82011682018060405250810190610af991906110a8565b50565b610b04610ba6565b600073ffffffffffffffffffffffffffffffffffffffff168173ffffffffffffffffffffffffffffffffffffffff161415610b74576040517f08c379a0000000000000000000000000000000000000000000000000000000008152600401610b6b906115ad565b60405180910390fd5b610b7d81610c24565b50565b600260009054906101000a900473ffffffffffffffffffffffffffffffffffffffff1681565b610bae610d71565b73ffffffffffffffffffffffffffffffffffffffff16610bcc610740565b73ffffffffffffffffffffffffffffffffffffffff1614610c22576040517f08c379a0000000000000000000000000000000000000000000000000000000008152600401610c199061164d565b60405180910390fd5b565b60008060009054906101000a900473ffffffffffffffffffffffffffffffffffffffff169050816000806101000a81548173ffffffffffffffffffffffffffffffffffffffff021916908373ffffffffffffffffffffffffffffffffffffffff1602179055508173ffffffffffffffffffffffffffffffffffffffff168173ffffffffffffffffffffffffffffffffffffffff167f8be0079c531659141344cd1fd0a4f28419497f9722a3daafe3b4186f6b6457e060405160405180910390a35050565b610d6b846323b872dd60e01b858585604051602401610d0993929190611510565b604051602081830303815290604052907bffffffffffffffffffffffffffffffffffffffffffffffffffffffff19166020820180517bffffffffffffffffffffffffffffffffffffffffffffffffffffffff8381831617835250505050610d79565b50505050565b600033905090565b6000610ddb826040518060400160405280602081526020017f5361666545524332303a206c6f772d6c6576656c2063616c6c206661696c65648152508573ffffffffffffffffffffffffffffffffffffffff16610e419092919063ffffffff16565b9050600081511480610dfd575080806020019051810190610dfc91906110a8565b5b610e3c576040517f08c379a0000000000000000000000000000000000000000000000000000000008152600401610e33906116ad565b60405180910390fd5b505050565b6060610e508484600085610e59565b90509392505050565b606082471015610e9e576040517f08c379a0000000000000000000000000000000000000000000000000000000008152600401610e95906115cd565b60405180910390fd5b6000808673ffffffffffffffffffffffffffffffffffffffff168587604051610ec791906114de565b60006040518083038185875af1925050503d8060008114610f04576040519150601f19603f3d011682016040523d82523d6000602084013e610f09565b606091505b5091509150610f1a87838387610f26565b92505050949350505050565b60608315610f8957600083511415610f8157610f4185610f9c565b610f80576040517f08c379a0000000000000000000000000000000000000000000000000000000008152600401610f779061168d565b60405180910390fd5b5b829050610f94565b610f938383610fdb565b5b949350505050565b6000808273ffffffffffffffffffffffffffffffffffffffff16803b806020016040519081016040528181526000908060200190933c51119050919050565b600082511115610fee5781518083602001fd5b806040517f08c379a0000000000000000000000000000000000000000000000000000000008152600401611022919061158b565b60405180910390fd5b60008135905061103a816118a9565b92915050565b60008151905061104f816118c0565b92915050565b600081359050611064816118d7565b92915050565b600081519050611079816118d7565b92915050565b60006020828403121561109157600080fd5b600061109f8482850161102b565b91505092915050565b6000602082840312156110ba57600080fd5b60006110c884828501611040565b91505092915050565b6000602082840312156110e357600080fd5b60006110f184828501611055565b91505092915050565b60006020828403121561110c57600080fd5b600061111a8482850161106a565b91505092915050565b61112c816117ca565b82525050565b600061113d826116e8565b61114781856116fe565b9350611157818560208601611836565b80840191505092915050565b61116c81611812565b82525050565b600061117d826116f3565b6111878185611709565b9350611197818560208601611836565b6111a081611898565b840191505092915050565b60006111b8602683611709565b91507f4f776e61626c653a206e6577206f776e657220697320746865207a65726f206160008301527f64647265737300000000000000000000000000000000000000000000000000006020830152604082019050919050565b600061121e602683611709565b91507f416464726573733a20696e73756666696369656e742062616c616e636520666f60008301527f722063616c6c00000000000000000000000000000000000000000000000000006020830152604082019050919050565b6000611284601c83611709565b91507f496e73756666696369656e74206163636f756e742062616c616e6365000000006000830152602082019050919050565b60006112c4602e83611709565b91507f52657175657374206d757374206e6f74206f726967696e6174652066726f6d2060008301527f61207a65726f206163636f756e740000000000000000000000000000000000006020830152604082019050919050565b600061132a604083611709565b91507f496e73756666696369656e742074696d6520656c61707365642073696e63652060008301527f6c61737420776974686472616c202d206c61737420616761696e206c617465726020830152604082019050919050565b6000611390602083611709565b91507f4f776e61626c653a2063616c6c6572206973206e6f7420746865206f776e65726000830152602082019050919050565b60006113d0603483611709565b91507f496e73756666696369656e742062616c616e636520696e20666175636574206660008301527f6f722077697468647261776c20726571756573740000000000000000000000006020830152604082019050919050565b6000611436601d83611709565b91507f416464726573733a2063616c6c20746f206e6f6e2d636f6e74726163740000006000830152602082019050919050565b6000611476602a83611709565b91507f5361666545524332303a204552433230206f7065726174696f6e20646964206e60008301527f6f742073756363656564000000000000000000000000000000000000000000006020830152604082019050919050565b6114d881611808565b82525050565b60006114ea8284611132565b915081905092915050565b600060208201905061150a6000830184611123565b92915050565b60006060820190506115256000830186611123565b6115326020830185611123565b61153f60408301846114cf565b949350505050565b600060408201905061155c6000830185611123565b61156960208301846114cf565b9392505050565b60006020820190506115856000830184611163565b92915050565b600060208201905081810360008301526115a58184611172565b905092915050565b600060208201905081810360008301526115c6816111ab565b9050919050565b600060208201905081810360008301526115e681611211565b9050919050565b6000602082019050818103600083015261160681611277565b9050919050565b60006020820190508181036000830152611626816112b7565b9050919050565b600060208201905081810360008301526116468161131d565b9050919050565b6000602082019050818103600083015261166681611383565b9050919050565b60006020820190508181036000830152611686816113c3565b9050919050565b600060208201905081810360008301526116a681611429565b9050919050565b600060208201905081810360008301526116c681611469565b9050919050565b60006020820190506116e260008301846114cf565b92915050565b600081519050919050565b600081519050919050565b600081905092915050565b600082825260208201905092915050565b600061172582611808565b915061173083611808565b9250827fffffffffffffffffffffffffffffffffffffffffffffffffffffffffffffffff0382111561176557611764611869565b5b828201905092915050565b600061177b82611808565b915061178683611808565b9250817fffffffffffffffffffffffffffffffffffffffffffffffffffffffffffffffff04831182151516156117bf576117be611869565b5b828202905092915050565b60006117d5826117e8565b9050919050565b60008115159050919050565b600073ffffffffffffffffffffffffffffffffffffffff82169050919050565b6000819050919050565b600061181d82611824565b9050919050565b600061182f826117e8565b9050919050565b60005b83811015611854578082015181840152602081019050611839565b83811115611863576000848401525b50505050565b7f4e487b7100000000000000000000000000000000000000000000000000000000600052601160045260246000fd5b6000601f19601f8301169050919050565b6118b2816117ca565b81146118bd57600080fd5b50565b6118c9816117dc565b81146118d457600080fd5b50565b6118e081611808565b81146118eb57600080fd5b5056fea2646970667358221220d8f54c9606695c1c7844775f1e2c7da8ab9208f00d8884f706b757bc3722240b64736f6c63430008000033",
  "linkReferences": {},
  "deployedLinkReferences": {}
}