{
  "_format": "hh-sol-artifact-1",
  "contractName": "Sim",
  "sourceName": "contracts/Sims.sol",
  "abi": [
    {
      "inputs": [],
      "stateMutability": "nonpayable",
      "type": "constructor"
    },
    {
      "anonymous": false,
      "inputs": [
        {
          "indexed": true,
          "internalType": "address",
          "name": "owner",
          "type": "address"
        },
        {
          "indexed": true,
          "internalType": "address",
          "name": "approved",
          "type": "address"
        },
        {
          "indexed": true,
          "internalType": "uint256",
          "name": "tokenId",
          "type": "uint256"
        }
      ],
      "name": "Approval",
      "type": "event"
    },
    {
      "anonymous": false,
      "inputs": [
        {
          "indexed": true,
          "internalType": "address",
          "name": "owner",
          "type": "address"
        },
        {
          "indexed": true,
          "internalType": "address",
          "name": "operator",
          "type": "address"
        },
        {
          "indexed": false,
          "internalType": "bool",
          "name": "approved",
          "type": "bool"
        }
      ],
      "name": "ApprovalForAll",
      "type": "event"
    },
    {
      "anonymous": false,
      "inputs": [
        {
          "indexed": false,
          "internalType": "address",
          "name": "to",
          "type": "address"
        },
        {
          "indexed": false,
          "internalType": "uint256",
          "name": "tokenid",
          "type": "uint256"
        }
      ],
      "name": "Mint",
      "type": "event"
    },
    {
      "anonymous": false,
      "inputs": [
        {
          "indexed": true,
          "internalType": "address",
          "name": "previousOwner",
          "type": "address"
        },
        {
          "indexed": true,
          "internalType": "address",
          "name": "newOwner",
          "type": "address"
        }
      ],
      "name": "OwnershipTransferred",
      "type": "event"
    },
    {
      "anonymous": false,
      "inputs": [
        {
          "indexed": true,
          "internalType": "address",
          "name": "from",
          "type": "address"
        },
        {
          "indexed": true,
          "internalType": "address",
          "name": "to",
          "type": "address"
        },
        {
          "indexed": true,
          "internalType": "uint256",
          "name": "tokenId",
          "type": "uint256"
        }
      ],
      "name": "Transfer",
      "type": "event"
    },
    {
      "inputs": [
        {
          "internalType": "address",
          "name": "to",
          "type": "address"
        },
        {
          "internalType": "uint256",
          "name": "tokenId",
          "type": "uint256"
        }
      ],
      "name": "approve",
      "outputs": [],
      "stateMutability": "nonpayable",
      "type": "function"
    },
    {
      "inputs": [
        {
          "internalType": "address",
          "name": "owner",
          "type": "address"
        }
      ],
      "name": "balanceOf",
      "outputs": [
        {
          "internalType": "uint256",
          "name": "",
          "type": "uint256"
        }
      ],
      "stateMutability": "view",
      "type": "function"
    },
    {
      "inputs": [],
      "name": "baseExtension",
      "outputs": [
        {
          "internalType": "string",
          "name": "",
          "type": "string"
        }
      ],
      "stateMutability": "view",
      "type": "function"
    },
    {
      "inputs": [],
      "name": "baseExtensionPng",
      "outputs": [
        {
          "internalType": "string",
          "name": "",
          "type": "string"
        }
      ],
      "stateMutability": "view",
      "type": "function"
    },
    {
      "inputs": [
        {
          "internalType": "uint256",
          "name": "tokenId",
          "type": "uint256"
        }
      ],
      "name": "getApproved",
      "outputs": [
        {
          "internalType": "address",
          "name": "",
          "type": "address"
        }
      ],
      "stateMutability": "view",
      "type": "function"
    },
    {
      "inputs": [
        {
          "internalType": "address",
          "name": "owner",
          "type": "address"
        }
      ],
      "name": "getNFTs",
      "outputs": [
        {
          "components": [
            {
              "internalType": "uint256",
              "name": "id",
              "type": "uint256"
            },
            {
              "internalType": "address",
              "name": "owner",
              "type": "address"
            },
            {
              "internalType": "string",
              "name": "tokenURI",
              "type": "string"
            },
            {
              "internalType": "string",
              "name": "tokenPNG",
              "type": "string"
            }
          ],
          "internalType": "struct Sim.sim[]",
          "name": "",
          "type": "tuple[]"
        }
      ],
      "stateMutability": "view",
      "type": "function"
    },
    {
      "inputs": [
        {
          "internalType": "address",
          "name": "owner",
          "type": "address"
        },
        {
          "internalType": "address",
          "name": "operator",
          "type": "address"
        }
      ],
      "name": "isApprovedForAll",
      "outputs": [
        {
          "internalType": "bool",
          "name": "",
          "type": "bool"
        }
      ],
      "stateMutability": "view",
      "type": "function"
    },
    {
      "inputs": [
        {
          "internalType": "address",
          "name": "owner",
          "type": "address"
        }
      ],
      "name": "listTokenIds",
      "outputs": [
        {
          "internalType": "uint256[]",
          "name": "tokenIds",
          "type": "uint256[]"
        }
      ],
      "stateMutability": "view",
      "type": "function"
    },
    {
      "inputs": [],
      "name": "maxSupply",
      "outputs": [
        {
          "internalType": "uint256",
          "name": "",
          "type": "uint256"
        }
      ],
      "stateMutability": "view",
      "type": "function"
    },
    {
      "inputs": [
        {
          "internalType": "address",
          "name": "to",
          "type": "address"
        }
      ],
      "name": "mint",
      "outputs": [
        {
          "internalType": "uint256",
          "name": "",
          "type": "uint256"
        }
      ],
      "stateMutability": "nonpayable",
      "type": "function"
    },
    {
      "inputs": [],
      "name": "name",
      "outputs": [
        {
          "internalType": "string",
          "name": "",
          "type": "string"
        }
      ],
      "stateMutability": "view",
      "type": "function"
    },
    {
      "inputs": [],
      "name": "owner",
      "outputs": [
        {
          "internalType": "address",
          "name": "",
          "type": "address"
        }
      ],
      "stateMutability": "view",
      "type": "function"
    },
    {
      "inputs": [
        {
          "internalType": "uint256",
          "name": "tokenId",
          "type": "uint256"
        }
      ],
      "name": "ownerOf",
      "outputs": [
        {
          "internalType": "address",
          "name": "",
          "type": "address"
        }
      ],
      "stateMutability": "view",
      "type": "function"
    },
    {
      "inputs": [
        {
          "internalType": "bool",
          "name": "_state",
          "type": "bool"
        }
      ],
      "name": "pause",
      "outputs": [],
      "stateMutability": "nonpayable",
      "type": "function"
    },
    {
      "inputs": [],
      "name": "paused",
      "outputs": [
        {
          "internalType": "bool",
          "name": "",
          "type": "bool"
        }
      ],
      "stateMutability": "view",
      "type": "function"
    },
    {
      "inputs": [],
      "name": "renounceOwnership",
      "outputs": [],
      "stateMutability": "nonpayable",
      "type": "function"
    },
    {
      "inputs": [
        {
          "internalType": "address",
          "name": "from",
          "type": "address"
        },
        {
          "internalType": "address",
          "name": "to",
          "type": "address"
        },
        {
          "internalType": "uint256",
          "name": "tokenId",
          "type": "uint256"
        }
      ],
      "name": "safeTransferFrom",
      "outputs": [],
      "stateMutability": "nonpayable",
      "type": "function"
    },
    {
      "inputs": [
        {
          "internalType": "address",
          "name": "from",
          "type": "address"
        },
        {
          "internalType": "address",
          "name": "to",
          "type": "address"
        },
        {
          "internalType": "uint256",
          "name": "tokenId",
          "type": "uint256"
        },
        {
          "internalType": "bytes",
          "name": "data",
          "type": "bytes"
        }
      ],
      "name": "safeTransferFrom",
      "outputs": [],
      "stateMutability": "nonpayable",
      "type": "function"
    },
    {
      "inputs": [
        {
          "internalType": "address",
          "name": "operator",
          "type": "address"
        },
        {
          "internalType": "bool",
          "name": "approved",
          "type": "bool"
        }
      ],
      "name": "setApprovalForAll",
      "outputs": [],
      "stateMutability": "nonpayable",
      "type": "function"
    },
    {
      "inputs": [
        {
          "internalType": "string",
          "name": "_newUrlPng",
          "type": "string"
        }
      ],
      "name": "setBasePng",
      "outputs": [],
      "stateMutability": "nonpayable",
      "type": "function"
    },
    {
      "inputs": [
        {
          "internalType": "string",
          "name": "_newUrl",
          "type": "string"
        }
      ],
      "name": "setBaseUrl",
      "outputs": [],
      "stateMutability": "nonpayable",
      "type": "function"
    },
    {
      "inputs": [
        {
          "internalType": "uint256",
          "name": "",
          "type": "uint256"
        }
      ],
      "name": "sims",
      "outputs": [
        {
          "internalType": "uint256",
          "name": "id",
          "type": "uint256"
        },
        {
          "internalType": "address",
          "name": "owner",
          "type": "address"
        },
        {
          "internalType": "string",
          "name": "tokenURI",
          "type": "string"
        },
        {
          "internalType": "string",
          "name": "tokenPNG",
          "type": "string"
        }
      ],
      "stateMutability": "view",
      "type": "function"
    },
    {
      "inputs": [
        {
          "internalType": "bytes4",
          "name": "interfaceId",
          "type": "bytes4"
        }
      ],
      "name": "supportsInterface",
      "outputs": [
        {
          "internalType": "bool",
          "name": "",
          "type": "bool"
        }
      ],
      "stateMutability": "view",
      "type": "function"
    },
    {
      "inputs": [],
      "name": "symbol",
      "outputs": [
        {
          "internalType": "string",
          "name": "",
          "type": "string"
        }
      ],
      "stateMutability": "view",
      "type": "function"
    },
    {
      "inputs": [
        {
          "internalType": "uint256",
          "name": "index",
          "type": "uint256"
        }
      ],
      "name": "tokenByIndex",
      "outputs": [
        {
          "internalType": "uint256",
          "name": "",
          "type": "uint256"
        }
      ],
      "stateMutability": "view",
      "type": "function"
    },
    {
      "inputs": [
        {
          "internalType": "address",
          "name": "owner",
          "type": "address"
        },
        {
          "internalType": "uint256",
          "name": "index",
          "type": "uint256"
        }
      ],
      "name": "tokenOfOwnerByIndex",
      "outputs": [
        {
          "internalType": "uint256",
          "name": "",
          "type": "uint256"
        }
      ],
      "stateMutability": "view",
      "type": "function"
    },
    {
      "inputs": [
        {
          "internalType": "uint256",
          "name": "tokenId",
          "type": "uint256"
        }
      ],
      "name": "tokenPNG",
      "outputs": [
        {
          "internalType": "string",
          "name": "",
          "type": "string"
        }
      ],
      "stateMutability": "view",
      "type": "function"
    },
    {
      "inputs": [
        {
          "internalType": "uint256",
          "name": "tokenId",
          "type": "uint256"
        }
      ],
      "name": "tokenURI",
      "outputs": [
        {
          "internalType": "string",
          "name": "",
          "type": "string"
        }
      ],
      "stateMutability": "view",
      "type": "function"
    },
    {
      "inputs": [],
      "name": "totalSupply",
      "outputs": [
        {
          "internalType": "uint256",
          "name": "",
          "type": "uint256"
        }
      ],
      "stateMutability": "view",
      "type": "function"
    },
    {
      "inputs": [
        {
          "internalType": "address",
          "name": "from",
          "type": "address"
        },
        {
          "internalType": "address",
          "name": "to",
          "type": "address"
        },
        {
          "internalType": "uint256",
          "name": "tokenId",
          "type": "uint256"
        }
      ],
      "name": "transferFrom",
      "outputs": [],
      "stateMutability": "nonpayable",
      "type": "function"
    },
    {
      "inputs": [
        {
          "internalType": "address",
          "name": "newOwner",
          "type": "address"
        }
      ],
      "name": "transferOwnership",
      "outputs": [],
      "stateMutability": "nonpayable",
      "type": "function"
    },
    {
      "inputs": [],
      "name": "withdraw",
      "outputs": [],
      "stateMutability": "nonpayable",
      "type": "function"
    }
  ],
  "bytecode": "0x60806040526040518060400160405280600581526020017f2e6a736f6e000000000000000000000000000000000000000000000000000000815250600e90805190602001906200005192919062000263565b506040518060400160405280600481526020017f2e706e6700000000000000000000000000000000000000000000000000000000815250600f90805190602001906200009f92919062000263565b506127106010556000601160006101000a81548160ff021916908315150217905550348015620000ce57600080fd5b506040518060400160405280600681526020017f53696d4e667400000000000000000000000000000000000000000000000000008152506040518060400160405280600381526020017f53696d000000000000000000000000000000000000000000000000000000000081525081600090805190602001906200015392919062000263565b5080600190805190602001906200016c92919062000263565b5050506200018f620001836200019560201b60201c565b6200019d60201b60201c565b62000378565b600033905090565b6000600a60009054906101000a900473ffffffffffffffffffffffffffffffffffffffff16905081600a60006101000a81548173ffffffffffffffffffffffffffffffffffffffff021916908373ffffffffffffffffffffffffffffffffffffffff1602179055508173ffffffffffffffffffffffffffffffffffffffff168173ffffffffffffffffffffffffffffffffffffffff167f8be0079c531659141344cd1fd0a4f28419497f9722a3daafe3b4186f6b6457e060405160405180910390a35050565b828054620002719062000313565b90600052602060002090601f016020900481019282620002955760008555620002e1565b82601f10620002b057805160ff1916838001178555620002e1565b82800160010185558215620002e1579182015b82811115620002e0578251825591602001919060010190620002c3565b5b509050620002f09190620002f4565b5090565b5b808211156200030f576000816000905550600101620002f5565b5090565b600060028204905060018216806200032c57607f821691505b6020821081141562000343576200034262000349565b5b50919050565b7f4e487b7100000000000000000000000000000000000000000000000000000000600052602260045260246000fd5b61450080620003886000396000f3fe608060405234801561001057600080fd5b50600436106101f05760003560e01c80636a6278421161010f578063b88d4fde116100a2578063d5abeb0111610071578063d5abeb01146105ce578063e2a4fad3146105ec578063e985e9c51461061c578063f2fde38b1461064c576101f0565b8063b88d4fde14610548578063c668286214610564578063c7c3268b14610582578063c87b56dd1461059e576101f0565b80638da5cb5b116100de5780638da5cb5b146104d257806395d89b41146104f05780639c0af63a1461050e578063a22cb4651461052c576101f0565b80636a6278421461043857806370a0823114610468578063715018a61461049857806382183fb0146104a2576101f0565b80632f745c59116101875780634d1457f6116101565780634d1457f61461039e5780634f6ccce7146103ba5780635c975abb146103ea5780636352211e14610408576101f0565b80632f745c591461031857806335842845146103485780633ccfd60b1461037857806342842e0e14610382576101f0565b8063095ea7b3116101c3578063095ea7b31461028f57806318160ddd146102ab5780631e4e704b146102c957806323b872dd146102fc576101f0565b806301ffc9a7146101f557806302329a291461022557806306fdde0314610241578063081812fc1461025f575b600080fd5b61020f600480360381019061020a919061335c565b610668565b60405161021c9190613e34565b60405180910390f35b61023f600480360381019061023a9190613333565b61067a565b005b61024961069f565b6040516102569190613e4f565b60405180910390f35b610279600480360381019061027491906133ef565b610731565b6040516102869190613d60565b60405180910390f35b6102a960048036038101906102a491906132f7565b610777565b005b6102b361088f565b6040516102c09190614091565b60405180910390f35b6102e360048036038101906102de91906133ef565b61089c565b6040516102f394939291906140ac565b60405180910390f35b610316600480360381019061031191906131f1565b610a0c565b005b610332600480360381019061032d91906132f7565b610a6c565b60405161033f9190614091565b60405180910390f35b610362600480360381019061035d91906133ef565b610b11565b60405161036f9190613e4f565b60405180910390f35b610380610bbb565b005b61039c600480360381019061039791906131f1565b610c0c565b005b6103b860048036038101906103b391906133ae565b610c2c565b005b6103d460048036038101906103cf91906133ef565b610c4e565b6040516103e19190614091565b60405180910390f35b6103f2610ce5565b6040516103ff9190613e34565b60405180910390f35b610422600480360381019061041d91906133ef565b610cf8565b60405161042f9190613d60565b60405180910390f35b610452600480360381019061044d919061318c565b610d7f565b60405161045f9190614091565b60405180910390f35b610482600480360381019061047d919061318c565b610f25565b60405161048f9190614091565b60405180910390f35b6104a0610fdd565b005b6104bc60048036038101906104b7919061318c565b610ff1565b6040516104c99190613df0565b60405180910390f35b6104da6112d7565b6040516104e79190613d60565b60405180910390f35b6104f8611301565b6040516105059190613e4f565b60405180910390f35b610516611393565b6040516105239190613e4f565b60405180910390f35b610546600480360381019061054191906132bb565b611421565b005b610562600480360381019061055d9190613240565b611437565b005b61056c611499565b6040516105799190613e4f565b60405180910390f35b61059c600480360381019061059791906133ae565b611527565b005b6105b860048036038101906105b391906133ef565b611549565b6040516105c59190613e4f565b60405180910390f35b6105d66115f3565b6040516105e39190614091565b60405180910390f35b6106066004803603810190610601919061318c565b6115f9565b6040516106139190613e12565b60405180910390f35b610636600480360381019061063191906131b5565b6116f3565b6040516106439190613e34565b60405180910390f35b6106666004803603810190610661919061318c565b611787565b005b60006106738261180b565b9050919050565b610682611885565b80601160006101000a81548160ff02191690831515021790555050565b6060600080546106ae90614355565b80601f01602080910402602001604051908101604052809291908181526020018280546106da90614355565b80156107275780601f106106fc57610100808354040283529160200191610727565b820191906000526020600020905b81548152906001019060200180831161070a57829003601f168201915b5050505050905090565b600061073c82611903565b6004600083815260200190815260200160002060009054906101000a900473ffffffffffffffffffffffffffffffffffffffff169050919050565b600061078282610cf8565b90508073ffffffffffffffffffffffffffffffffffffffff168373ffffffffffffffffffffffffffffffffffffffff1614156107f3576040517f08c379a00000000000000000000000000000000000000000000000000000000081526004016107ea90614011565b60405180910390fd5b8073ffffffffffffffffffffffffffffffffffffffff1661081261194e565b73ffffffffffffffffffffffffffffffffffffffff16148061084157506108408161083b61194e565b6116f3565b5b610880576040517f08c379a000000000000000000000000000000000000000000000000000000000815260040161087790614031565b60405180910390fd5b61088a8383611956565b505050565b6000600880549050905090565b601281815481106108ac57600080fd5b90600052602060002090600402016000915090508060000154908060010160009054906101000a900473ffffffffffffffffffffffffffffffffffffffff16908060020180546108fb90614355565b80601f016020809104026020016040519081016040528092919081815260200182805461092790614355565b80156109745780601f1061094957610100808354040283529160200191610974565b820191906000526020600020905b81548152906001019060200180831161095757829003601f168201915b50505050509080600301805461098990614355565b80601f01602080910402602001604051908101604052809291908181526020018280546109b590614355565b8015610a025780601f106109d757610100808354040283529160200191610a02565b820191906000526020600020905b8154815290600101906020018083116109e557829003601f168201915b5050505050905084565b610a1d610a1761194e565b82611a0f565b610a5c576040517f08c379a0000000000000000000000000000000000000000000000000000000008152600401610a5390613e71565b60405180910390fd5b610a67838383611aa4565b505050565b6000610a7783610f25565b8210610ab8576040517f08c379a0000000000000000000000000000000000000000000000000000000008152600401610aaf90613e91565b60405180910390fd5b600660008473ffffffffffffffffffffffffffffffffffffffff1673ffffffffffffffffffffffffffffffffffffffff168152602001908152602001600020600083815260200190815260200160002054905092915050565b6060610b1c82611d9e565b610b5b576040517f08c379a0000000000000000000000000000000000000000000000000000000008152600401610b5290613fd1565b60405180910390fd5b6000610b65611ddf565b90506000815111610b855760405180602001604052806000815250610bb3565b80610b8f84611e71565b600f604051602001610ba393929190613d2f565b6040516020818303038152906040525b915050919050565b610bc3611885565b3373ffffffffffffffffffffffffffffffffffffffff166108fc479081150290604051600060405180830381858888f19350505050158015610c09573d6000803e3d6000fd5b50565b610c2783838360405180602001604052806000815250611437565b505050565b610c34611885565b80600d9080519060200190610c4a929190612f72565b5050565b6000610c5861088f565b8210610c99576040517f08c379a0000000000000000000000000000000000000000000000000000000008152600401610c9090614051565b60405180910390fd5b60088281548110610cd3577f4e487b7100000000000000000000000000000000000000000000000000000000600052603260045260246000fd5b90600052602060002001549050919050565b601160009054906101000a900460ff1681565b600080610d0483611f95565b9050600073ffffffffffffffffffffffffffffffffffffffff168173ffffffffffffffffffffffffffffffffffffffff161415610d76576040517f08c379a0000000000000000000000000000000000000000000000000000000008152600401610d6d90613ff1565b60405180910390fd5b80915050919050565b600080610d8a61088f565b9050601160009054906101000a900460ff1615610da657600080fd5b6010548180610db490614387565b92501115610dc157600080fd5b610dcb600b611fd2565b6000610dd7600b611fe8565b9050610de38482611ff6565b7f0f6798a560793a54c3bcfe86a93cde1e73087d944c0ea20544137d41213968858482604051610e14929190613dc7565b60405180910390a1601260405180608001604052808381526020018673ffffffffffffffffffffffffffffffffffffffff168152602001610e5484611549565b8152602001610e6284610b11565b81525090806001815401808255809150506001900390600052602060002090600402016000909190919091506000820151816000015560208201518160010160006101000a81548173ffffffffffffffffffffffffffffffffffffffff021916908373ffffffffffffffffffffffffffffffffffffffff1602179055506040820151816002019080519060200190610efb929190612f72565b506060820151816003019080519060200190610f18929190612f72565b5050508092505050919050565b60008073ffffffffffffffffffffffffffffffffffffffff168273ffffffffffffffffffffffffffffffffffffffff161415610f96576040517f08c379a0000000000000000000000000000000000000000000000000000000008152600401610f8d90613f71565b60405180910390fd5b600360008373ffffffffffffffffffffffffffffffffffffffff1673ffffffffffffffffffffffffffffffffffffffff168152602001908152602001600020549050919050565b610fe5611885565b610fef6000612214565b565b60606000610ffe83610f25565b905060008167ffffffffffffffff811115611042577f4e487b7100000000000000000000000000000000000000000000000000000000600052604160045260246000fd5b60405190808252806020026020018201604052801561107b57816020015b611068612ff8565b8152602001906001900390816110605790505b50905060005b828110156112cc57601260016110978784610a6c565b6110a1919061426b565b815481106110d8577f4e487b7100000000000000000000000000000000000000000000000000000000600052603260045260246000fd5b9060005260206000209060040201604051806080016040529081600082015481526020016001820160009054906101000a900473ffffffffffffffffffffffffffffffffffffffff1673ffffffffffffffffffffffffffffffffffffffff1673ffffffffffffffffffffffffffffffffffffffff16815260200160028201805461116190614355565b80601f016020809104026020016040519081016040528092919081815260200182805461118d90614355565b80156111da5780601f106111af576101008083540402835291602001916111da565b820191906000526020600020905b8154815290600101906020018083116111bd57829003601f168201915b505050505081526020016003820180546111f390614355565b80601f016020809104026020016040519081016040528092919081815260200182805461121f90614355565b801561126c5780601f106112415761010080835404028352916020019161126c565b820191906000526020600020905b81548152906001019060200180831161124f57829003601f168201915b5050505050815250508282815181106112ae577f4e487b7100000000000000000000000000000000000000000000000000000000600052603260045260246000fd5b602002602001018190525080806112c490614387565b915050611081565b508092505050919050565b6000600a60009054906101000a900473ffffffffffffffffffffffffffffffffffffffff16905090565b60606001805461131090614355565b80601f016020809104026020016040519081016040528092919081815260200182805461133c90614355565b80156113895780601f1061135e57610100808354040283529160200191611389565b820191906000526020600020905b81548152906001019060200180831161136c57829003601f168201915b5050505050905090565b600f80546113a090614355565b80601f01602080910402602001604051908101604052809291908181526020018280546113cc90614355565b80156114195780601f106113ee57610100808354040283529160200191611419565b820191906000526020600020905b8154815290600101906020018083116113fc57829003601f168201915b505050505081565b61143361142c61194e565b83836122da565b5050565b61144861144261194e565b83611a0f565b611487576040517f08c379a000000000000000000000000000000000000000000000000000000000815260040161147e90613e71565b60405180910390fd5b61149384848484612447565b50505050565b600e80546114a690614355565b80601f01602080910402602001604051908101604052809291908181526020018280546114d290614355565b801561151f5780601f106114f45761010080835404028352916020019161151f565b820191906000526020600020905b81548152906001019060200180831161150257829003601f168201915b505050505081565b61152f611885565b80600c9080519060200190611545929190612f72565b5050565b606061155482611d9e565b611593576040517f08c379a000000000000000000000000000000000000000000000000000000000815260040161158a90613fd1565b60405180910390fd5b600061159d6124a3565b905060008151116115bd57604051806020016040528060008152506115eb565b806115c784611e71565b600e6040516020016115db93929190613d2f565b6040516020818303038152906040525b915050919050565b60105481565b6060600061160683610f25565b905060008167ffffffffffffffff81111561164a577f4e487b7100000000000000000000000000000000000000000000000000000000600052604160045260246000fd5b6040519080825280602002602001820160405280156116785781602001602082028036833780820191505090505b50905060005b828110156116e8576116908582610a6c565b8282815181106116c9577f4e487b7100000000000000000000000000000000000000000000000000000000600052603260045260246000fd5b60200260200101818152505080806116e090614387565b91505061167e565b508092505050919050565b6000600560008473ffffffffffffffffffffffffffffffffffffffff1673ffffffffffffffffffffffffffffffffffffffff16815260200190815260200160002060008373ffffffffffffffffffffffffffffffffffffffff1673ffffffffffffffffffffffffffffffffffffffff16815260200190815260200160002060009054906101000a900460ff16905092915050565b61178f611885565b600073ffffffffffffffffffffffffffffffffffffffff168173ffffffffffffffffffffffffffffffffffffffff1614156117ff576040517f08c379a00000000000000000000000000000000000000000000000000000000081526004016117f690613ed1565b60405180910390fd5b61180881612214565b50565b60007f780e9d63000000000000000000000000000000000000000000000000000000007bffffffffffffffffffffffffffffffffffffffffffffffffffffffff1916827bffffffffffffffffffffffffffffffffffffffffffffffffffffffff1916148061187e575061187d82612535565b5b9050919050565b61188d61194e565b73ffffffffffffffffffffffffffffffffffffffff166118ab6112d7565b73ffffffffffffffffffffffffffffffffffffffff1614611901576040517f08c379a00000000000000000000000000000000000000000000000000000000081526004016118f890613fb1565b60405180910390fd5b565b61190c81611d9e565b61194b576040517f08c379a000000000000000000000000000000000000000000000000000000000815260040161194290613ff1565b60405180910390fd5b50565b600033905090565b816004600083815260200190815260200160002060006101000a81548173ffffffffffffffffffffffffffffffffffffffff021916908373ffffffffffffffffffffffffffffffffffffffff160217905550808273ffffffffffffffffffffffffffffffffffffffff166119c983610cf8565b73ffffffffffffffffffffffffffffffffffffffff167f8c5be1e5ebec7d5bd14f71427d1e84f3dd0314c0f7b2291e5b200ac8c7c3b92560405160405180910390a45050565b600080611a1b83610cf8565b90508073ffffffffffffffffffffffffffffffffffffffff168473ffffffffffffffffffffffffffffffffffffffff161480611a5d5750611a5c81856116f3565b5b80611a9b57508373ffffffffffffffffffffffffffffffffffffffff16611a8384610731565b73ffffffffffffffffffffffffffffffffffffffff16145b91505092915050565b8273ffffffffffffffffffffffffffffffffffffffff16611ac482610cf8565b73ffffffffffffffffffffffffffffffffffffffff1614611b1a576040517f08c379a0000000000000000000000000000000000000000000000000000000008152600401611b1190613ef1565b60405180910390fd5b600073ffffffffffffffffffffffffffffffffffffffff168273ffffffffffffffffffffffffffffffffffffffff161415611b8a576040517f08c379a0000000000000000000000000000000000000000000000000000000008152600401611b8190613f31565b60405180910390fd5b611b978383836001612617565b8273ffffffffffffffffffffffffffffffffffffffff16611bb782610cf8565b73ffffffffffffffffffffffffffffffffffffffff1614611c0d576040517f08c379a0000000000000000000000000000000000000000000000000000000008152600401611c0490613ef1565b60405180910390fd5b6004600082815260200190815260200160002060006101000a81549073ffffffffffffffffffffffffffffffffffffffff02191690556001600360008573ffffffffffffffffffffffffffffffffffffffff1673ffffffffffffffffffffffffffffffffffffffff168152602001908152602001600020600082825403925050819055506001600360008473ffffffffffffffffffffffffffffffffffffffff1673ffffffffffffffffffffffffffffffffffffffff16815260200190815260200160002060008282540192505081905550816002600083815260200190815260200160002060006101000a81548173ffffffffffffffffffffffffffffffffffffffff021916908373ffffffffffffffffffffffffffffffffffffffff160217905550808273ffffffffffffffffffffffffffffffffffffffff168473ffffffffffffffffffffffffffffffffffffffff167fddf252ad1be2c89b69c2b068fc378daa952ba7f163c4a11628f55a4df523b3ef60405160405180910390a4611d998383836001612777565b505050565b60008073ffffffffffffffffffffffffffffffffffffffff16611dc083611f95565b73ffffffffffffffffffffffffffffffffffffffff1614159050919050565b6060600d8054611dee90614355565b80601f0160208091040260200160405190810160405280929190818152602001828054611e1a90614355565b8015611e675780601f10611e3c57610100808354040283529160200191611e67565b820191906000526020600020905b815481529060010190602001808311611e4a57829003601f168201915b5050505050905090565b606060006001611e808461277d565b01905060008167ffffffffffffffff811115611ec5577f4e487b7100000000000000000000000000000000000000000000000000000000600052604160045260246000fd5b6040519080825280601f01601f191660200182016040528015611ef75781602001600182028036833780820191505090505b509050600082602001820190505b600115611f8a578080600190039150507f3031323334353637383961626364656600000000000000000000000000000000600a86061a8153600a8581611f74577f4e487b7100000000000000000000000000000000000000000000000000000000600052601260045260246000fd5b0494506000851415611f8557611f8a565b611f05565b819350505050919050565b60006002600083815260200190815260200160002060009054906101000a900473ffffffffffffffffffffffffffffffffffffffff169050919050565b6001816000016000828254019250508190555050565b600081600001549050919050565b600073ffffffffffffffffffffffffffffffffffffffff168273ffffffffffffffffffffffffffffffffffffffff161415612066576040517f08c379a000000000000000000000000000000000000000000000000000000000815260040161205d90613f91565b60405180910390fd5b61206f81611d9e565b156120af576040517f08c379a00000000000000000000000000000000000000000000000000000000081526004016120a690613f11565b60405180910390fd5b6120bd600083836001612617565b6120c681611d9e565b15612106576040517f08c379a00000000000000000000000000000000000000000000000000000000081526004016120fd90613f11565b60405180910390fd5b6001600360008473ffffffffffffffffffffffffffffffffffffffff1673ffffffffffffffffffffffffffffffffffffffff16815260200190815260200160002060008282540192505081905550816002600083815260200190815260200160002060006101000a81548173ffffffffffffffffffffffffffffffffffffffff021916908373ffffffffffffffffffffffffffffffffffffffff160217905550808273ffffffffffffffffffffffffffffffffffffffff16600073ffffffffffffffffffffffffffffffffffffffff167fddf252ad1be2c89b69c2b068fc378daa952ba7f163c4a11628f55a4df523b3ef60405160405180910390a4612210600083836001612777565b5050565b6000600a60009054906101000a900473ffffffffffffffffffffffffffffffffffffffff16905081600a60006101000a81548173ffffffffffffffffffffffffffffffffffffffff021916908373ffffffffffffffffffffffffffffffffffffffff1602179055508173ffffffffffffffffffffffffffffffffffffffff168173ffffffffffffffffffffffffffffffffffffffff167f8be0079c531659141344cd1fd0a4f28419497f9722a3daafe3b4186f6b6457e060405160405180910390a35050565b8173ffffffffffffffffffffffffffffffffffffffff168373ffffffffffffffffffffffffffffffffffffffff161415612349576040517f08c379a000000000000000000000000000000000000000000000000000000000815260040161234090613f51565b60405180910390fd5b80600560008573ffffffffffffffffffffffffffffffffffffffff1673ffffffffffffffffffffffffffffffffffffffff16815260200190815260200160002060008473ffffffffffffffffffffffffffffffffffffffff1673ffffffffffffffffffffffffffffffffffffffff16815260200190815260200160002060006101000a81548160ff0219169083151502179055508173ffffffffffffffffffffffffffffffffffffffff168373ffffffffffffffffffffffffffffffffffffffff167f17307eab39ab6107e8899845ad3d59bd9653f200f220920489ca2b5937696c318360405161243a9190613e34565b60405180910390a3505050565b612452848484611aa4565b61245e848484846129b4565b61249d576040517f08c379a000000000000000000000000000000000000000000000000000000000815260040161249490613eb1565b60405180910390fd5b50505050565b6060600c80546124b290614355565b80601f01602080910402602001604051908101604052809291908181526020018280546124de90614355565b801561252b5780601f106125005761010080835404028352916020019161252b565b820191906000526020600020905b81548152906001019060200180831161250e57829003601f168201915b5050505050905090565b60007f80ac58cd000000000000000000000000000000000000000000000000000000007bffffffffffffffffffffffffffffffffffffffffffffffffffffffff1916827bffffffffffffffffffffffffffffffffffffffffffffffffffffffff1916148061260057507f5b5e139f000000000000000000000000000000000000000000000000000000007bffffffffffffffffffffffffffffffffffffffffffffffffffffffff1916827bffffffffffffffffffffffffffffffffffffffffffffffffffffffff1916145b80612610575061260f82612b4b565b5b9050919050565b61262384848484612bb5565b6001811115612667576040517f08c379a000000000000000000000000000000000000000000000000000000000815260040161265e90614071565b60405180910390fd5b6000829050600073ffffffffffffffffffffffffffffffffffffffff168573ffffffffffffffffffffffffffffffffffffffff1614156126af576126aa81612bbb565b6126ee565b8373ffffffffffffffffffffffffffffffffffffffff168573ffffffffffffffffffffffffffffffffffffffff16146126ed576126ec8582612c04565b5b5b600073ffffffffffffffffffffffffffffffffffffffff168473ffffffffffffffffffffffffffffffffffffffff1614156127315761272c81612d71565b612770565b8473ffffffffffffffffffffffffffffffffffffffff168473ffffffffffffffffffffffffffffffffffffffff161461276f5761276e8482612eb4565b5b5b5050505050565b50505050565b600080600090507a184f03e93ff9f4daa797ed6e38ed64bf6a1f0100000000000000008310612801577a184f03e93ff9f4daa797ed6e38ed64bf6a1f01000000000000000083816127f7577f4e487b7100000000000000000000000000000000000000000000000000000000600052601260045260246000fd5b0492506040810190505b6d04ee2d6d415b85acef81000000008310612864576d04ee2d6d415b85acef8100000000838161285a577f4e487b7100000000000000000000000000000000000000000000000000000000600052601260045260246000fd5b0492506020810190505b662386f26fc1000083106128b957662386f26fc1000083816128af577f4e487b7100000000000000000000000000000000000000000000000000000000600052601260045260246000fd5b0492506010810190505b6305f5e1008310612908576305f5e10083816128fe577f4e487b7100000000000000000000000000000000000000000000000000000000600052601260045260246000fd5b0492506008810190505b6127108310612953576127108381612949577f4e487b7100000000000000000000000000000000000000000000000000000000600052601260045260246000fd5b0492506004810190505b6064831061299c5760648381612992577f4e487b7100000000000000000000000000000000000000000000000000000000600052601260045260246000fd5b0492506002810190505b600a83106129ab576001810190505b80915050919050565b60006129d58473ffffffffffffffffffffffffffffffffffffffff16612f33565b15612b3e578373ffffffffffffffffffffffffffffffffffffffff1663150b7a026129fe61194e565b8786866040518563ffffffff1660e01b8152600401612a209493929190613d7b565b602060405180830381600087803b158015612a3a57600080fd5b505af1925050508015612a6b57506040513d601f19601f82011682018060405250810190612a689190613385565b60015b612aee573d8060008114612a9b576040519150601f19603f3d011682016040523d82523d6000602084013e612aa0565b606091505b50600081511415612ae6576040517f08c379a0000000000000000000000000000000000000000000000000000000008152600401612add90613eb1565b60405180910390fd5b805181602001fd5b63150b7a0260e01b7bffffffffffffffffffffffffffffffffffffffffffffffffffffffff1916817bffffffffffffffffffffffffffffffffffffffffffffffffffffffff191614915050612b43565b600190505b949350505050565b60007f01ffc9a7000000000000000000000000000000000000000000000000000000007bffffffffffffffffffffffffffffffffffffffffffffffffffffffff1916827bffffffffffffffffffffffffffffffffffffffffffffffffffffffff1916149050919050565b50505050565b6008805490506009600083815260200190815260200160002081905550600881908060018154018082558091505060019003906000526020600020016000909190919091505550565b60006001612c1184610f25565b612c1b919061426b565b9050600060076000848152602001908152602001600020549050818114612d00576000600660008673ffffffffffffffffffffffffffffffffffffffff1673ffffffffffffffffffffffffffffffffffffffff168152602001908152602001600020600084815260200190815260200160002054905080600660008773ffffffffffffffffffffffffffffffffffffffff1673ffffffffffffffffffffffffffffffffffffffff168152602001908152602001600020600084815260200190815260200160002081905550816007600083815260200190815260200160002081905550505b6007600084815260200190815260200160002060009055600660008573ffffffffffffffffffffffffffffffffffffffff1673ffffffffffffffffffffffffffffffffffffffff16815260200190815260200160002060008381526020019081526020016000206000905550505050565b60006001600880549050612d85919061426b565b9050600060096000848152602001908152602001600020549050600060088381548110612ddb577f4e487b7100000000000000000000000000000000000000000000000000000000600052603260045260246000fd5b906000526020600020015490508060088381548110612e23577f4e487b7100000000000000000000000000000000000000000000000000000000600052603260045260246000fd5b906000526020600020018190555081600960008381526020019081526020016000208190555060096000858152602001908152602001600020600090556008805480612e98577f4e487b7100000000000000000000000000000000000000000000000000000000600052603160045260246000fd5b6001900381819060005260206000200160009055905550505050565b6000612ebf83610f25565b905081600660008573ffffffffffffffffffffffffffffffffffffffff1673ffffffffffffffffffffffffffffffffffffffff168152602001908152602001600020600083815260200190815260200160002081905550806007600084815260200190815260200160002081905550505050565b6000808273ffffffffffffffffffffffffffffffffffffffff16803b806020016040519081016040528181526000908060200190933c51119050919050565b828054612f7e90614355565b90600052602060002090601f016020900481019282612fa05760008555612fe7565b82601f10612fb957805160ff1916838001178555612fe7565b82800160010185558215612fe7579182015b82811115612fe6578251825591602001919060010190612fcb565b5b509050612ff49190613036565b5090565b604051806080016040528060008152602001600073ffffffffffffffffffffffffffffffffffffffff16815260200160608152602001606081525090565b5b8082111561304f576000816000905550600101613037565b5090565b600061306661306184614130565b6140ff565b90508281526020810184848401111561307e57600080fd5b613089848285614313565b509392505050565b60006130a461309f84614160565b6140ff565b9050828152602081018484840111156130bc57600080fd5b6130c7848285614313565b509392505050565b6000813590506130de8161446e565b92915050565b6000813590506130f381614485565b92915050565b6000813590506131088161449c565b92915050565b60008151905061311d8161449c565b92915050565b600082601f83011261313457600080fd5b8135613144848260208601613053565b91505092915050565b600082601f83011261315e57600080fd5b813561316e848260208601613091565b91505092915050565b600081359050613186816144b3565b92915050565b60006020828403121561319e57600080fd5b60006131ac848285016130cf565b91505092915050565b600080604083850312156131c857600080fd5b60006131d6858286016130cf565b92505060206131e7858286016130cf565b9150509250929050565b60008060006060848603121561320657600080fd5b6000613214868287016130cf565b9350506020613225868287016130cf565b925050604061323686828701613177565b9150509250925092565b6000806000806080858703121561325657600080fd5b6000613264878288016130cf565b9450506020613275878288016130cf565b935050604061328687828801613177565b925050606085013567ffffffffffffffff8111156132a357600080fd5b6132af87828801613123565b91505092959194509250565b600080604083850312156132ce57600080fd5b60006132dc858286016130cf565b92505060206132ed858286016130e4565b9150509250929050565b6000806040838503121561330a57600080fd5b6000613318858286016130cf565b925050602061332985828601613177565b9150509250929050565b60006020828403121561334557600080fd5b6000613353848285016130e4565b91505092915050565b60006020828403121561336e57600080fd5b600061337c848285016130f9565b91505092915050565b60006020828403121561339757600080fd5b60006133a58482850161310e565b91505092915050565b6000602082840312156133c057600080fd5b600082013567ffffffffffffffff8111156133da57600080fd5b6133e68482850161314d565b91505092915050565b60006020828403121561340157600080fd5b600061340f84828501613177565b91505092915050565b60006134248383613ca7565b905092915050565b60006134388383613d11565b60208301905092915050565b61344d8161429f565b82525050565b61345c8161429f565b82525050565b600061346d826141c5565b613477818561420b565b93508360208202850161348985614190565b8060005b858110156134c557848403895281516134a68582613418565b94506134b1836141f1565b925060208a0199505060018101905061348d565b50829750879550505050505092915050565b60006134e2826141d0565b6134ec818561421c565b93506134f7836141a0565b8060005b8381101561352857815161350f888261342c565b975061351a836141fe565b9250506001810190506134fb565b5085935050505092915050565b61353e816142b1565b82525050565b600061354f826141db565b613559818561422d565b9350613569818560208601614322565b6135728161445d565b840191505092915050565b6000613588826141e6565b613592818561423e565b93506135a2818560208601614322565b6135ab8161445d565b840191505092915050565b60006135c1826141e6565b6135cb818561424f565b93506135db818560208601614322565b6135e48161445d565b840191505092915050565b60006135fa826141e6565b6136048185614260565b9350613614818560208601614322565b80840191505092915050565b6000815461362d81614355565b6136378186614260565b94506001821660008114613652576001811461366357613696565b60ff19831686528186019350613696565b61366c856141b0565b60005b8381101561368e5781548189015260018201915060208101905061366f565b838801955050505b50505092915050565b60006136ac602d8361424f565b91507f4552433732313a2063616c6c6572206973206e6f7420746f6b656e206f776e6560008301527f72206f7220617070726f766564000000000000000000000000000000000000006020830152604082019050919050565b6000613712602b8361424f565b91507f455243373231456e756d657261626c653a206f776e657220696e646578206f7560008301527f74206f6620626f756e64730000000000000000000000000000000000000000006020830152604082019050919050565b600061377860328361424f565b91507f4552433732313a207472616e7366657220746f206e6f6e20455243373231526560008301527f63656976657220696d706c656d656e74657200000000000000000000000000006020830152604082019050919050565b60006137de60268361424f565b91507f4f776e61626c653a206e6577206f776e657220697320746865207a65726f206160008301527f64647265737300000000000000000000000000000000000000000000000000006020830152604082019050919050565b600061384460258361424f565b91507f4552433732313a207472616e736665722066726f6d20696e636f72726563742060008301527f6f776e65720000000000000000000000000000000000000000000000000000006020830152604082019050919050565b60006138aa601c8361424f565b91507f4552433732313a20746f6b656e20616c7265616479206d696e746564000000006000830152602082019050919050565b60006138ea60248361424f565b91507f4552433732313a207472616e7366657220746f20746865207a65726f2061646460008301527f72657373000000000000000000000000000000000000000000000000000000006020830152604082019050919050565b600061395060198361424f565b91507f4552433732313a20617070726f766520746f2063616c6c6572000000000000006000830152602082019050919050565b600061399060298361424f565b91507f4552433732313a2061646472657373207a65726f206973206e6f74206120766160008301527f6c6964206f776e657200000000000000000000000000000000000000000000006020830152604082019050919050565b60006139f660208361424f565b91507f4552433732313a206d696e7420746f20746865207a65726f20616464726573736000830152602082019050919050565b6000613a3660208361424f565b91507f4f776e61626c653a2063616c6c6572206973206e6f7420746865206f776e65726000830152602082019050919050565b6000613a76602f8361424f565b91507f4552433732314d657461646174613a2055524920717565727920666f72206e6f60008301527f6e6578697374656e7420746f6b656e00000000000000000000000000000000006020830152604082019050919050565b6000613adc60188361424f565b91507f4552433732313a20696e76616c696420746f6b656e20494400000000000000006000830152602082019050919050565b6000613b1c60218361424f565b91507f4552433732313a20617070726f76616c20746f2063757272656e74206f776e6560008301527f72000000000000000000000000000000000000000000000000000000000000006020830152604082019050919050565b6000613b82603d8361424f565b91507f4552433732313a20617070726f76652063616c6c6572206973206e6f7420746f60008301527f6b656e206f776e6572206f7220617070726f76656420666f7220616c6c0000006020830152604082019050919050565b6000613be8602c8361424f565b91507f455243373231456e756d657261626c653a20676c6f62616c20696e646578206f60008301527f7574206f6620626f756e647300000000000000000000000000000000000000006020830152604082019050919050565b6000613c4e60358361424f565b91507f455243373231456e756d657261626c653a20636f6e736563757469766520747260008301527f616e7366657273206e6f7420737570706f7274656400000000000000000000006020830152604082019050919050565b6000608083016000830151613cbf6000860182613d11565b506020830151613cd26020860182613444565b5060408301518482036040860152613cea828261357d565b91505060608301518482036060860152613d04828261357d565b9150508091505092915050565b613d1a81614309565b82525050565b613d2981614309565b82525050565b6000613d3b82866135ef565b9150613d4782856135ef565b9150613d538284613620565b9150819050949350505050565b6000602082019050613d756000830184613453565b92915050565b6000608082019050613d906000830187613453565b613d9d6020830186613453565b613daa6040830185613d20565b8181036060830152613dbc8184613544565b905095945050505050565b6000604082019050613ddc6000830185613453565b613de96020830184613d20565b9392505050565b60006020820190508181036000830152613e0a8184613462565b905092915050565b60006020820190508181036000830152613e2c81846134d7565b905092915050565b6000602082019050613e496000830184613535565b92915050565b60006020820190508181036000830152613e6981846135b6565b905092915050565b60006020820190508181036000830152613e8a8161369f565b9050919050565b60006020820190508181036000830152613eaa81613705565b9050919050565b60006020820190508181036000830152613eca8161376b565b9050919050565b60006020820190508181036000830152613eea816137d1565b9050919050565b60006020820190508181036000830152613f0a81613837565b9050919050565b60006020820190508181036000830152613f2a8161389d565b9050919050565b60006020820190508181036000830152613f4a816138dd565b9050919050565b60006020820190508181036000830152613f6a81613943565b9050919050565b60006020820190508181036000830152613f8a81613983565b9050919050565b60006020820190508181036000830152613faa816139e9565b9050919050565b60006020820190508181036000830152613fca81613a29565b9050919050565b60006020820190508181036000830152613fea81613a69565b9050919050565b6000602082019050818103600083015261400a81613acf565b9050919050565b6000602082019050818103600083015261402a81613b0f565b9050919050565b6000602082019050818103600083015261404a81613b75565b9050919050565b6000602082019050818103600083015261406a81613bdb565b9050919050565b6000602082019050818103600083015261408a81613c41565b9050919050565b60006020820190506140a66000830184613d20565b92915050565b60006080820190506140c16000830187613d20565b6140ce6020830186613453565b81810360408301526140e081856135b6565b905081810360608301526140f481846135b6565b905095945050505050565b6000604051905081810181811067ffffffffffffffff821117156141265761412561442e565b5b8060405250919050565b600067ffffffffffffffff82111561414b5761414a61442e565b5b601f19601f8301169050602081019050919050565b600067ffffffffffffffff82111561417b5761417a61442e565b5b601f19601f8301169050602081019050919050565b6000819050602082019050919050565b6000819050602082019050919050565b60008190508160005260206000209050919050565b600081519050919050565b600081519050919050565b600081519050919050565b600081519050919050565b6000602082019050919050565b6000602082019050919050565b600082825260208201905092915050565b600082825260208201905092915050565b600082825260208201905092915050565b600082825260208201905092915050565b600082825260208201905092915050565b600081905092915050565b600061427682614309565b915061428183614309565b925082821015614294576142936143d0565b5b828203905092915050565b60006142aa826142e9565b9050919050565b60008115159050919050565b60007fffffffff0000000000000000000000000000000000000000000000000000000082169050919050565b600073ffffffffffffffffffffffffffffffffffffffff82169050919050565b6000819050919050565b82818337600083830152505050565b60005b83811015614340578082015181840152602081019050614325565b8381111561434f576000848401525b50505050565b6000600282049050600182168061436d57607f821691505b60208210811415614381576143806143ff565b5b50919050565b600061439282614309565b91507fffffffffffffffffffffffffffffffffffffffffffffffffffffffffffffffff8214156143c5576143c46143d0565b5b600182019050919050565b7f4e487b7100000000000000000000000000000000000000000000000000000000600052601160045260246000fd5b7f4e487b7100000000000000000000000000000000000000000000000000000000600052602260045260246000fd5b7f4e487b7100000000000000000000000000000000000000000000000000000000600052604160045260246000fd5b6000601f19601f8301169050919050565b6144778161429f565b811461448257600080fd5b50565b61448e816142b1565b811461449957600080fd5b50565b6144a5816142bd565b81146144b057600080fd5b50565b6144bc81614309565b81146144c757600080fd5b5056fea2646970667358221220f6756d157d3628ba2ca37af3b5efcea8a718ada6ffc5bbfd90a948f7f9c6251f64736f6c63430008000033",
  "linkReferences": {},
  "deployedLinkReferences": {}
}