{
  "_format": "hh-sol-artifact-1",
  "contractName": "SimMarketplace",
  "sourceName": "contracts/SimMarketplace.sol",
  "abi": [
    {
      "inputs": [
        {
          "internalType": "contract IERC20",
          "name": "_token",
          "type": "address"
        },
        {
          "internalType": "contract IERC721Enumerable",
          "name": "_nft",
          "type": "address"
        }
      ],
      "stateMutability": "nonpayable",
      "type": "constructor"
    },
    {
      "anonymous": false,
      "inputs": [
        {
          "indexed": true,
          "internalType": "address",
          "name": "_from",
          "type": "address"
        },
        {
          "indexed": false,
          "internalType": "uint256",
          "name": "_tokenId",
          "type": "uint256"
        },
        {
          "indexed": false,
          "internalType": "uint256",
          "name": "_price",
          "type": "uint256"
        }
      ],
      "name": "BuyNFT",
      "type": "event"
    },
    {
      "anonymous": false,
      "inputs": [
        {
          "indexed": true,
          "internalType": "address",
          "name": "_from",
          "type": "address"
        },
        {
          "indexed": false,
          "internalType": "uint256",
          "name": "_tokenId",
          "type": "uint256"
        },
        {
          "indexed": false,
          "internalType": "uint256",
          "name": "_price",
          "type": "uint256"
        }
      ],
      "name": "ListNFT",
      "type": "event"
    },
    {
      "anonymous": false,
      "inputs": [
        {
          "indexed": true,
          "internalType": "address",
          "name": "previousOwner",
          "type": "address"
        },
        {
          "indexed": true,
          "internalType": "address",
          "name": "newOwner",
          "type": "address"
        }
      ],
      "name": "OwnershipTransferred",
      "type": "event"
    },
    {
      "anonymous": false,
      "inputs": [
        {
          "indexed": false,
          "internalType": "contract IERC721Enumerable",
          "name": "_nft",
          "type": "address"
        }
      ],
      "name": "SetNFT",
      "type": "event"
    },
    {
      "anonymous": false,
      "inputs": [
        {
          "indexed": false,
          "internalType": "uint256",
          "name": "_tax",
          "type": "uint256"
        }
      ],
      "name": "SetTax",
      "type": "event"
    },
    {
      "anonymous": false,
      "inputs": [
        {
          "indexed": false,
          "internalType": "contract IERC20",
          "name": "_token",
          "type": "address"
        }
      ],
      "name": "SetToken",
      "type": "event"
    },
    {
      "anonymous": false,
      "inputs": [
        {
          "indexed": true,
          "internalType": "address",
          "name": "_from",
          "type": "address"
        },
        {
          "indexed": false,
          "internalType": "uint256",
          "name": "_tokenId",
          "type": "uint256"
        }
      ],
      "name": "UnlistNFT",
      "type": "event"
    },
    {
      "anonymous": false,
      "inputs": [
        {
          "indexed": false,
          "internalType": "uint256",
          "name": "_tokenId",
          "type": "uint256"
        },
        {
          "indexed": false,
          "internalType": "uint256",
          "name": "_price",
          "type": "uint256"
        }
      ],
      "name": "UpdateListingNFTPrice",
      "type": "event"
    },
    {
      "inputs": [
        {
          "internalType": "uint256",
          "name": "_tokenId",
          "type": "uint256"
        },
        {
          "internalType": "uint256",
          "name": "_price",
          "type": "uint256"
        }
      ],
      "name": "buyNft",
      "outputs": [],
      "stateMutability": "nonpayable",
      "type": "function"
    },
    {
      "inputs": [],
      "name": "getListedNft",
      "outputs": [
        {
          "components": [
            {
              "internalType": "address payable",
              "name": "author",
              "type": "address"
            },
            {
              "internalType": "uint256",
              "name": "price",
              "type": "uint256"
            },
            {
              "internalType": "uint256",
              "name": "tokenId",
              "type": "uint256"
            }
          ],
          "internalType": "struct SimMarketplace.ListDetail[]",
          "name": "",
          "type": "tuple[]"
        }
      ],
      "stateMutability": "view",
      "type": "function"
    },
    {
      "inputs": [
        {
          "internalType": "uint256",
          "name": "_tokenId",
          "type": "uint256"
        },
        {
          "internalType": "uint256",
          "name": "_price",
          "type": "uint256"
        }
      ],
      "name": "listNft",
      "outputs": [],
      "stateMutability": "nonpayable",
      "type": "function"
    },
    {
      "inputs": [
        {
          "internalType": "address",
          "name": "",
          "type": "address"
        },
        {
          "internalType": "address",
          "name": "",
          "type": "address"
        },
        {
          "internalType": "uint256",
          "name": "",
          "type": "uint256"
        },
        {
          "internalType": "bytes",
          "name": "",
          "type": "bytes"
        }
      ],
      "name": "onERC721Received",
      "outputs": [
        {
          "internalType": "bytes4",
          "name": "",
          "type": "bytes4"
        }
      ],
      "stateMutability": "pure",
      "type": "function"
    },
    {
      "inputs": [],
      "name": "owner",
      "outputs": [
        {
          "internalType": "address",
          "name": "",
          "type": "address"
        }
      ],
      "stateMutability": "view",
      "type": "function"
    },
    {
      "inputs": [],
      "name": "renounceOwnership",
      "outputs": [],
      "stateMutability": "nonpayable",
      "type": "function"
    },
    {
      "inputs": [
        {
          "internalType": "contract IERC721Enumerable",
          "name": "_nft",
          "type": "address"
        }
      ],
      "name": "setNft",
      "outputs": [],
      "stateMutability": "nonpayable",
      "type": "function"
    },
    {
      "inputs": [
        {
          "internalType": "uint256",
          "name": "_tax",
          "type": "uint256"
        }
      ],
      "name": "setTax",
      "outputs": [],
      "stateMutability": "nonpayable",
      "type": "function"
    },
    {
      "inputs": [
        {
          "internalType": "contract IERC20",
          "name": "_token",
          "type": "address"
        }
      ],
      "name": "setToken",
      "outputs": [],
      "stateMutability": "nonpayable",
      "type": "function"
    },
    {
      "inputs": [
        {
          "internalType": "address",
          "name": "newOwner",
          "type": "address"
        }
      ],
      "name": "transferOwnership",
      "outputs": [],
      "stateMutability": "nonpayable",
      "type": "function"
    },
    {
      "inputs": [
        {
          "internalType": "uint256",
          "name": "_tokenId",
          "type": "uint256"
        }
      ],
      "name": "unlistNft",
      "outputs": [],
      "stateMutability": "nonpayable",
      "type": "function"
    },
    {
      "inputs": [
        {
          "internalType": "uint256",
          "name": "_tokenId",
          "type": "uint256"
        },
        {
          "internalType": "uint256",
          "name": "_price",
          "type": "uint256"
        }
      ],
      "name": "updateListingNftPrice",
      "outputs": [],
      "stateMutability": "nonpayable",
      "type": "function"
    },
    {
      "inputs": [],
      "name": "withdraw",
      "outputs": [],
      "stateMutability": "nonpayable",
      "type": "function"
    },
    {
      "inputs": [],
      "name": "withdrawErc20",
      "outputs": [],
      "stateMutability": "nonpayable",
      "type": "function"
    },
    {
      "inputs": [
        {
          "internalType": "uint256",
          "name": "amount",
          "type": "uint256"
        }
      ],
      "name": "withdrawToken",
      "outputs": [],
      "stateMutability": "nonpayable",
      "type": "function"
    }
  ],
  "bytecode": "0x6080604052600a6003553480156200001657600080fd5b5060405162002ec738038062002ec783398181016040528101906200003c9190620001e0565b6200005c62000050620000e660201b60201c565b620000ee60201b60201c565b80600160006101000a81548173ffffffffffffffffffffffffffffffffffffffff021916908373ffffffffffffffffffffffffffffffffffffffff16021790555081600260006101000a81548173ffffffffffffffffffffffffffffffffffffffff021916908373ffffffffffffffffffffffffffffffffffffffff1602179055505050620002b1565b600033905090565b60008060009054906101000a900473ffffffffffffffffffffffffffffffffffffffff169050816000806101000a81548173ffffffffffffffffffffffffffffffffffffffff021916908373ffffffffffffffffffffffffffffffffffffffff1602179055508173ffffffffffffffffffffffffffffffffffffffff168173ffffffffffffffffffffffffffffffffffffffff167f8be0079c531659141344cd1fd0a4f28419497f9722a3daafe3b4186f6b6457e060405160405180910390a35050565b600081519050620001c3816200027d565b92915050565b600081519050620001da8162000297565b92915050565b60008060408385031215620001f457600080fd5b60006200020485828601620001b2565b92505060206200021785828601620001c9565b9150509250929050565b60006200022e826200025d565b9050919050565b6000620002428262000221565b9050919050565b6000620002568262000221565b9050919050565b600073ffffffffffffffffffffffffffffffffffffffff82169050919050565b620002888162000235565b81146200029457600080fd5b50565b620002a28162000249565b8114620002ae57600080fd5b50565b612c0680620002c16000396000f3fe608060405234801561001057600080fd5b50600436106100f55760003560e01c8063556f8084116100975780639e75689c116100665780639e75689c14610210578063f2fde38b1461022c578063f3c1338714610248578063fe8723e114610264576100f5565b8063556f8084146101ae578063715018a6146101ca5780637a53fde6146101d45780638da5cb5b146101f2576100f5565b80633ccfd60b116100d35780633ccfd60b146101625780633e3f23591461016c57806350baa622146101765780635164686914610192576100f5565b8063144fa6d7146100fa578063150b7a02146101165780632e5bb6ff14610146575b600080fd5b610114600480360381019061010f9190611e62565b610280565b005b610130600480360381019061012b9190611db9565b610303565b60405161013d91906125e9565b60405180910390f35b610160600480360381019061015b9190611eb4565b610331565b005b61016a61037a565b005b6101746103cb565b005b610190600480360381019061018b9190611eb4565b61052f565b005b6101ac60048036038101906101a79190611f06565b6106d7565b005b6101c860048036038101906101c39190611f06565b6108eb565b005b6101d2610d67565b005b6101dc610d7b565b6040516101e991906125c7565b60405180910390f35b6101fa611049565b6040516102079190612523565b60405180910390f35b61022a60048036038101906102259190611eb4565b611072565b005b61024660048036038101906102419190611d67565b611310565b005b610262600480360381019061025d9190611e8b565b611394565b005b61027e60048036038101906102799190611f06565b611417565b005b6102886117ce565b80600260006101000a81548173ffffffffffffffffffffffffffffffffffffffff021916908373ffffffffffffffffffffffffffffffffffffffff1602179055507fefc1fd16ea80a922086ee4e995739d59b025c1bcea6d1f67855747480c83214b816040516102f89190612604565b60405180910390a150565b60007f150b7a023d4804d13e8c85fb27262cb750cf6ba9f9dd3bb30d90f482ceeb4b1f905095945050505050565b6103396117ce565b806003819055507f9fa979502e438dac613eeda5e69bdaf59a326dc09969a480e1e19078b24e15d18160405161036f91906127dc565b60405180910390a150565b6103826117ce565b3373ffffffffffffffffffffffffffffffffffffffff166108fc479081150290604051600060405180830381858888f193505050501580156103c8573d6000803e3d6000fd5b50565b6103d36117ce565b600260009054906101000a900473ffffffffffffffffffffffffffffffffffffffff1673ffffffffffffffffffffffffffffffffffffffff1663a9059cbb33600260009054906101000a900473ffffffffffffffffffffffffffffffffffffffff1673ffffffffffffffffffffffffffffffffffffffff166370a08231306040518263ffffffff1660e01b815260040161046d9190612523565b60206040518083038186803b15801561048557600080fd5b505afa158015610499573d6000803e3d6000fd5b505050506040513d601f19601f820116820180604052508101906104bd9190611edd565b6040518363ffffffff1660e01b81526004016104da92919061259e565b602060405180830381600087803b1580156104f457600080fd5b505af1158015610508573d6000803e3d6000fd5b505050506040513d601f19601f8201168201806040525081019061052c9190611e39565b50565b6105376117ce565b80600260009054906101000a900473ffffffffffffffffffffffffffffffffffffffff1673ffffffffffffffffffffffffffffffffffffffff166370a08231306040518263ffffffff1660e01b81526004016105939190612523565b60206040518083038186803b1580156105ab57600080fd5b505afa1580156105bf573d6000803e3d6000fd5b505050506040513d601f19601f820116820180604052508101906105e39190611edd565b1015610624576040517f08c379a000000000000000000000000000000000000000000000000000000000815260040161061b906126fc565b60405180910390fd5b600260009054906101000a900473ffffffffffffffffffffffffffffffffffffffff1673ffffffffffffffffffffffffffffffffffffffff1663a9059cbb33836040518363ffffffff1660e01b815260040161068192919061259e565b602060405180830381600087803b15801561069b57600080fd5b505af11580156106af573d6000803e3d6000fd5b505050506040513d601f19601f820116820180604052508101906106d39190611e39565b5050565b3073ffffffffffffffffffffffffffffffffffffffff16600160009054906101000a900473ffffffffffffffffffffffffffffffffffffffff1673ffffffffffffffffffffffffffffffffffffffff16636352211e846040518263ffffffff1660e01b815260040161074991906127dc565b60206040518083038186803b15801561076157600080fd5b505afa158015610775573d6000803e3d6000fd5b505050506040513d601f19601f820116820180604052508101906107999190611d90565b73ffffffffffffffffffffffffffffffffffffffff16146107ef576040517f08c379a00000000000000000000000000000000000000000000000000000000081526004016107e69061271c565b60405180910390fd5b3373ffffffffffffffffffffffffffffffffffffffff166004600084815260200190815260200160002060000160009054906101000a900473ffffffffffffffffffffffffffffffffffffffff1673ffffffffffffffffffffffffffffffffffffffff1614610893576040517f08c379a000000000000000000000000000000000000000000000000000000000815260040161088a9061273c565b60405180910390fd5b8060046000848152602001908152602001600020600101819055507fc7113691cf96332a4c71d0e3d8fc13f177dc22111131519552cd24a04fde1e5c82826040516108df9291906127f7565b60405180910390a15050565b80600260009054906101000a900473ffffffffffffffffffffffffffffffffffffffff1673ffffffffffffffffffffffffffffffffffffffff166370a08231336040518263ffffffff1660e01b81526004016109479190612523565b60206040518083038186803b15801561095f57600080fd5b505afa158015610973573d6000803e3d6000fd5b505050506040513d601f19601f820116820180604052508101906109979190611edd565b10156109d8576040517f08c379a00000000000000000000000000000000000000000000000000000000081526004016109cf906126fc565b60405180910390fd5b3073ffffffffffffffffffffffffffffffffffffffff16600160009054906101000a900473ffffffffffffffffffffffffffffffffffffffff1673ffffffffffffffffffffffffffffffffffffffff16636352211e846040518263ffffffff1660e01b8152600401610a4a91906127dc565b60206040518083038186803b158015610a6257600080fd5b505afa158015610a76573d6000803e3d6000fd5b505050506040513d601f19601f82011682018060405250810190610a9a9190611d90565b73ffffffffffffffffffffffffffffffffffffffff1614610af0576040517f08c379a0000000000000000000000000000000000000000000000000000000008152600401610ae79061271c565b60405180910390fd5b8060046000848152602001908152602001600020600101541115610b49576040517f08c379a0000000000000000000000000000000000000000000000000000000008152600401610b40906126bc565b60405180910390fd5b610b77600260009054906101000a900473ffffffffffffffffffffffffffffffffffffffff1633308461184c565b600260009054906101000a900473ffffffffffffffffffffffffffffffffffffffff1673ffffffffffffffffffffffffffffffffffffffff1663a9059cbb6004600085815260200190815260200160002060000160009054906101000a900473ffffffffffffffffffffffffffffffffffffffff1660646003546064610bfd9190612916565b85610c0891906128bc565b610c12919061288b565b6040518363ffffffff1660e01b8152600401610c2f92919061253e565b602060405180830381600087803b158015610c4957600080fd5b505af1158015610c5d573d6000803e3d6000fd5b505050506040513d601f19601f82011682018060405250810190610c819190611e39565b50600160009054906101000a900473ffffffffffffffffffffffffffffffffffffffff1673ffffffffffffffffffffffffffffffffffffffff166342842e0e3033856040518463ffffffff1660e01b8152600401610ce193929190612567565b600060405180830381600087803b158015610cfb57600080fd5b505af1158015610d0f573d6000803e3d6000fd5b505050503373ffffffffffffffffffffffffffffffffffffffff167f5d963241241cfe9e161d13500d628058954b3febfde03e4b1f4071370e72fe2b8383604051610d5b9291906127f7565b60405180910390a25050565b610d6f6117ce565b610d7960006118d5565b565b60606000600160009054906101000a900473ffffffffffffffffffffffffffffffffffffffff1673ffffffffffffffffffffffffffffffffffffffff166370a08231306040518263ffffffff1660e01b8152600401610dda9190612523565b60206040518083038186803b158015610df257600080fd5b505afa158015610e06573d6000803e3d6000fd5b505050506040513d601f19601f82011682018060405250810190610e2a9190611edd565b905060008167ffffffffffffffff811115610e6e577f4e487b7100000000000000000000000000000000000000000000000000000000600052604160045260246000fd5b604051908082528060200260200182016040528015610ea757816020015b610e94611c53565b815260200190600190039081610e8c5790505b50905060005b828110156110405760046000600160009054906101000a900473ffffffffffffffffffffffffffffffffffffffff1673ffffffffffffffffffffffffffffffffffffffff16632f745c5930856040518363ffffffff1660e01b8152600401610f1692919061259e565b60206040518083038186803b158015610f2e57600080fd5b505afa158015610f42573d6000803e3d6000fd5b505050506040513d601f19601f82011682018060405250810190610f669190611edd565b81526020019081526020016000206040518060600160405290816000820160009054906101000a900473ffffffffffffffffffffffffffffffffffffffff1673ffffffffffffffffffffffffffffffffffffffff1673ffffffffffffffffffffffffffffffffffffffff16815260200160018201548152602001600282015481525050828281518110611022577f4e487b7100000000000000000000000000000000000000000000000000000000600052603260045260246000fd5b6020026020010181905250808061103890612aa5565b915050610ead565b50809250505090565b60008060009054906101000a900473ffffffffffffffffffffffffffffffffffffffff16905090565b3073ffffffffffffffffffffffffffffffffffffffff16600160009054906101000a900473ffffffffffffffffffffffffffffffffffffffff1673ffffffffffffffffffffffffffffffffffffffff16636352211e836040518263ffffffff1660e01b81526004016110e491906127dc565b60206040518083038186803b1580156110fc57600080fd5b505afa158015611110573d6000803e3d6000fd5b505050506040513d601f19601f820116820180604052508101906111349190611d90565b73ffffffffffffffffffffffffffffffffffffffff161461118a576040517f08c379a00000000000000000000000000000000000000000000000000000000081526004016111819061271c565b60405180910390fd5b3373ffffffffffffffffffffffffffffffffffffffff166004600083815260200190815260200160002060000160009054906101000a900473ffffffffffffffffffffffffffffffffffffffff1673ffffffffffffffffffffffffffffffffffffffff161461122e576040517f08c379a00000000000000000000000000000000000000000000000000000000081526004016112259061265c565b60405180910390fd5b600160009054906101000a900473ffffffffffffffffffffffffffffffffffffffff1673ffffffffffffffffffffffffffffffffffffffff166342842e0e3033846040518463ffffffff1660e01b815260040161128d93929190612567565b600060405180830381600087803b1580156112a757600080fd5b505af11580156112bb573d6000803e3d6000fd5b505050503373ffffffffffffffffffffffffffffffffffffffff167f995270fd4f93cea033cdf0da430f296d82414eb9a7d99b6b391bb3e8a1ee9fc28260405161130591906127dc565b60405180910390a250565b6113186117ce565b600073ffffffffffffffffffffffffffffffffffffffff168173ffffffffffffffffffffffffffffffffffffffff161415611388576040517f08c379a000000000000000000000000000000000000000000000000000000000815260040161137f9061269c565b60405180910390fd5b611391816118d5565b50565b61139c6117ce565b80600160006101000a81548173ffffffffffffffffffffffffffffffffffffffff021916908373ffffffffffffffffffffffffffffffffffffffff1602179055507ff8525b9383ba5cc1b196c9a879bcbe7911913876aaff159ec424e1bb6136fff28160405161140c919061261f565b60405180910390a150565b3373ffffffffffffffffffffffffffffffffffffffff16600160009054906101000a900473ffffffffffffffffffffffffffffffffffffffff1673ffffffffffffffffffffffffffffffffffffffff16636352211e846040518263ffffffff1660e01b815260040161148991906127dc565b60206040518083038186803b1580156114a157600080fd5b505afa1580156114b5573d6000803e3d6000fd5b505050506040513d601f19601f820116820180604052508101906114d99190611d90565b73ffffffffffffffffffffffffffffffffffffffff161461152f576040517f08c379a00000000000000000000000000000000000000000000000000000000081526004016115269061277c565b60405180910390fd5b3073ffffffffffffffffffffffffffffffffffffffff16600160009054906101000a900473ffffffffffffffffffffffffffffffffffffffff1673ffffffffffffffffffffffffffffffffffffffff1663081812fc846040518263ffffffff1660e01b81526004016115a191906127dc565b60206040518083038186803b1580156115b957600080fd5b505afa1580156115cd573d6000803e3d6000fd5b505050506040513d601f19601f820116820180604052508101906115f19190611d90565b73ffffffffffffffffffffffffffffffffffffffff1614611647576040517f08c379a000000000000000000000000000000000000000000000000000000000815260040161163e9061267c565b60405180910390fd5b60405180606001604052803373ffffffffffffffffffffffffffffffffffffffff168152602001828152602001838152506004600084815260200190815260200160002060008201518160000160006101000a81548173ffffffffffffffffffffffffffffffffffffffff021916908373ffffffffffffffffffffffffffffffffffffffff1602179055506020820151816001015560408201518160020155905050600160009054906101000a900473ffffffffffffffffffffffffffffffffffffffff1673ffffffffffffffffffffffffffffffffffffffff166342842e0e3330856040518463ffffffff1660e01b815260040161174893929190612567565b600060405180830381600087803b15801561176257600080fd5b505af1158015611776573d6000803e3d6000fd5b505050503373ffffffffffffffffffffffffffffffffffffffff167f6cd52e2afd4c9fdb90f6226975fb688c697f05f2c4306f5bff7ea8cd941ed7ce83836040516117c29291906127f7565b60405180910390a25050565b6117d6611999565b73ffffffffffffffffffffffffffffffffffffffff166117f4611049565b73ffffffffffffffffffffffffffffffffffffffff161461184a576040517f08c379a00000000000000000000000000000000000000000000000000000000081526004016118419061275c565b60405180910390fd5b565b6118cf846323b872dd60e01b85858560405160240161186d93929190612567565b604051602081830303815290604052907bffffffffffffffffffffffffffffffffffffffffffffffffffffffff19166020820180517bffffffffffffffffffffffffffffffffffffffffffffffffffffffff83818316178352505050506119a1565b50505050565b60008060009054906101000a900473ffffffffffffffffffffffffffffffffffffffff169050816000806101000a81548173ffffffffffffffffffffffffffffffffffffffff021916908373ffffffffffffffffffffffffffffffffffffffff1602179055508173ffffffffffffffffffffffffffffffffffffffff168173ffffffffffffffffffffffffffffffffffffffff167f8be0079c531659141344cd1fd0a4f28419497f9722a3daafe3b4186f6b6457e060405160405180910390a35050565b600033905090565b6000611a03826040518060400160405280602081526020017f5361666545524332303a206c6f772d6c6576656c2063616c6c206661696c65648152508573ffffffffffffffffffffffffffffffffffffffff16611a699092919063ffffffff16565b9050600081511480611a25575080806020019051810190611a249190611e39565b5b611a64576040517f08c379a0000000000000000000000000000000000000000000000000000000008152600401611a5b906127bc565b60405180910390fd5b505050565b6060611a788484600085611a81565b90509392505050565b606082471015611ac6576040517f08c379a0000000000000000000000000000000000000000000000000000000008152600401611abd906126dc565b60405180910390fd5b6000808673ffffffffffffffffffffffffffffffffffffffff168587604051611aef919061250c565b60006040518083038185875af1925050503d8060008114611b2c576040519150601f19603f3d011682016040523d82523d6000602084013e611b31565b606091505b5091509150611b4287838387611b4e565b92505050949350505050565b60608315611bb157600083511415611ba957611b6985611bc4565b611ba8576040517f08c379a0000000000000000000000000000000000000000000000000000000008152600401611b9f9061279c565b60405180910390fd5b5b829050611bbc565b611bbb8383611c03565b5b949350505050565b6000808273ffffffffffffffffffffffffffffffffffffffff16803b806020016040519081016040528181526000908060200190933c51119050919050565b600082511115611c165781518083602001fd5b806040517f08c379a0000000000000000000000000000000000000000000000000000000008152600401611c4a919061263a565b60405180910390fd5b6040518060600160405280600073ffffffffffffffffffffffffffffffffffffffff16815260200160008152602001600081525090565b600081359050611c9981612b5d565b92915050565b600081519050611cae81612b5d565b92915050565b600081519050611cc381612b74565b92915050565b60008083601f840112611cdb57600080fd5b8235905067ffffffffffffffff811115611cf457600080fd5b602083019150836001820283011115611d0c57600080fd5b9250929050565b600081359050611d2281612b8b565b92915050565b600081359050611d3781612ba2565b92915050565b600081359050611d4c81612bb9565b92915050565b600081519050611d6181612bb9565b92915050565b600060208284031215611d7957600080fd5b6000611d8784828501611c8a565b91505092915050565b600060208284031215611da257600080fd5b6000611db084828501611c9f565b91505092915050565b600080600080600060808688031215611dd157600080fd5b6000611ddf88828901611c8a565b9550506020611df088828901611c8a565b9450506040611e0188828901611d3d565b935050606086013567ffffffffffffffff811115611e1e57600080fd5b611e2a88828901611cc9565b92509250509295509295909350565b600060208284031215611e4b57600080fd5b6000611e5984828501611cb4565b91505092915050565b600060208284031215611e7457600080fd5b6000611e8284828501611d13565b91505092915050565b600060208284031215611e9d57600080fd5b6000611eab84828501611d28565b91505092915050565b600060208284031215611ec657600080fd5b6000611ed484828501611d3d565b91505092915050565b600060208284031215611eef57600080fd5b6000611efd84828501611d52565b91505092915050565b60008060408385031215611f1957600080fd5b6000611f2785828601611d3d565b9250506020611f3885828601611d3d565b9150509250929050565b6000611f4e83836124ac565b60608301905092915050565b611f63816129f4565b82525050565b611f728161295c565b82525050565b611f818161294a565b82525050565b6000611f9282612830565b611f9c818561285e565b9350611fa783612820565b8060005b83811015611fd8578151611fbf8882611f42565b9750611fca83612851565b925050600181019050611fab565b5085935050505092915050565b611fee8161297a565b82525050565b6000611fff8261283b565b612009818561286f565b9350612019818560208601612a72565b80840191505092915050565b61202e81612a06565b82525050565b61203d81612a2a565b82525050565b600061204e82612846565b612058818561287a565b9350612068818560208601612a72565b61207181612b4c565b840191505092915050565b6000612089601e8361287a565b91507f4f6e6c79206f776e65722063616e20756e6c6973742074686973204e465400006000830152602082019050919050565b60006120c960308361287a565b91507f4d61726b6574706c616365206973206e6f7420617070726f76656420746f207460008301527f72616e736665722074686973204e4654000000000000000000000000000000006020830152604082019050919050565b600061212f60268361287a565b91507f4f776e61626c653a206e6577206f776e657220697320746865207a65726f206160008301527f64647265737300000000000000000000000000000000000000000000000000006020830152604082019050919050565b600061219560228361287a565b91507f4d696e696d756d20707269636520686173206e6f74206265656e20726561636860008301527f65640000000000000000000000000000000000000000000000000000000000006020830152604082019050919050565b60006121fb60268361287a565b91507f416464726573733a20696e73756666696369656e742062616c616e636520666f60008301527f722063616c6c00000000000000000000000000000000000000000000000000006020830152604082019050919050565b6000612261601c8361287a565b91507f496e73756666696369656e74206163636f756e742062616c616e6365000000006000830152602082019050919050565b60006122a160258361287a565b91507f54686973204e465420646f65736e2774206578697374206f6e206d61726b657460008301527f706c6163650000000000000000000000000000000000000000000000000000006020830152604082019050919050565b600061230760278361287a565b91507f4f6e6c79206f776e65722063616e20757064617465207072696365206f66207460008301527f686973204e4654000000000000000000000000000000000000000000000000006020830152604082019050919050565b600061236d60208361287a565b91507f4f776e61626c653a2063616c6c6572206973206e6f7420746865206f776e65726000830152602082019050919050565b60006123ad60218361287a565b91507f596f7520617265206e6f7420746865206f776e6572206f662074686973204e4660008301527f54000000000000000000000000000000000000000000000000000000000000006020830152604082019050919050565b6000612413601d8361287a565b91507f416464726573733a2063616c6c20746f206e6f6e2d636f6e74726163740000006000830152602082019050919050565b6000612453602a8361287a565b91507f5361666545524332303a204552433230206f7065726174696f6e20646964206e60008301527f6f742073756363656564000000000000000000000000000000000000000000006020830152604082019050919050565b6060820160008201516124c26000850182611f69565b5060208201516124d560208501826124ee565b5060408201516124e860408501826124ee565b50505050565b6124f7816129ea565b82525050565b612506816129ea565b82525050565b60006125188284611ff4565b915081905092915050565b60006020820190506125386000830184611f78565b92915050565b60006040820190506125536000830185611f5a565b61256060208301846124fd565b9392505050565b600060608201905061257c6000830186611f78565b6125896020830185611f78565b61259660408301846124fd565b949350505050565b60006040820190506125b36000830185611f78565b6125c060208301846124fd565b9392505050565b600060208201905081810360008301526125e18184611f87565b905092915050565b60006020820190506125fe6000830184611fe5565b92915050565b60006020820190506126196000830184612025565b92915050565b60006020820190506126346000830184612034565b92915050565b600060208201905081810360008301526126548184612043565b905092915050565b600060208201905081810360008301526126758161207c565b9050919050565b60006020820190508181036000830152612695816120bc565b9050919050565b600060208201905081810360008301526126b581612122565b9050919050565b600060208201905081810360008301526126d581612188565b9050919050565b600060208201905081810360008301526126f5816121ee565b9050919050565b6000602082019050818103600083015261271581612254565b9050919050565b6000602082019050818103600083015261273581612294565b9050919050565b60006020820190508181036000830152612755816122fa565b9050919050565b6000602082019050818103600083015261277581612360565b9050919050565b60006020820190508181036000830152612795816123a0565b9050919050565b600060208201905081810360008301526127b581612406565b9050919050565b600060208201905081810360008301526127d581612446565b9050919050565b60006020820190506127f160008301846124fd565b92915050565b600060408201905061280c60008301856124fd565b61281960208301846124fd565b9392505050565b6000819050602082019050919050565b600081519050919050565b600081519050919050565b600081519050919050565b6000602082019050919050565b600082825260208201905092915050565b600081905092915050565b600082825260208201905092915050565b6000612896826129ea565b91506128a1836129ea565b9250826128b1576128b0612b1d565b5b828204905092915050565b60006128c7826129ea565b91506128d2836129ea565b9250817fffffffffffffffffffffffffffffffffffffffffffffffffffffffffffffffff048311821515161561290b5761290a612aee565b5b828202905092915050565b6000612921826129ea565b915061292c836129ea565b92508282101561293f5761293e612aee565b5b828203905092915050565b6000612955826129ca565b9050919050565b6000612967826129ca565b9050919050565b60008115159050919050565b60007fffffffff0000000000000000000000000000000000000000000000000000000082169050919050565b60006129b18261294a565b9050919050565b60006129c38261294a565b9050919050565b600073ffffffffffffffffffffffffffffffffffffffff82169050919050565b6000819050919050565b60006129ff82612a4e565b9050919050565b6000612a1182612a18565b9050919050565b6000612a23826129ca565b9050919050565b6000612a3582612a3c565b9050919050565b6000612a47826129ca565b9050919050565b6000612a5982612a60565b9050919050565b6000612a6b826129ca565b9050919050565b60005b83811015612a90578082015181840152602081019050612a75565b83811115612a9f576000848401525b50505050565b6000612ab0826129ea565b91507fffffffffffffffffffffffffffffffffffffffffffffffffffffffffffffffff821415612ae357612ae2612aee565b5b600182019050919050565b7f4e487b7100000000000000000000000000000000000000000000000000000000600052601160045260246000fd5b7f4e487b7100000000000000000000000000000000000000000000000000000000600052601260045260246000fd5b6000601f19601f8301169050919050565b612b668161294a565b8114612b7157600080fd5b50565b612b7d8161296e565b8114612b8857600080fd5b50565b612b94816129a6565b8114612b9f57600080fd5b50565b612bab816129b8565b8114612bb657600080fd5b50565b612bc2816129ea565b8114612bcd57600080fd5b5056fea2646970667358221220bb2a63b317b1792113e13e0e2e7cd8f3a5e26d41b7996c6f16a665830dbaf16764736f6c63430008000033",
  "linkReferences": {},
  "deployedLinkReferences": {}
}