{
  "_format": "hh-sol-artifact-1",
  "contractName": "Vault",
  "sourceName": "contracts/Vault.sol",
  "abi": [
    {
      "inputs": [],
      "stateMutability": "nonpayable",
      "type": "constructor"
    },
    {
      "anonymous": false,
      "inputs": [
        {
          "indexed": true,
          "internalType": "address",
          "name": "previousOwner",
          "type": "address"
        },
        {
          "indexed": true,
          "internalType": "address",
          "name": "newOwner",
          "type": "address"
        }
      ],
      "name": "OwnershipTransferred",
      "type": "event"
    },
    {
      "anonymous": false,
      "inputs": [
        {
          "indexed": true,
          "internalType": "bytes32",
          "name": "role",
          "type": "bytes32"
        },
        {
          "indexed": true,
          "internalType": "bytes32",
          "name": "previousAdminRole",
          "type": "bytes32"
        },
        {
          "indexed": true,
          "internalType": "bytes32",
          "name": "newAdminRole",
          "type": "bytes32"
        }
      ],
      "name": "RoleAdminChanged",
      "type": "event"
    },
    {
      "anonymous": false,
      "inputs": [
        {
          "indexed": true,
          "internalType": "bytes32",
          "name": "role",
          "type": "bytes32"
        },
        {
          "indexed": true,
          "internalType": "address",
          "name": "account",
          "type": "address"
        },
        {
          "indexed": true,
          "internalType": "address",
          "name": "sender",
          "type": "address"
        }
      ],
      "name": "RoleGranted",
      "type": "event"
    },
    {
      "anonymous": false,
      "inputs": [
        {
          "indexed": true,
          "internalType": "bytes32",
          "name": "role",
          "type": "bytes32"
        },
        {
          "indexed": true,
          "internalType": "address",
          "name": "account",
          "type": "address"
        },
        {
          "indexed": true,
          "internalType": "address",
          "name": "sender",
          "type": "address"
        }
      ],
      "name": "RoleRevoked",
      "type": "event"
    },
    {
      "inputs": [],
      "name": "DEFAULT_ADMIN_ROLE",
      "outputs": [
        {
          "internalType": "bytes32",
          "name": "",
          "type": "bytes32"
        }
      ],
      "stateMutability": "view",
      "type": "function"
    },
    {
      "inputs": [],
      "name": "WITHDRAWER_ROLE",
      "outputs": [
        {
          "internalType": "bytes32",
          "name": "",
          "type": "bytes32"
        }
      ],
      "stateMutability": "view",
      "type": "function"
    },
    {
      "inputs": [
        {
          "internalType": "uint256",
          "name": "_amount",
          "type": "uint256"
        }
      ],
      "name": "deposit",
      "outputs": [],
      "stateMutability": "nonpayable",
      "type": "function"
    },
    {
      "inputs": [
        {
          "internalType": "bytes32",
          "name": "role",
          "type": "bytes32"
        }
      ],
      "name": "getRoleAdmin",
      "outputs": [
        {
          "internalType": "bytes32",
          "name": "",
          "type": "bytes32"
        }
      ],
      "stateMutability": "view",
      "type": "function"
    },
    {
      "inputs": [
        {
          "internalType": "bytes32",
          "name": "role",
          "type": "bytes32"
        },
        {
          "internalType": "uint256",
          "name": "index",
          "type": "uint256"
        }
      ],
      "name": "getRoleMember",
      "outputs": [
        {
          "internalType": "address",
          "name": "",
          "type": "address"
        }
      ],
      "stateMutability": "view",
      "type": "function"
    },
    {
      "inputs": [
        {
          "internalType": "bytes32",
          "name": "role",
          "type": "bytes32"
        }
      ],
      "name": "getRoleMemberCount",
      "outputs": [
        {
          "internalType": "uint256",
          "name": "",
          "type": "uint256"
        }
      ],
      "stateMutability": "view",
      "type": "function"
    },
    {
      "inputs": [
        {
          "internalType": "bytes32",
          "name": "role",
          "type": "bytes32"
        },
        {
          "internalType": "address",
          "name": "account",
          "type": "address"
        }
      ],
      "name": "grantRole",
      "outputs": [],
      "stateMutability": "nonpayable",
      "type": "function"
    },
    {
      "inputs": [
        {
          "internalType": "bytes32",
          "name": "role",
          "type": "bytes32"
        },
        {
          "internalType": "address",
          "name": "account",
          "type": "address"
        }
      ],
      "name": "hasRole",
      "outputs": [
        {
          "internalType": "bool",
          "name": "",
          "type": "bool"
        }
      ],
      "stateMutability": "view",
      "type": "function"
    },
    {
      "inputs": [],
      "name": "maxWithdrawAmount",
      "outputs": [
        {
          "internalType": "uint256",
          "name": "",
          "type": "uint256"
        }
      ],
      "stateMutability": "view",
      "type": "function"
    },
    {
      "inputs": [],
      "name": "owner",
      "outputs": [
        {
          "internalType": "address",
          "name": "",
          "type": "address"
        }
      ],
      "stateMutability": "view",
      "type": "function"
    },
    {
      "inputs": [],
      "name": "renounceOwnership",
      "outputs": [],
      "stateMutability": "nonpayable",
      "type": "function"
    },
    {
      "inputs": [
        {
          "internalType": "bytes32",
          "name": "role",
          "type": "bytes32"
        },
        {
          "internalType": "address",
          "name": "account",
          "type": "address"
        }
      ],
      "name": "renounceRole",
      "outputs": [],
      "stateMutability": "nonpayable",
      "type": "function"
    },
    {
      "inputs": [
        {
          "internalType": "bytes32",
          "name": "role",
          "type": "bytes32"
        },
        {
          "internalType": "address",
          "name": "account",
          "type": "address"
        }
      ],
      "name": "revokeRole",
      "outputs": [],
      "stateMutability": "nonpayable",
      "type": "function"
    },
    {
      "inputs": [
        {
          "internalType": "uint256",
          "name": "_maxAmount",
          "type": "uint256"
        }
      ],
      "name": "setMaxWithdrawAmount",
      "outputs": [],
      "stateMutability": "nonpayable",
      "type": "function"
    },
    {
      "inputs": [
        {
          "internalType": "contract IERC20",
          "name": "_token",
          "type": "address"
        }
      ],
      "name": "setToken",
      "outputs": [],
      "stateMutability": "nonpayable",
      "type": "function"
    },
    {
      "inputs": [
        {
          "internalType": "bool",
          "name": "_isEnable",
          "type": "bool"
        }
      ],
      "name": "setWithdrawEnable",
      "outputs": [],
      "stateMutability": "nonpayable",
      "type": "function"
    },
    {
      "inputs": [
        {
          "internalType": "bytes4",
          "name": "interfaceId",
          "type": "bytes4"
        }
      ],
      "name": "supportsInterface",
      "outputs": [
        {
          "internalType": "bool",
          "name": "",
          "type": "bool"
        }
      ],
      "stateMutability": "view",
      "type": "function"
    },
    {
      "inputs": [
        {
          "internalType": "address",
          "name": "newOwner",
          "type": "address"
        }
      ],
      "name": "transferOwnership",
      "outputs": [],
      "stateMutability": "nonpayable",
      "type": "function"
    },
    {
      "inputs": [
        {
          "internalType": "uint256",
          "name": "_amount",
          "type": "uint256"
        },
        {
          "internalType": "address",
          "name": "_to",
          "type": "address"
        }
      ],
      "name": "withdraw",
      "outputs": [],
      "stateMutability": "nonpayable",
      "type": "function"
    },
    {
      "inputs": [],
      "name": "withdrawEnable",
      "outputs": [
        {
          "internalType": "bool",
          "name": "",
          "type": "bool"
        }
      ],
      "stateMutability": "view",
      "type": "function"
    }
  ],
  "bytecode": "0x60806040523480156200001157600080fd5b5062000032620000266200005c60201b60201c565b6200006460201b60201c565b620000566000801b6200004a6200005c60201b60201c565b6200012860201b60201c565b620003b7565b600033905090565b60008060009054906101000a900473ffffffffffffffffffffffffffffffffffffffff169050816000806101000a81548173ffffffffffffffffffffffffffffffffffffffff021916908373ffffffffffffffffffffffffffffffffffffffff1602179055508173ffffffffffffffffffffffffffffffffffffffff168173ffffffffffffffffffffffffffffffffffffffff167f8be0079c531659141344cd1fd0a4f28419497f9722a3daafe3b4186f6b6457e060405160405180910390a35050565b6200013a82826200013e60201b60201c565b5050565b6200015582826200018660201b62000a7b1760201c565b6200018181600260008581526020019081526020016000206200027760201b62000b5b1790919060201c565b505050565b620001988282620002af60201b60201c565b6200027357600180600084815260200190815260200160002060000160008373ffffffffffffffffffffffffffffffffffffffff1673ffffffffffffffffffffffffffffffffffffffff16815260200190815260200160002060006101000a81548160ff021916908315150217905550620002186200005c60201b60201c565b73ffffffffffffffffffffffffffffffffffffffff168173ffffffffffffffffffffffffffffffffffffffff16837f2f8788117e7eff1d82e926ec794901d17c78024a50270940304540a733656f0d60405160405180910390a45b5050565b6000620002a7836000018373ffffffffffffffffffffffffffffffffffffffff1660001b6200031a60201b60201c565b905092915050565b60006001600084815260200190815260200160002060000160008373ffffffffffffffffffffffffffffffffffffffff1673ffffffffffffffffffffffffffffffffffffffff16815260200190815260200160002060009054906101000a900460ff16905092915050565b60006200032e83836200039460201b60201c565b620003895782600001829080600181540180825580915050600190039060005260206000200160009091909190915055826000018054905083600101600084815260200190815260200160002081905550600190506200038e565b600090505b92915050565b600080836001016000848152602001908152602001600020541415905092915050565b6125d880620003c76000396000f3fe608060405234801561001057600080fd5b506004361061012b5760003560e01c80639010d07c116100ad578063ca15c87311610071578063ca15c8731461031a578063d547741f1461034a578063df74e02814610366578063f2fde38b14610382578063f516440c1461039e5761012b565b80639010d07c1461026257806391d1485414610292578063a217fddf146102c2578063b5b68afe146102e0578063b6b55f25146102fe5761012b565b806336568abe116100f457806336568abe146101e4578063715018a614610200578063827a560b1461020a57806385f438c1146102265780638da5cb5b146102445761012b565b8062f714ce1461013057806301ffc9a71461014c578063144fa6d71461017c578063248a9ca3146101985780632f2ff15d146101c8575b600080fd5b61014a60048036038101906101459190611b40565b6103bc565b005b61016660048036038101906101619190611a9c565b6105b8565b60405161017391906120f7565b60405180910390f35b61019660048036038101906101919190611ac5565b610632565b005b6101b260048036038101906101ad91906119fb565b61067e565b6040516101bf9190612112565b60405180910390f35b6101e260048036038101906101dd9190611a24565b61069e565b005b6101fe60048036038101906101f99190611a24565b6106bf565b005b610208610742565b005b610224600480360381019061021f91906119a9565b610756565b005b61022e61077b565b60405161023b9190612112565b60405180910390f35b61024c61079f565b604051610259919061207c565b60405180910390f35b61027c60048036038101906102779190611a60565b6107c8565b604051610289919061207c565b60405180910390f35b6102ac60048036038101906102a79190611a24565b6107f7565b6040516102b991906120f7565b60405180910390f35b6102ca610862565b6040516102d79190612112565b60405180910390f35b6102e8610869565b6040516102f591906120f7565b60405180910390f35b61031860048036038101906103139190611aee565b61087c565b005b610334600480360381019061032f91906119fb565b61099a565b60405161034191906122af565b60405180910390f35b610364600480360381019061035f9190611a24565b6109be565b005b610380600480360381019061037b9190611aee565b6109df565b005b61039c60048036038101906103979190611980565b6109f1565b005b6103a6610a75565b6040516103b391906122af565b60405180910390f35b6103c4610b8b565b73ffffffffffffffffffffffffffffffffffffffff166103e261079f565b73ffffffffffffffffffffffffffffffffffffffff16148061043157506104307f10dac8c06a04bec0b551627dad28bc00d6516b0caacd1c7b345fcdb5211334e461042b610b8b565b6107f7565b5b610470576040517f08c379a00000000000000000000000000000000000000000000000000000000081526004016104679061220f565b60405180910390fd5b600560009054906101000a900460ff166104bf576040517f08c379a00000000000000000000000000000000000000000000000000000000081526004016104b69061222f565b60405180910390fd5b600454821115610504576040517f08c379a00000000000000000000000000000000000000000000000000000000081526004016104fb9061214f565b60405180910390fd5b600360009054906101000a900473ffffffffffffffffffffffffffffffffffffffff1673ffffffffffffffffffffffffffffffffffffffff1663a9059cbb82846040518363ffffffff1660e01b81526004016105619291906120ce565b602060405180830381600087803b15801561057b57600080fd5b505af115801561058f573d6000803e3d6000fd5b505050506040513d601f19601f820116820180604052508101906105b391906119d2565b505050565b60007f5a05180f000000000000000000000000000000000000000000000000000000007bffffffffffffffffffffffffffffffffffffffffffffffffffffffff1916827bffffffffffffffffffffffffffffffffffffffffffffffffffffffff1916148061062b575061062a82610b93565b5b9050919050565b61063a610c0d565b80600360006101000a81548173ffffffffffffffffffffffffffffffffffffffff021916908373ffffffffffffffffffffffffffffffffffffffff16021790555050565b600060016000838152602001908152602001600020600101549050919050565b6106a78261067e565b6106b081610c8b565b6106ba8383610c9f565b505050565b6106c7610b8b565b73ffffffffffffffffffffffffffffffffffffffff168173ffffffffffffffffffffffffffffffffffffffff1614610734576040517f08c379a000000000000000000000000000000000000000000000000000000000815260040161072b9061228f565b60405180910390fd5b61073e8282610cd3565b5050565b61074a610c0d565b6107546000610d07565b565b61075e610c0d565b80600560006101000a81548160ff02191690831515021790555050565b7f10dac8c06a04bec0b551627dad28bc00d6516b0caacd1c7b345fcdb5211334e481565b60008060009054906101000a900473ffffffffffffffffffffffffffffffffffffffff16905090565b60006107ef8260026000868152602001908152602001600020610dcb90919063ffffffff16565b905092915050565b60006001600084815260200190815260200160002060000160008373ffffffffffffffffffffffffffffffffffffffff1673ffffffffffffffffffffffffffffffffffffffff16815260200190815260200160002060009054906101000a900460ff16905092915050565b6000801b81565b600560009054906101000a900460ff1681565b80600360009054906101000a900473ffffffffffffffffffffffffffffffffffffffff1673ffffffffffffffffffffffffffffffffffffffff166370a08231336040518263ffffffff1660e01b81526004016108d8919061207c565b60206040518083038186803b1580156108f057600080fd5b505afa158015610904573d6000803e3d6000fd5b505050506040513d601f19601f820116820180604052508101906109289190611b17565b1015610969576040517f08c379a0000000000000000000000000000000000000000000000000000000008152600401610960906121cf565b60405180910390fd5b610997600360009054906101000a900473ffffffffffffffffffffffffffffffffffffffff16333084610de5565b50565b60006109b760026000848152602001908152602001600020610e6e565b9050919050565b6109c78261067e565b6109d081610c8b565b6109da8383610cd3565b505050565b6109e7610c0d565b8060048190555050565b6109f9610c0d565b600073ffffffffffffffffffffffffffffffffffffffff168173ffffffffffffffffffffffffffffffffffffffff161415610a69576040517f08c379a0000000000000000000000000000000000000000000000000000000008152600401610a609061218f565b60405180910390fd5b610a7281610d07565b50565b60045481565b610a8582826107f7565b610b5757600180600084815260200190815260200160002060000160008373ffffffffffffffffffffffffffffffffffffffff1673ffffffffffffffffffffffffffffffffffffffff16815260200190815260200160002060006101000a81548160ff021916908315150217905550610afc610b8b565b73ffffffffffffffffffffffffffffffffffffffff168173ffffffffffffffffffffffffffffffffffffffff16837f2f8788117e7eff1d82e926ec794901d17c78024a50270940304540a733656f0d60405160405180910390a45b5050565b6000610b83836000018373ffffffffffffffffffffffffffffffffffffffff1660001b610e83565b905092915050565b600033905090565b60007f7965db0b000000000000000000000000000000000000000000000000000000007bffffffffffffffffffffffffffffffffffffffffffffffffffffffff1916827bffffffffffffffffffffffffffffffffffffffffffffffffffffffff19161480610c065750610c0582610ef3565b5b9050919050565b610c15610b8b565b73ffffffffffffffffffffffffffffffffffffffff16610c3361079f565b73ffffffffffffffffffffffffffffffffffffffff1614610c89576040517f08c379a0000000000000000000000000000000000000000000000000000000008152600401610c80906121ef565b60405180910390fd5b565b610c9c81610c97610b8b565b610f5d565b50565b610ca98282610a7b565b610cce8160026000858152602001908152602001600020610b5b90919063ffffffff16565b505050565b610cdd8282610fe2565b610d0281600260008581526020019081526020016000206110c490919063ffffffff16565b505050565b60008060009054906101000a900473ffffffffffffffffffffffffffffffffffffffff169050816000806101000a81548173ffffffffffffffffffffffffffffffffffffffff021916908373ffffffffffffffffffffffffffffffffffffffff1602179055508173ffffffffffffffffffffffffffffffffffffffff168173ffffffffffffffffffffffffffffffffffffffff167f8be0079c531659141344cd1fd0a4f28419497f9722a3daafe3b4186f6b6457e060405160405180910390a35050565b6000610dda83600001836110f4565b60001c905092915050565b610e68846323b872dd60e01b858585604051602401610e0693929190612097565b604051602081830303815290604052907bffffffffffffffffffffffffffffffffffffffffffffffffffffffff19166020820180517bffffffffffffffffffffffffffffffffffffffffffffffffffffffff8381831617835250505050611145565b50505050565b6000610e7c8260000161120d565b9050919050565b6000610e8f838361121e565b610ee8578260000182908060018154018082558091505060019003906000526020600020016000909190919091505582600001805490508360010160008481526020019081526020016000208190555060019050610eed565b600090505b92915050565b60007f01ffc9a7000000000000000000000000000000000000000000000000000000007bffffffffffffffffffffffffffffffffffffffffffffffffffffffff1916827bffffffffffffffffffffffffffffffffffffffffffffffffffffffff1916149050919050565b610f6782826107f7565b610fde57610f7481611241565b610f828360001c602061126e565b604051602001610f93929190612042565b6040516020818303038152906040526040517f08c379a0000000000000000000000000000000000000000000000000000000008152600401610fd5919061212d565b60405180910390fd5b5050565b610fec82826107f7565b156110c05760006001600084815260200190815260200160002060000160008373ffffffffffffffffffffffffffffffffffffffff1673ffffffffffffffffffffffffffffffffffffffff16815260200190815260200160002060006101000a81548160ff021916908315150217905550611065610b8b565b73ffffffffffffffffffffffffffffffffffffffff168173ffffffffffffffffffffffffffffffffffffffff16837ff6391f5c32d9c69d2a47ea670b442974b53935d1edc7fd64eb21e047a839171b60405160405180910390a45b5050565b60006110ec836000018373ffffffffffffffffffffffffffffffffffffffff1660001b611568565b905092915050565b6000826000018281548110611132577f4e487b7100000000000000000000000000000000000000000000000000000000600052603260045260246000fd5b9060005260206000200154905092915050565b60006111a7826040518060400160405280602081526020017f5361666545524332303a206c6f772d6c6576656c2063616c6c206661696c65648152508573ffffffffffffffffffffffffffffffffffffffff166116ee9092919063ffffffff16565b90506000815114806111c95750808060200190518101906111c891906119d2565b5b611208576040517f08c379a00000000000000000000000000000000000000000000000000000000081526004016111ff9061226f565b60405180910390fd5b505050565b600081600001805490509050919050565b600080836001016000848152602001908152602001600020541415905092915050565b60606112678273ffffffffffffffffffffffffffffffffffffffff16601460ff1661126e565b9050919050565b606060006002836002611281919061235d565b61128b9190612307565b67ffffffffffffffff8111156112ca577f4e487b7100000000000000000000000000000000000000000000000000000000600052604160045260246000fd5b6040519080825280601f01601f1916602001820160405280156112fc5781602001600182028036833780820191505090505b5090507f30000000000000000000000000000000000000000000000000000000000000008160008151811061135a577f4e487b7100000000000000000000000000000000000000000000000000000000600052603260045260246000fd5b60200101907effffffffffffffffffffffffffffffffffffffffffffffffffffffffffffff1916908160001a9053507f7800000000000000000000000000000000000000000000000000000000000000816001815181106113e4577f4e487b7100000000000000000000000000000000000000000000000000000000600052603260045260246000fd5b60200101907effffffffffffffffffffffffffffffffffffffffffffffffffffffffffffff1916908160001a90535060006001846002611424919061235d565b61142e9190612307565b90505b600181111561151a577f3031323334353637383961626364656600000000000000000000000000000000600f861660108110611496577f4e487b7100000000000000000000000000000000000000000000000000000000600052603260045260246000fd5b1a60f81b8282815181106114d3577f4e487b7100000000000000000000000000000000000000000000000000000000600052603260045260246000fd5b60200101907effffffffffffffffffffffffffffffffffffffffffffffffffffffffffffff1916908160001a905350600485901c945080611513906124ae565b9050611431565b506000841461155e576040517f08c379a00000000000000000000000000000000000000000000000000000000081526004016115559061216f565b60405180910390fd5b8091505092915050565b600080836001016000848152602001908152602001600020549050600081146116e257600060018261159a91906123b7565b90506000600186600001805490506115b291906123b7565b905081811461166d5760008660000182815481106115f9577f4e487b7100000000000000000000000000000000000000000000000000000000600052603260045260246000fd5b9060005260206000200154905080876000018481548110611643577f4e487b7100000000000000000000000000000000000000000000000000000000600052603260045260246000fd5b90600052602060002001819055508387600101600083815260200190815260200160002081905550505b856000018054806116a7577f4e487b7100000000000000000000000000000000000000000000000000000000600052603160045260246000fd5b6001900381819060005260206000200160009055905585600101600086815260200190815260200160002060009055600193505050506116e8565b60009150505b92915050565b60606116fd8484600085611706565b90509392505050565b60608247101561174b576040517f08c379a0000000000000000000000000000000000000000000000000000000008152600401611742906121af565b60405180910390fd5b6000808673ffffffffffffffffffffffffffffffffffffffff168587604051611774919061202b565b60006040518083038185875af1925050503d80600081146117b1576040519150601f19603f3d011682016040523d82523d6000602084013e6117b6565b606091505b50915091506117c7878383876117d3565b92505050949350505050565b606083156118365760008351141561182e576117ee85611849565b61182d576040517f08c379a00000000000000000000000000000000000000000000000000000000081526004016118249061224f565b60405180910390fd5b5b829050611841565b6118408383611888565b5b949350505050565b6000808273ffffffffffffffffffffffffffffffffffffffff16803b806020016040519081016040528181526000908060200190933c51119050919050565b60008251111561189b5781518083602001fd5b806040517f08c379a00000000000000000000000000000000000000000000000000000000081526004016118cf919061212d565b60405180910390fd5b6000813590506118e781612518565b92915050565b6000813590506118fc8161252f565b92915050565b6000815190506119118161252f565b92915050565b60008135905061192681612546565b92915050565b60008135905061193b8161255d565b92915050565b60008135905061195081612574565b92915050565b6000813590506119658161258b565b92915050565b60008151905061197a8161258b565b92915050565b60006020828403121561199257600080fd5b60006119a0848285016118d8565b91505092915050565b6000602082840312156119bb57600080fd5b60006119c9848285016118ed565b91505092915050565b6000602082840312156119e457600080fd5b60006119f284828501611902565b91505092915050565b600060208284031215611a0d57600080fd5b6000611a1b84828501611917565b91505092915050565b60008060408385031215611a3757600080fd5b6000611a4585828601611917565b9250506020611a56858286016118d8565b9150509250929050565b60008060408385031215611a7357600080fd5b6000611a8185828601611917565b9250506020611a9285828601611956565b9150509250929050565b600060208284031215611aae57600080fd5b6000611abc8482850161192c565b91505092915050565b600060208284031215611ad757600080fd5b6000611ae584828501611941565b91505092915050565b600060208284031215611b0057600080fd5b6000611b0e84828501611956565b91505092915050565b600060208284031215611b2957600080fd5b6000611b378482850161196b565b91505092915050565b60008060408385031215611b5357600080fd5b6000611b6185828601611956565b9250506020611b72858286016118d8565b9150509250929050565b611b85816123eb565b82525050565b611b94816123fd565b82525050565b611ba381612409565b82525050565b6000611bb4826122ca565b611bbe81856122e0565b9350611bce81856020860161247b565b80840191505092915050565b6000611be5826122d5565b611bef81856122eb565b9350611bff81856020860161247b565b611c0881612507565b840191505092915050565b6000611c1e826122d5565b611c2881856122fc565b9350611c3881856020860161247b565b80840191505092915050565b6000611c516015836122eb565b91507f457863656564206d6178696d756d20616d6f756e7400000000000000000000006000830152602082019050919050565b6000611c916020836122eb565b91507f537472696e67733a20686578206c656e67746820696e73756666696369656e746000830152602082019050919050565b6000611cd16026836122eb565b91507f4f776e61626c653a206e6577206f776e657220697320746865207a65726f206160008301527f64647265737300000000000000000000000000000000000000000000000000006020830152604082019050919050565b6000611d376026836122eb565b91507f416464726573733a20696e73756666696369656e742062616c616e636520666f60008301527f722063616c6c00000000000000000000000000000000000000000000000000006020830152604082019050919050565b6000611d9d601c836122eb565b91507f496e73756666696369656e74206163636f756e742062616c616e6365000000006000830152602082019050919050565b6000611ddd6020836122eb565b91507f4f776e61626c653a2063616c6c6572206973206e6f7420746865206f776e65726000830152602082019050919050565b6000611e1d601a836122eb565b91507f43616c6c6572206973206e6f74206120776974686472617765720000000000006000830152602082019050919050565b6000611e5d6019836122eb565b91507f5769746864726177206973206e6f7420617661696c61626c65000000000000006000830152602082019050919050565b6000611e9d601d836122eb565b91507f416464726573733a2063616c6c20746f206e6f6e2d636f6e74726163740000006000830152602082019050919050565b6000611edd6017836122fc565b91507f416363657373436f6e74726f6c3a206163636f756e74200000000000000000006000830152601782019050919050565b6000611f1d602a836122eb565b91507f5361666545524332303a204552433230206f7065726174696f6e20646964206e60008301527f6f742073756363656564000000000000000000000000000000000000000000006020830152604082019050919050565b6000611f836011836122fc565b91507f206973206d697373696e6720726f6c65200000000000000000000000000000006000830152601182019050919050565b6000611fc3602f836122eb565b91507f416363657373436f6e74726f6c3a2063616e206f6e6c792072656e6f756e636560008301527f20726f6c657320666f722073656c6600000000000000000000000000000000006020830152604082019050919050565b61202581612471565b82525050565b60006120378284611ba9565b915081905092915050565b600061204d82611ed0565b91506120598285611c13565b915061206482611f76565b91506120708284611c13565b91508190509392505050565b60006020820190506120916000830184611b7c565b92915050565b60006060820190506120ac6000830186611b7c565b6120b96020830185611b7c565b6120c6604083018461201c565b949350505050565b60006040820190506120e36000830185611b7c565b6120f0602083018461201c565b9392505050565b600060208201905061210c6000830184611b8b565b92915050565b60006020820190506121276000830184611b9a565b92915050565b600060208201905081810360008301526121478184611bda565b905092915050565b6000602082019050818103600083015261216881611c44565b9050919050565b6000602082019050818103600083015261218881611c84565b9050919050565b600060208201905081810360008301526121a881611cc4565b9050919050565b600060208201905081810360008301526121c881611d2a565b9050919050565b600060208201905081810360008301526121e881611d90565b9050919050565b6000602082019050818103600083015261220881611dd0565b9050919050565b6000602082019050818103600083015261222881611e10565b9050919050565b6000602082019050818103600083015261224881611e50565b9050919050565b6000602082019050818103600083015261226881611e90565b9050919050565b6000602082019050818103600083015261228881611f10565b9050919050565b600060208201905081810360008301526122a881611fb6565b9050919050565b60006020820190506122c4600083018461201c565b92915050565b600081519050919050565b600081519050919050565b600081905092915050565b600082825260208201905092915050565b600081905092915050565b600061231282612471565b915061231d83612471565b9250827fffffffffffffffffffffffffffffffffffffffffffffffffffffffffffffffff03821115612352576123516124d8565b5b828201905092915050565b600061236882612471565b915061237383612471565b9250817fffffffffffffffffffffffffffffffffffffffffffffffffffffffffffffffff04831182151516156123ac576123ab6124d8565b5b828202905092915050565b60006123c282612471565b91506123cd83612471565b9250828210156123e0576123df6124d8565b5b828203905092915050565b60006123f682612451565b9050919050565b60008115159050919050565b6000819050919050565b60007fffffffff0000000000000000000000000000000000000000000000000000000082169050919050565b600061244a826123eb565b9050919050565b600073ffffffffffffffffffffffffffffffffffffffff82169050919050565b6000819050919050565b60005b8381101561249957808201518184015260208101905061247e565b838111156124a8576000848401525b50505050565b60006124b982612471565b915060008214156124cd576124cc6124d8565b5b600182039050919050565b7f4e487b7100000000000000000000000000000000000000000000000000000000600052601160045260246000fd5b6000601f19601f8301169050919050565b612521816123eb565b811461252c57600080fd5b50565b612538816123fd565b811461254357600080fd5b50565b61254f81612409565b811461255a57600080fd5b50565b61256681612413565b811461257157600080fd5b50565b61257d8161243f565b811461258857600080fd5b50565b61259481612471565b811461259f57600080fd5b5056fea2646970667358221220eb4a73110b81a6dc767301c6268c23914205224cdb29d3e4fe47ae65d61dfb4e64736f6c63430008000033",
  "linkReferences": {},
  "deployedLinkReferences": {}
}