{
  "_format": "hh-sol-artifact-1",
  "contractName": "SIMSCrowdSale",
  "sourceName": "contracts/SIMSCrowndsale.sol",
  "abi": [
    {
      "inputs": [
        {
          "internalType": "uint256",
          "name": "bnb_rate",
          "type": "uint256"
        },
        {
          "internalType": "uint256",
          "name": "usdt_rate",
          "type": "uint256"
        },
        {
          "internalType": "address payable",
          "name": "wallet",
          "type": "address"
        },
        {
          "internalType": "contract IERC20",
          "name": "icotoken",
          "type": "address"
        }
      ],
      "stateMutability": "nonpayable",
      "type": "constructor"
    },
    {
      "anonymous": false,
      "inputs": [
        {
          "indexed": false,
          "internalType": "address",
          "name": "buyer",
          "type": "address"
        },
        {
          "indexed": false,
          "internalType": "uint256",
          "name": "amount",
          "type": "uint256"
        }
      ],
      "name": "BuyTokenByBNB",
      "type": "event"
    },
    {
      "anonymous": false,
      "inputs": [
        {
          "indexed": false,
          "internalType": "address",
          "name": "buyer",
          "type": "address"
        },
        {
          "indexed": false,
          "internalType": "uint256",
          "name": "amount",
          "type": "uint256"
        }
      ],
      "name": "BuyTokenByUSDT",
      "type": "event"
    },
    {
      "anonymous": false,
      "inputs": [
        {
          "indexed": true,
          "internalType": "address",
          "name": "previousOwner",
          "type": "address"
        },
        {
          "indexed": true,
          "internalType": "address",
          "name": "newOwner",
          "type": "address"
        }
      ],
      "name": "OwnershipTransferred",
      "type": "event"
    },
    {
      "anonymous": false,
      "inputs": [
        {
          "indexed": false,
          "internalType": "uint256",
          "name": "newRate",
          "type": "uint256"
        }
      ],
      "name": "SetBNBRate",
      "type": "event"
    },
    {
      "anonymous": false,
      "inputs": [
        {
          "indexed": false,
          "internalType": "uint256",
          "name": "newRate",
          "type": "uint256"
        }
      ],
      "name": "SetUSDTRate",
      "type": "event"
    },
    {
      "anonymous": false,
      "inputs": [
        {
          "indexed": false,
          "internalType": "contract IERC20",
          "name": "tokenAddress",
          "type": "address"
        }
      ],
      "name": "SetUSDTToken",
      "type": "event"
    },
    {
      "inputs": [],
      "name": "BNB_rate",
      "outputs": [
        {
          "internalType": "uint256",
          "name": "",
          "type": "uint256"
        }
      ],
      "stateMutability": "view",
      "type": "function"
    },
    {
      "inputs": [],
      "name": "USDT_rate",
      "outputs": [
        {
          "internalType": "uint256",
          "name": "",
          "type": "uint256"
        }
      ],
      "stateMutability": "view",
      "type": "function"
    },
    {
      "inputs": [],
      "name": "_wallet",
      "outputs": [
        {
          "internalType": "address payable",
          "name": "",
          "type": "address"
        }
      ],
      "stateMutability": "view",
      "type": "function"
    },
    {
      "inputs": [],
      "name": "buyTokenByBNB",
      "outputs": [],
      "stateMutability": "payable",
      "type": "function"
    },
    {
      "inputs": [
        {
          "internalType": "uint256",
          "name": "USDTAmount",
          "type": "uint256"
        }
      ],
      "name": "buyTokenByUSDT",
      "outputs": [],
      "stateMutability": "nonpayable",
      "type": "function"
    },
    {
      "inputs": [
        {
          "internalType": "uint256",
          "name": "BNBAmount",
          "type": "uint256"
        }
      ],
      "name": "getTokenAmountBNB",
      "outputs": [
        {
          "internalType": "uint256",
          "name": "",
          "type": "uint256"
        }
      ],
      "stateMutability": "view",
      "type": "function"
    },
    {
      "inputs": [
        {
          "internalType": "uint256",
          "name": "USDTAmount",
          "type": "uint256"
        }
      ],
      "name": "getTokenAmountUSDT",
      "outputs": [
        {
          "internalType": "uint256",
          "name": "",
          "type": "uint256"
        }
      ],
      "stateMutability": "view",
      "type": "function"
    },
    {
      "inputs": [],
      "name": "owner",
      "outputs": [
        {
          "internalType": "address",
          "name": "",
          "type": "address"
        }
      ],
      "stateMutability": "view",
      "type": "function"
    },
    {
      "inputs": [],
      "name": "renounceOwnership",
      "outputs": [],
      "stateMutability": "nonpayable",
      "type": "function"
    },
    {
      "inputs": [
        {
          "internalType": "uint256",
          "name": "new_rate",
          "type": "uint256"
        }
      ],
      "name": "setBNBRate",
      "outputs": [],
      "stateMutability": "nonpayable",
      "type": "function"
    },
    {
      "inputs": [
        {
          "internalType": "uint256",
          "name": "new_rate",
          "type": "uint256"
        }
      ],
      "name": "setUSDTRate",
      "outputs": [],
      "stateMutability": "nonpayable",
      "type": "function"
    },
    {
      "inputs": [
        {
          "internalType": "contract IERC20",
          "name": "token_address",
          "type": "address"
        }
      ],
      "name": "setUSDTToken",
      "outputs": [],
      "stateMutability": "nonpayable",
      "type": "function"
    },
    {
      "inputs": [],
      "name": "token",
      "outputs": [
        {
          "internalType": "contract IERC20",
          "name": "",
          "type": "address"
        }
      ],
      "stateMutability": "view",
      "type": "function"
    },
    {
      "inputs": [
        {
          "internalType": "address",
          "name": "newOwner",
          "type": "address"
        }
      ],
      "name": "transferOwnership",
      "outputs": [],
      "stateMutability": "nonpayable",
      "type": "function"
    },
    {
      "inputs": [],
      "name": "usdtToken",
      "outputs": [
        {
          "internalType": "contract IERC20",
          "name": "",
          "type": "address"
        }
      ],
      "stateMutability": "view",
      "type": "function"
    },
    {
      "inputs": [],
      "name": "withdraw",
      "outputs": [],
      "stateMutability": "nonpayable",
      "type": "function"
    },
    {
      "inputs": [],
      "name": "withdrawErc20",
      "outputs": [],
      "stateMutability": "nonpayable",
      "type": "function"
    }
  ],
  "bytecode": "0x60806040523480156200001157600080fd5b5060405162001d7638038062001d76833981810160405281019062000037919062000202565b620000576200004b620000f160201b60201c565b620000f960201b60201c565b836002819055508260038190555081600160006101000a81548173ffffffffffffffffffffffffffffffffffffffff021916908373ffffffffffffffffffffffffffffffffffffffff16021790555080600460006101000a81548173ffffffffffffffffffffffffffffffffffffffff021916908373ffffffffffffffffffffffffffffffffffffffff1602179055505050505062000322565b600033905090565b60008060009054906101000a900473ffffffffffffffffffffffffffffffffffffffff169050816000806101000a81548173ffffffffffffffffffffffffffffffffffffffff021916908373ffffffffffffffffffffffffffffffffffffffff1602179055508173ffffffffffffffffffffffffffffffffffffffff168173ffffffffffffffffffffffffffffffffffffffff167f8be0079c531659141344cd1fd0a4f28419497f9722a3daafe3b4186f6b6457e060405160405180910390a35050565b600081519050620001ce81620002d4565b92915050565b600081519050620001e581620002ee565b92915050565b600081519050620001fc8162000308565b92915050565b600080600080608085870312156200021957600080fd5b60006200022987828801620001eb565b94505060206200023c87828801620001eb565b93505060406200024f87828801620001bd565b92505060606200026287828801620001d4565b91505092959194509250565b60006200027b82620002aa565b9050919050565b60006200028f82620002aa565b9050919050565b6000620002a3826200026e565b9050919050565b600073ffffffffffffffffffffffffffffffffffffffff82169050919050565b6000819050919050565b620002df8162000282565b8114620002eb57600080fd5b50565b620002f98162000296565b81146200030557600080fd5b50565b6200031381620002ca565b81146200031f57600080fd5b50565b611a4480620003326000396000f3fe6080604052600436106100fe5760003560e01c8063610757e411610095578063a98ad46c11610064578063a98ad46c146102b6578063acb03d43146102e1578063c5d156511461031e578063f2fde38b14610347578063fc0c546a14610370576100fe565b8063610757e41461022057806366e226bd1461024b578063715018a6146102745780638da5cb5b1461028b576100fe565b806331927737116100d157806331927737146101bd5780633ccfd60b146101c75780633e3f2359146101de578063592a00e4146101f5576100fe565b8063157fc821146101035780631832d8b61461012e5780631b4622d61461016b5780632be8629914610194575b600080fd5b34801561010f57600080fd5b5061011861039b565b6040516101259190611808565b60405180910390f35b34801561013a57600080fd5b5061015560048036038101906101509190611314565b6103a1565b6040516101629190611808565b60405180910390f35b34801561017757600080fd5b50610192600480360381019061018d9190611314565b6103b8565b005b3480156101a057600080fd5b506101bb60048036038101906101b69190611314565b610401565b005b6101c561044a565b005b3480156101d357600080fd5b506101dc6106b9565b005b3480156101ea57600080fd5b506101f361070a565b005b34801561020157600080fd5b5061020a61086e565b6040516102179190611808565b60405180910390f35b34801561022c57600080fd5b50610235610874565b6040516102429190611670565b60405180910390f35b34801561025757600080fd5b50610272600480360381019061026d91906112eb565b61089a565b005b34801561028057600080fd5b5061028961091d565b005b34801561029757600080fd5b506102a0610931565b6040516102ad9190611655565b60405180910390f35b3480156102c257600080fd5b506102cb61095a565b6040516102d891906116eb565b60405180910390f35b3480156102ed57600080fd5b5061030860048036038101906103039190611314565b610980565b6040516103159190611808565b60405180910390f35b34801561032a57600080fd5b5061034560048036038101906103409190611314565b610997565b005b34801561035357600080fd5b5061036e60048036038101906103699190611299565b610c7b565b005b34801561037c57600080fd5b50610385610cff565b60405161039291906116eb565b60405180910390f35b60025481565b6000600354826103b19190611855565b9050919050565b6103c0610d25565b806003819055507fbdaa37e3f6679857d8c3e80d172bd45af732a8658cf1d690c81ca96f5a443b5b816040516103f69190611808565b60405180910390a150565b610409610d25565b806002819055507fb0cc740bbbfcd5af22ee3956c6b44d2d6f499e2a86cb11d915fcce88dca2113a8160405161043f9190611808565b60405180910390a150565b6000349050600061045a82610980565b90506000811161049f576040517f08c379a000000000000000000000000000000000000000000000000000000000815260040161049690611788565b60405180910390fd5b80600460009054906101000a900473ffffffffffffffffffffffffffffffffffffffff1673ffffffffffffffffffffffffffffffffffffffff166370a08231306040518263ffffffff1660e01b81526004016104fb9190611655565b60206040518083038186803b15801561051357600080fd5b505afa158015610527573d6000803e3d6000fd5b505050506040513d601f19601f8201168201806040525081019061054b919061133d565b101561058c576040517f08c379a000000000000000000000000000000000000000000000000000000000815260040161058390611768565b60405180910390fd5b813373ffffffffffffffffffffffffffffffffffffffff163110156105e6576040517f08c379a00000000000000000000000000000000000000000000000000000000081526004016105dd90611768565b60405180910390fd5b600160009054906101000a900473ffffffffffffffffffffffffffffffffffffffff1673ffffffffffffffffffffffffffffffffffffffff166108fc839081150290604051600060405180830381858888f1935050505015801561064e573d6000803e3d6000fd5b5061067c600460009054906101000a900473ffffffffffffffffffffffffffffffffffffffff163383610da3565b7ff695091b71a5c3ea41510251da89a66470bbcf1ee118f820a1bab8739e29ea5033826040516106ad9291906116c2565b60405180910390a15050565b6106c1610d25565b3373ffffffffffffffffffffffffffffffffffffffff166108fc479081150290604051600060405180830381858888f19350505050158015610707573d6000803e3d6000fd5b50565b610712610d25565b600560009054906101000a900473ffffffffffffffffffffffffffffffffffffffff1673ffffffffffffffffffffffffffffffffffffffff1663a9059cbb33600560009054906101000a900473ffffffffffffffffffffffffffffffffffffffff1673ffffffffffffffffffffffffffffffffffffffff166370a08231306040518263ffffffff1660e01b81526004016107ac9190611655565b60206040518083038186803b1580156107c457600080fd5b505afa1580156107d8573d6000803e3d6000fd5b505050506040513d601f19601f820116820180604052508101906107fc919061133d565b6040518363ffffffff1660e01b81526004016108199291906116c2565b602060405180830381600087803b15801561083357600080fd5b505af1158015610847573d6000803e3d6000fd5b505050506040513d601f19601f8201168201806040525081019061086b91906112c2565b50565b60035481565b600160009054906101000a900473ffffffffffffffffffffffffffffffffffffffff1681565b6108a2610d25565b80600560006101000a81548173ffffffffffffffffffffffffffffffffffffffff021916908373ffffffffffffffffffffffffffffffffffffffff1602179055507f43036333e58a6f9255617b54ec9f5825590c8ee695a222dc35e5001927f071518160405161091291906116eb565b60405180910390a150565b610925610d25565b61092f6000610e29565b565b60008060009054906101000a900473ffffffffffffffffffffffffffffffffffffffff16905090565b600560009054906101000a900473ffffffffffffffffffffffffffffffffffffffff1681565b6000600254826109909190611855565b9050919050565b60006109a2826103a1565b905081600560009054906101000a900473ffffffffffffffffffffffffffffffffffffffff1673ffffffffffffffffffffffffffffffffffffffff166370a08231336040518263ffffffff1660e01b8152600401610a009190611655565b60206040518083038186803b158015610a1857600080fd5b505afa158015610a2c573d6000803e3d6000fd5b505050506040513d601f19601f82011682018060405250810190610a50919061133d565b1015610a91576040517f08c379a0000000000000000000000000000000000000000000000000000000008152600401610a8890611768565b60405180910390fd5b60008111610ad4576040517f08c379a0000000000000000000000000000000000000000000000000000000008152600401610acb90611788565b60405180910390fd5b80600460009054906101000a900473ffffffffffffffffffffffffffffffffffffffff1673ffffffffffffffffffffffffffffffffffffffff166370a08231306040518263ffffffff1660e01b8152600401610b309190611655565b60206040518083038186803b158015610b4857600080fd5b505afa158015610b5c573d6000803e3d6000fd5b505050506040513d601f19601f82011682018060405250810190610b80919061133d565b1015610bc1576040517f08c379a0000000000000000000000000000000000000000000000000000000008152600401610bb890611768565b60405180910390fd5b610c11600560009054906101000a900473ffffffffffffffffffffffffffffffffffffffff1633600160009054906101000a900473ffffffffffffffffffffffffffffffffffffffff1685610eed565b610c3e600460009054906101000a900473ffffffffffffffffffffffffffffffffffffffff163383610da3565b7f5c0161fad3fa89cfebd4a74115d9f81661cdd1b9008d05a238ea9d65088e20643382604051610c6f9291906116c2565b60405180910390a15050565b610c83610d25565b600073ffffffffffffffffffffffffffffffffffffffff168173ffffffffffffffffffffffffffffffffffffffff161415610cf3576040517f08c379a0000000000000000000000000000000000000000000000000000000008152600401610cea90611728565b60405180910390fd5b610cfc81610e29565b50565b600460009054906101000a900473ffffffffffffffffffffffffffffffffffffffff1681565b610d2d610f76565b73ffffffffffffffffffffffffffffffffffffffff16610d4b610931565b73ffffffffffffffffffffffffffffffffffffffff1614610da1576040517f08c379a0000000000000000000000000000000000000000000000000000000008152600401610d98906117a8565b60405180910390fd5b565b610e248363a9059cbb60e01b8484604051602401610dc29291906116c2565b604051602081830303815290604052907bffffffffffffffffffffffffffffffffffffffffffffffffffffffff19166020820180517bffffffffffffffffffffffffffffffffffffffffffffffffffffffff8381831617835250505050610f7e565b505050565b60008060009054906101000a900473ffffffffffffffffffffffffffffffffffffffff169050816000806101000a81548173ffffffffffffffffffffffffffffffffffffffff021916908373ffffffffffffffffffffffffffffffffffffffff1602179055508173ffffffffffffffffffffffffffffffffffffffff168173ffffffffffffffffffffffffffffffffffffffff167f8be0079c531659141344cd1fd0a4f28419497f9722a3daafe3b4186f6b6457e060405160405180910390a35050565b610f70846323b872dd60e01b858585604051602401610f0e9392919061168b565b604051602081830303815290604052907bffffffffffffffffffffffffffffffffffffffffffffffffffffffff19166020820180517bffffffffffffffffffffffffffffffffffffffffffffffffffffffff8381831617835250505050610f7e565b50505050565b600033905090565b6000610fe0826040518060400160405280602081526020017f5361666545524332303a206c6f772d6c6576656c2063616c6c206661696c65648152508573ffffffffffffffffffffffffffffffffffffffff166110469092919063ffffffff16565b905060008151148061100257508080602001905181019061100191906112c2565b5b611041576040517f08c379a0000000000000000000000000000000000000000000000000000000008152600401611038906117e8565b60405180910390fd5b505050565b6060611055848460008561105e565b90509392505050565b6060824710156110a3576040517f08c379a000000000000000000000000000000000000000000000000000000000815260040161109a90611748565b60405180910390fd5b6000808673ffffffffffffffffffffffffffffffffffffffff1685876040516110cc919061163e565b60006040518083038185875af1925050503d8060008114611109576040519150601f19603f3d011682016040523d82523d6000602084013e61110e565b606091505b509150915061111f8783838761112b565b92505050949350505050565b6060831561118e5760008351141561118657611146856111a1565b611185576040517f08c379a000000000000000000000000000000000000000000000000000000000815260040161117c906117c8565b60405180910390fd5b5b829050611199565b61119883836111e0565b5b949350505050565b6000808273ffffffffffffffffffffffffffffffffffffffff16803b806020016040519081016040528181526000908060200190933c51119050919050565b6000825111156111f35781518083602001fd5b806040517f08c379a00000000000000000000000000000000000000000000000000000000081526004016112279190611706565b60405180910390fd5b60008135905061123f816119b2565b92915050565b600081519050611254816119c9565b92915050565b600081359050611269816119e0565b92915050565b60008135905061127e816119f7565b92915050565b600081519050611293816119f7565b92915050565b6000602082840312156112ab57600080fd5b60006112b984828501611230565b91505092915050565b6000602082840312156112d457600080fd5b60006112e284828501611245565b91505092915050565b6000602082840312156112fd57600080fd5b600061130b8482850161125a565b91505092915050565b60006020828403121561132657600080fd5b60006113348482850161126f565b91505092915050565b60006020828403121561134f57600080fd5b600061135d84828501611284565b91505092915050565b61136f816118c1565b82525050565b61137e816118af565b82525050565b600061138f82611823565b6113998185611839565b93506113a981856020860161193f565b80840191505092915050565b6113be8161191b565b82525050565b60006113cf8261182e565b6113d98185611844565b93506113e981856020860161193f565b6113f2816119a1565b840191505092915050565b600061140a602683611844565b91507f4f776e61626c653a206e6577206f776e657220697320746865207a65726f206160008301527f64647265737300000000000000000000000000000000000000000000000000006020830152604082019050919050565b6000611470602683611844565b91507f416464726573733a20696e73756666696369656e742062616c616e636520666f60008301527f722063616c6c00000000000000000000000000000000000000000000000000006020830152604082019050919050565b60006114d6601c83611844565b91507f496e73756666696369656e74206163636f756e742062616c616e6365000000006000830152602082019050919050565b6000611516600e83611844565b91507f416d6f756e74206973207a65726f0000000000000000000000000000000000006000830152602082019050919050565b6000611556602083611844565b91507f4f776e61626c653a2063616c6c6572206973206e6f7420746865206f776e65726000830152602082019050919050565b6000611596601d83611844565b91507f416464726573733a2063616c6c20746f206e6f6e2d636f6e74726163740000006000830152602082019050919050565b60006115d6602a83611844565b91507f5361666545524332303a204552433230206f7065726174696f6e20646964206e60008301527f6f742073756363656564000000000000000000000000000000000000000000006020830152604082019050919050565b61163881611911565b82525050565b600061164a8284611384565b915081905092915050565b600060208201905061166a6000830184611375565b92915050565b60006020820190506116856000830184611366565b92915050565b60006060820190506116a06000830186611375565b6116ad6020830185611375565b6116ba604083018461162f565b949350505050565b60006040820190506116d76000830185611375565b6116e4602083018461162f565b9392505050565b600060208201905061170060008301846113b5565b92915050565b6000602082019050818103600083015261172081846113c4565b905092915050565b60006020820190508181036000830152611741816113fd565b9050919050565b6000602082019050818103600083015261176181611463565b9050919050565b60006020820190508181036000830152611781816114c9565b9050919050565b600060208201905081810360008301526117a181611509565b9050919050565b600060208201905081810360008301526117c181611549565b9050919050565b600060208201905081810360008301526117e181611589565b9050919050565b60006020820190508181036000830152611801816115c9565b9050919050565b600060208201905061181d600083018461162f565b92915050565b600081519050919050565b600081519050919050565b600081905092915050565b600082825260208201905092915050565b600061186082611911565b915061186b83611911565b9250817fffffffffffffffffffffffffffffffffffffffffffffffffffffffffffffffff04831182151516156118a4576118a3611972565b5b828202905092915050565b60006118ba826118f1565b9050919050565b60006118cc826118f1565b9050919050565b60008115159050919050565b60006118ea826118af565b9050919050565b600073ffffffffffffffffffffffffffffffffffffffff82169050919050565b6000819050919050565b60006119268261192d565b9050919050565b6000611938826118f1565b9050919050565b60005b8381101561195d578082015181840152602081019050611942565b8381111561196c576000848401525b50505050565b7f4e487b7100000000000000000000000000000000000000000000000000000000600052601160045260246000fd5b6000601f19601f8301169050919050565b6119bb816118af565b81146119c657600080fd5b50565b6119d2816118d3565b81146119dd57600080fd5b50565b6119e9816118df565b81146119f457600080fd5b50565b611a0081611911565b8114611a0b57600080fd5b5056fea2646970667358221220526ce5f41802e621244cd66fb458c3fe739d8c9683da287904f8a5eb7f27d39b64736f6c63430008000033",
  "linkReferences": {},
  "deployedLinkReferences": {}
}