{
  "_format": "hh-sol-artifact-1",
  "contractName": "SimMarketplace",
  "sourceName": "contracts/SimMarketplace.sol",
  "abi": [
    {
      "inputs": [
        {
          "internalType": "contract IERC20",
          "name": "_token",
          "type": "address"
        },
        {
          "internalType": "contract IERC721Enumerable",
          "name": "_nft",
          "type": "address"
        }
      ],
      "stateMutability": "nonpayable",
      "type": "constructor"
    },
    {
      "anonymous": false,
      "inputs": [
        {
          "indexed": true,
          "internalType": "address",
          "name": "_from",
          "type": "address"
        },
        {
          "indexed": false,
          "internalType": "uint256",
          "name": "_tokenId",
          "type": "uint256"
        },
        {
          "indexed": false,
          "internalType": "uint256",
          "name": "_price",
          "type": "uint256"
        }
      ],
      "name": "BuyNFT",
      "type": "event"
    },
    {
      "anonymous": false,
      "inputs": [
        {
          "indexed": true,
          "internalType": "address",
          "name": "_from",
          "type": "address"
        },
        {
          "indexed": false,
          "internalType": "uint256",
          "name": "_tokenId",
          "type": "uint256"
        },
        {
          "indexed": false,
          "internalType": "uint256",
          "name": "_price",
          "type": "uint256"
        }
      ],
      "name": "ListNFT",
      "type": "event"
    },
    {
      "anonymous": false,
      "inputs": [
        {
          "indexed": true,
          "internalType": "address",
          "name": "previousOwner",
          "type": "address"
        },
        {
          "indexed": true,
          "internalType": "address",
          "name": "newOwner",
          "type": "address"
        }
      ],
      "name": "OwnershipTransferred",
      "type": "event"
    },
    {
      "anonymous": false,
      "inputs": [
        {
          "indexed": false,
          "internalType": "contract IERC721Enumerable",
          "name": "_nft",
          "type": "address"
        }
      ],
      "name": "SetNFT",
      "type": "event"
    },
    {
      "anonymous": false,
      "inputs": [
        {
          "indexed": false,
          "internalType": "uint256",
          "name": "_tax",
          "type": "uint256"
        }
      ],
      "name": "SetTax",
      "type": "event"
    },
    {
      "anonymous": false,
      "inputs": [
        {
          "indexed": false,
          "internalType": "contract IERC20",
          "name": "_token",
          "type": "address"
        }
      ],
      "name": "SetToken",
      "type": "event"
    },
    {
      "anonymous": false,
      "inputs": [
        {
          "indexed": true,
          "internalType": "address",
          "name": "_from",
          "type": "address"
        },
        {
          "indexed": false,
          "internalType": "uint256",
          "name": "_tokenId",
          "type": "uint256"
        }
      ],
      "name": "UnlistNFT",
      "type": "event"
    },
    {
      "anonymous": false,
      "inputs": [
        {
          "indexed": false,
          "internalType": "uint256",
          "name": "_tokenId",
          "type": "uint256"
        },
        {
          "indexed": false,
          "internalType": "uint256",
          "name": "_price",
          "type": "uint256"
        }
      ],
      "name": "UpdateListingNFTPrice",
      "type": "event"
    },
    {
      "inputs": [],
      "name": "baseExtensionPng",
      "outputs": [
        {
          "internalType": "string",
          "name": "",
          "type": "string"
        }
      ],
      "stateMutability": "view",
      "type": "function"
    },
    {
      "inputs": [
        {
          "internalType": "uint256",
          "name": "_tokenId",
          "type": "uint256"
        },
        {
          "internalType": "uint256",
          "name": "_price",
          "type": "uint256"
        }
      ],
      "name": "buyNft",
      "outputs": [],
      "stateMutability": "nonpayable",
      "type": "function"
    },
    {
      "inputs": [],
      "name": "getListedNft",
      "outputs": [
        {
          "components": [
            {
              "internalType": "address payable",
              "name": "author",
              "type": "address"
            },
            {
              "internalType": "uint256",
              "name": "price",
              "type": "uint256"
            },
            {
              "internalType": "uint256",
              "name": "tokenId",
              "type": "uint256"
            },
            {
              "internalType": "string",
              "name": "tokenPNG",
              "type": "string"
            }
          ],
          "internalType": "struct SimMarketplace.ListDetail[]",
          "name": "",
          "type": "tuple[]"
        }
      ],
      "stateMutability": "view",
      "type": "function"
    },
    {
      "inputs": [
        {
          "internalType": "uint256",
          "name": "_tokenId",
          "type": "uint256"
        },
        {
          "internalType": "uint256",
          "name": "_price",
          "type": "uint256"
        }
      ],
      "name": "listNft",
      "outputs": [],
      "stateMutability": "nonpayable",
      "type": "function"
    },
    {
      "inputs": [
        {
          "internalType": "address",
          "name": "",
          "type": "address"
        },
        {
          "internalType": "address",
          "name": "",
          "type": "address"
        },
        {
          "internalType": "uint256",
          "name": "",
          "type": "uint256"
        },
        {
          "internalType": "bytes",
          "name": "",
          "type": "bytes"
        }
      ],
      "name": "onERC721Received",
      "outputs": [
        {
          "internalType": "bytes4",
          "name": "",
          "type": "bytes4"
        }
      ],
      "stateMutability": "pure",
      "type": "function"
    },
    {
      "inputs": [],
      "name": "owner",
      "outputs": [
        {
          "internalType": "address",
          "name": "",
          "type": "address"
        }
      ],
      "stateMutability": "view",
      "type": "function"
    },
    {
      "inputs": [],
      "name": "renounceOwnership",
      "outputs": [],
      "stateMutability": "nonpayable",
      "type": "function"
    },
    {
      "inputs": [
        {
          "internalType": "string",
          "name": "_newUrlPng",
          "type": "string"
        }
      ],
      "name": "setBasePng",
      "outputs": [],
      "stateMutability": "nonpayable",
      "type": "function"
    },
    {
      "inputs": [
        {
          "internalType": "contract IERC721Enumerable",
          "name": "_nft",
          "type": "address"
        }
      ],
      "name": "setNft",
      "outputs": [],
      "stateMutability": "nonpayable",
      "type": "function"
    },
    {
      "inputs": [
        {
          "internalType": "uint256",
          "name": "_tax",
          "type": "uint256"
        }
      ],
      "name": "setTax",
      "outputs": [],
      "stateMutability": "nonpayable",
      "type": "function"
    },
    {
      "inputs": [
        {
          "internalType": "contract IERC20",
          "name": "_token",
          "type": "address"
        }
      ],
      "name": "setToken",
      "outputs": [],
      "stateMutability": "nonpayable",
      "type": "function"
    },
    {
      "inputs": [
        {
          "internalType": "uint256",
          "name": "tokenId",
          "type": "uint256"
        }
      ],
      "name": "tokenPNG",
      "outputs": [
        {
          "internalType": "string",
          "name": "",
          "type": "string"
        }
      ],
      "stateMutability": "view",
      "type": "function"
    },
    {
      "inputs": [
        {
          "internalType": "address",
          "name": "newOwner",
          "type": "address"
        }
      ],
      "name": "transferOwnership",
      "outputs": [],
      "stateMutability": "nonpayable",
      "type": "function"
    },
    {
      "inputs": [
        {
          "internalType": "uint256",
          "name": "_tokenId",
          "type": "uint256"
        }
      ],
      "name": "unlistNft",
      "outputs": [],
      "stateMutability": "nonpayable",
      "type": "function"
    },
    {
      "inputs": [
        {
          "internalType": "uint256",
          "name": "_tokenId",
          "type": "uint256"
        },
        {
          "internalType": "uint256",
          "name": "_price",
          "type": "uint256"
        }
      ],
      "name": "updateListingNftPrice",
      "outputs": [],
      "stateMutability": "nonpayable",
      "type": "function"
    },
    {
      "inputs": [],
      "name": "withdraw",
      "outputs": [],
      "stateMutability": "nonpayable",
      "type": "function"
    },
    {
      "inputs": [],
      "name": "withdrawErc20",
      "outputs": [],
      "stateMutability": "nonpayable",
      "type": "function"
    },
    {
      "inputs": [
        {
          "internalType": "uint256",
          "name": "amount",
          "type": "uint256"
        }
      ],
      "name": "withdrawToken",
      "outputs": [],
      "stateMutability": "nonpayable",
      "type": "function"
    }
  ],
  "bytecode": "0x60806040526040518060400160405280600481526020017f2e706e6700000000000000000000000000000000000000000000000000000000815250600490805190602001906200005192919062000200565b50600a6005553480156200006457600080fd5b5060405162003a7c38038062003a7c83398181016040528101906200008a9190620002de565b620000aa6200009e6200013460201b60201c565b6200013c60201b60201c565b80600160006101000a81548173ffffffffffffffffffffffffffffffffffffffff021916908373ffffffffffffffffffffffffffffffffffffffff16021790555081600260006101000a81548173ffffffffffffffffffffffffffffffffffffffff021916908373ffffffffffffffffffffffffffffffffffffffff160217905550505062000414565b600033905090565b60008060009054906101000a900473ffffffffffffffffffffffffffffffffffffffff169050816000806101000a81548173ffffffffffffffffffffffffffffffffffffffff021916908373ffffffffffffffffffffffffffffffffffffffff1602179055508173ffffffffffffffffffffffffffffffffffffffff168173ffffffffffffffffffffffffffffffffffffffff167f8be0079c531659141344cd1fd0a4f28419497f9722a3daafe3b4186f6b6457e060405160405180910390a35050565b8280546200020e906200037b565b90600052602060002090601f0160209004810192826200023257600085556200027e565b82601f106200024d57805160ff19168380011785556200027e565b828001600101855582156200027e579182015b828111156200027d57825182559160200191906001019062000260565b5b5090506200028d919062000291565b5090565b5b80821115620002ac57600081600090555060010162000292565b5090565b600081519050620002c181620003e0565b92915050565b600081519050620002d881620003fa565b92915050565b60008060408385031215620002f257600080fd5b60006200030285828601620002b0565b92505060206200031585828601620002c7565b9150509250929050565b60006200032c826200035b565b9050919050565b600062000340826200031f565b9050919050565b600062000354826200031f565b9050919050565b600073ffffffffffffffffffffffffffffffffffffffff82169050919050565b600060028204905060018216806200039457607f821691505b60208210811415620003ab57620003aa620003b1565b5b50919050565b7f4e487b7100000000000000000000000000000000000000000000000000000000600052602260045260246000fd5b620003eb8162000333565b8114620003f757600080fd5b50565b620004058162000347565b81146200041157600080fd5b50565b61365880620004246000396000f3fe608060405234801561001057600080fd5b50600436106101165760003560e01c8063556f8084116100a25780639c0af63a116100715780639c0af63a1461027d5780639e75689c1461029b578063f2fde38b146102b7578063f3c13387146102d3578063fe8723e1146102ef57610116565b8063556f80841461021b578063715018a6146102375780637a53fde6146102415780638da5cb5b1461025f57610116565b80633ccfd60b116100e95780633ccfd60b146101b35780633e3f2359146101bd5780634d1457f6146101c757806350baa622146101e357806351646869146101ff57610116565b8063144fa6d71461011b578063150b7a02146101375780632e5bb6ff146101675780633584284514610183575b600080fd5b610135600480360381019061013091906125f4565b61030b565b005b610151600480360381019061014c919061254b565b61038e565b60405161015e9190612f0a565b60405180910390f35b610181600480360381019061017c9190612687565b6103bc565b005b61019d60048036038101906101989190612687565b610405565b6040516101aa9190612f5b565b60405180910390f35b6101bb610467565b005b6101c56104b8565b005b6101e160048036038101906101dc9190612646565b61061c565b005b6101fd60048036038101906101f89190612687565b61063e565b005b610219600480360381019061021491906126d9565b6107e6565b005b610235600480360381019061023091906126d9565b6109fa565b005b61023f610eaf565b005b610249610ec3565b6040516102569190612ee8565b60405180910390f35b610267611223565b6040516102749190612e44565b60405180910390f35b61028561124c565b6040516102929190612f5b565b60405180910390f35b6102b560048036038101906102b09190612687565b6112da565b005b6102d160048036038101906102cc91906124f9565b611578565b005b6102ed60048036038101906102e8919061261d565b6115fc565b005b610309600480360381019061030491906126d9565b61167f565b005b610313611a61565b80600260006101000a81548173ffffffffffffffffffffffffffffffffffffffff021916908373ffffffffffffffffffffffffffffffffffffffff1602179055507fefc1fd16ea80a922086ee4e995739d59b025c1bcea6d1f67855747480c83214b816040516103839190612f25565b60405180910390a150565b60007f150b7a023d4804d13e8c85fb27262cb750cf6ba9f9dd3bb30d90f482ceeb4b1f905095945050505050565b6103c4611a61565b806005819055507f9fa979502e438dac613eeda5e69bdaf59a326dc09969a480e1e19078b24e15d1816040516103fa91906130fd565b60405180910390a150565b60606000610411611adf565b90506000815111610431576040518060200160405280600081525061045f565b8061043b84611b71565b600460405160200161044f93929190612e13565b6040516020818303038152906040525b915050919050565b61046f611a61565b3373ffffffffffffffffffffffffffffffffffffffff166108fc479081150290604051600060405180830381858888f193505050501580156104b5573d6000803e3d6000fd5b50565b6104c0611a61565b600260009054906101000a900473ffffffffffffffffffffffffffffffffffffffff1673ffffffffffffffffffffffffffffffffffffffff1663a9059cbb33600260009054906101000a900473ffffffffffffffffffffffffffffffffffffffff1673ffffffffffffffffffffffffffffffffffffffff166370a08231306040518263ffffffff1660e01b815260040161055a9190612e44565b60206040518083038186803b15801561057257600080fd5b505afa158015610586573d6000803e3d6000fd5b505050506040513d601f19601f820116820180604052508101906105aa91906126b0565b6040518363ffffffff1660e01b81526004016105c7929190612ebf565b602060405180830381600087803b1580156105e157600080fd5b505af11580156105f5573d6000803e3d6000fd5b505050506040513d601f19601f8201168201806040525081019061061991906125cb565b50565b610624611a61565b806003908051906020019061063a9291906122d3565b5050565b610646611a61565b80600260009054906101000a900473ffffffffffffffffffffffffffffffffffffffff1673ffffffffffffffffffffffffffffffffffffffff166370a08231306040518263ffffffff1660e01b81526004016106a29190612e44565b60206040518083038186803b1580156106ba57600080fd5b505afa1580156106ce573d6000803e3d6000fd5b505050506040513d601f19601f820116820180604052508101906106f291906126b0565b1015610733576040517f08c379a000000000000000000000000000000000000000000000000000000000815260040161072a9061301d565b60405180910390fd5b600260009054906101000a900473ffffffffffffffffffffffffffffffffffffffff1673ffffffffffffffffffffffffffffffffffffffff1663a9059cbb33836040518363ffffffff1660e01b8152600401610790929190612ebf565b602060405180830381600087803b1580156107aa57600080fd5b505af11580156107be573d6000803e3d6000fd5b505050506040513d601f19601f820116820180604052508101906107e291906125cb565b5050565b3073ffffffffffffffffffffffffffffffffffffffff16600160009054906101000a900473ffffffffffffffffffffffffffffffffffffffff1673ffffffffffffffffffffffffffffffffffffffff16636352211e846040518263ffffffff1660e01b815260040161085891906130fd565b60206040518083038186803b15801561087057600080fd5b505afa158015610884573d6000803e3d6000fd5b505050506040513d601f19601f820116820180604052508101906108a89190612522565b73ffffffffffffffffffffffffffffffffffffffff16146108fe576040517f08c379a00000000000000000000000000000000000000000000000000000000081526004016108f59061303d565b60405180910390fd5b3373ffffffffffffffffffffffffffffffffffffffff166006600084815260200190815260200160002060000160009054906101000a900473ffffffffffffffffffffffffffffffffffffffff1673ffffffffffffffffffffffffffffffffffffffff16146109a2576040517f08c379a00000000000000000000000000000000000000000000000000000000081526004016109999061305d565b60405180910390fd5b8060066000848152602001908152602001600020600101819055507fc7113691cf96332a4c71d0e3d8fc13f177dc22111131519552cd24a04fde1e5c82826040516109ee929190613118565b60405180910390a15050565b670de0b6b3a764000081610a0e919061326f565b600260009054906101000a900473ffffffffffffffffffffffffffffffffffffffff1673ffffffffffffffffffffffffffffffffffffffff166370a08231336040518263ffffffff1660e01b8152600401610a699190612e44565b60206040518083038186803b158015610a8157600080fd5b505afa158015610a95573d6000803e3d6000fd5b505050506040513d601f19601f82011682018060405250810190610ab991906126b0565b1015610afa576040517f08c379a0000000000000000000000000000000000000000000000000000000008152600401610af19061301d565b60405180910390fd5b3073ffffffffffffffffffffffffffffffffffffffff16600160009054906101000a900473ffffffffffffffffffffffffffffffffffffffff1673ffffffffffffffffffffffffffffffffffffffff16636352211e846040518263ffffffff1660e01b8152600401610b6c91906130fd565b60206040518083038186803b158015610b8457600080fd5b505afa158015610b98573d6000803e3d6000fd5b505050506040513d601f19601f82011682018060405250810190610bbc9190612522565b73ffffffffffffffffffffffffffffffffffffffff1614610c12576040517f08c379a0000000000000000000000000000000000000000000000000000000008152600401610c099061303d565b60405180910390fd5b8060066000848152602001908152602001600020600101541115610c6b576040517f08c379a0000000000000000000000000000000000000000000000000000000008152600401610c6290612fdd565b60405180910390fd5b610cac600260009054906101000a900473ffffffffffffffffffffffffffffffffffffffff163330670de0b6b3a764000085610ca7919061326f565b611c95565b600260009054906101000a900473ffffffffffffffffffffffffffffffffffffffff1673ffffffffffffffffffffffffffffffffffffffff1663a9059cbb6006600085815260200190815260200160002060000160009054906101000a900473ffffffffffffffffffffffffffffffffffffffff1660646005546064610d3291906132c9565b670de0b6b3a764000086610d46919061326f565b610d50919061326f565b610d5a919061323e565b6040518363ffffffff1660e01b8152600401610d77929190612e5f565b602060405180830381600087803b158015610d9157600080fd5b505af1158015610da5573d6000803e3d6000fd5b505050506040513d601f19601f82011682018060405250810190610dc991906125cb565b50600160009054906101000a900473ffffffffffffffffffffffffffffffffffffffff1673ffffffffffffffffffffffffffffffffffffffff166342842e0e3033856040518463ffffffff1660e01b8152600401610e2993929190612e88565b600060405180830381600087803b158015610e4357600080fd5b505af1158015610e57573d6000803e3d6000fd5b505050503373ffffffffffffffffffffffffffffffffffffffff167f5d963241241cfe9e161d13500d628058954b3febfde03e4b1f4071370e72fe2b8383604051610ea3929190613118565b60405180910390a25050565b610eb7611a61565b610ec16000611d1e565b565b60606000600160009054906101000a900473ffffffffffffffffffffffffffffffffffffffff1673ffffffffffffffffffffffffffffffffffffffff166370a08231306040518263ffffffff1660e01b8152600401610f229190612e44565b60206040518083038186803b158015610f3a57600080fd5b505afa158015610f4e573d6000803e3d6000fd5b505050506040513d601f19601f82011682018060405250810190610f7291906126b0565b905060008167ffffffffffffffff811115610fb6577f4e487b7100000000000000000000000000000000000000000000000000000000600052604160045260246000fd5b604051908082528060200260200182016040528015610fef57816020015b610fdc612359565b815260200190600190039081610fd45790505b50905060005b8281101561121a5760066000600160009054906101000a900473ffffffffffffffffffffffffffffffffffffffff1673ffffffffffffffffffffffffffffffffffffffff16632f745c5930856040518363ffffffff1660e01b815260040161105e929190612ebf565b60206040518083038186803b15801561107657600080fd5b505afa15801561108a573d6000803e3d6000fd5b505050506040513d601f19601f820116820180604052508101906110ae91906126b0565b81526020019081526020016000206040518060800160405290816000820160009054906101000a900473ffffffffffffffffffffffffffffffffffffffff1673ffffffffffffffffffffffffffffffffffffffff1673ffffffffffffffffffffffffffffffffffffffff168152602001600182015481526020016002820154815260200160038201805461114190613467565b80601f016020809104026020016040519081016040528092919081815260200182805461116d90613467565b80156111ba5780601f1061118f576101008083540402835291602001916111ba565b820191906000526020600020905b81548152906001019060200180831161119d57829003601f168201915b5050505050815250508282815181106111fc577f4e487b7100000000000000000000000000000000000000000000000000000000600052603260045260246000fd5b6020026020010181905250808061121290613499565b915050610ff5565b50809250505090565b60008060009054906101000a900473ffffffffffffffffffffffffffffffffffffffff16905090565b6004805461125990613467565b80601f016020809104026020016040519081016040528092919081815260200182805461128590613467565b80156112d25780601f106112a7576101008083540402835291602001916112d2565b820191906000526020600020905b8154815290600101906020018083116112b557829003601f168201915b505050505081565b3073ffffffffffffffffffffffffffffffffffffffff16600160009054906101000a900473ffffffffffffffffffffffffffffffffffffffff1673ffffffffffffffffffffffffffffffffffffffff16636352211e836040518263ffffffff1660e01b815260040161134c91906130fd565b60206040518083038186803b15801561136457600080fd5b505afa158015611378573d6000803e3d6000fd5b505050506040513d601f19601f8201168201806040525081019061139c9190612522565b73ffffffffffffffffffffffffffffffffffffffff16146113f2576040517f08c379a00000000000000000000000000000000000000000000000000000000081526004016113e99061303d565b60405180910390fd5b3373ffffffffffffffffffffffffffffffffffffffff166006600083815260200190815260200160002060000160009054906101000a900473ffffffffffffffffffffffffffffffffffffffff1673ffffffffffffffffffffffffffffffffffffffff1614611496576040517f08c379a000000000000000000000000000000000000000000000000000000000815260040161148d90612f7d565b60405180910390fd5b600160009054906101000a900473ffffffffffffffffffffffffffffffffffffffff1673ffffffffffffffffffffffffffffffffffffffff166342842e0e3033846040518463ffffffff1660e01b81526004016114f593929190612e88565b600060405180830381600087803b15801561150f57600080fd5b505af1158015611523573d6000803e3d6000fd5b505050503373ffffffffffffffffffffffffffffffffffffffff167f995270fd4f93cea033cdf0da430f296d82414eb9a7d99b6b391bb3e8a1ee9fc28260405161156d91906130fd565b60405180910390a250565b611580611a61565b600073ffffffffffffffffffffffffffffffffffffffff168173ffffffffffffffffffffffffffffffffffffffff1614156115f0576040517f08c379a00000000000000000000000000000000000000000000000000000000081526004016115e790612fbd565b60405180910390fd5b6115f981611d1e565b50565b611604611a61565b80600160006101000a81548173ffffffffffffffffffffffffffffffffffffffff021916908373ffffffffffffffffffffffffffffffffffffffff1602179055507ff8525b9383ba5cc1b196c9a879bcbe7911913876aaff159ec424e1bb6136fff2816040516116749190612f40565b60405180910390a150565b3373ffffffffffffffffffffffffffffffffffffffff16600160009054906101000a900473ffffffffffffffffffffffffffffffffffffffff1673ffffffffffffffffffffffffffffffffffffffff16636352211e846040518263ffffffff1660e01b81526004016116f191906130fd565b60206040518083038186803b15801561170957600080fd5b505afa15801561171d573d6000803e3d6000fd5b505050506040513d601f19601f820116820180604052508101906117419190612522565b73ffffffffffffffffffffffffffffffffffffffff1614611797576040517f08c379a000000000000000000000000000000000000000000000000000000000815260040161178e9061309d565b60405180910390fd5b3073ffffffffffffffffffffffffffffffffffffffff16600160009054906101000a900473ffffffffffffffffffffffffffffffffffffffff1673ffffffffffffffffffffffffffffffffffffffff1663081812fc846040518263ffffffff1660e01b815260040161180991906130fd565b60206040518083038186803b15801561182157600080fd5b505afa158015611835573d6000803e3d6000fd5b505050506040513d601f19601f820116820180604052508101906118599190612522565b73ffffffffffffffffffffffffffffffffffffffff16146118af576040517f08c379a00000000000000000000000000000000000000000000000000000000081526004016118a690612f9d565b60405180910390fd5b60405180608001604052803373ffffffffffffffffffffffffffffffffffffffff1681526020018281526020018381526020016118eb84610405565b8152506006600084815260200190815260200160002060008201518160000160006101000a81548173ffffffffffffffffffffffffffffffffffffffff021916908373ffffffffffffffffffffffffffffffffffffffff160217905550602082015181600101556040820151816002015560608201518160030190805190602001906119789291906122d3565b50905050600160009054906101000a900473ffffffffffffffffffffffffffffffffffffffff1673ffffffffffffffffffffffffffffffffffffffff166342842e0e3330856040518463ffffffff1660e01b81526004016119db93929190612e88565b600060405180830381600087803b1580156119f557600080fd5b505af1158015611a09573d6000803e3d6000fd5b505050503373ffffffffffffffffffffffffffffffffffffffff167f6cd52e2afd4c9fdb90f6226975fb688c697f05f2c4306f5bff7ea8cd941ed7ce8383604051611a55929190613118565b60405180910390a25050565b611a69611de2565b73ffffffffffffffffffffffffffffffffffffffff16611a87611223565b73ffffffffffffffffffffffffffffffffffffffff1614611add576040517f08c379a0000000000000000000000000000000000000000000000000000000008152600401611ad49061307d565b60405180910390fd5b565b606060038054611aee90613467565b80601f0160208091040260200160405190810160405280929190818152602001828054611b1a90613467565b8015611b675780601f10611b3c57610100808354040283529160200191611b67565b820191906000526020600020905b815481529060010190602001808311611b4a57829003601f168201915b5050505050905090565b606060006001611b8084611dea565b01905060008167ffffffffffffffff811115611bc5577f4e487b7100000000000000000000000000000000000000000000000000000000600052604160045260246000fd5b6040519080825280601f01601f191660200182016040528015611bf75781602001600182028036833780820191505090505b509050600082602001820190505b600115611c8a578080600190039150507f3031323334353637383961626364656600000000000000000000000000000000600a86061a8153600a8581611c74577f4e487b7100000000000000000000000000000000000000000000000000000000600052601260045260246000fd5b0494506000851415611c8557611c8a565b611c05565b819350505050919050565b611d18846323b872dd60e01b858585604051602401611cb693929190612e88565b604051602081830303815290604052907bffffffffffffffffffffffffffffffffffffffffffffffffffffffff19166020820180517bffffffffffffffffffffffffffffffffffffffffffffffffffffffff8381831617835250505050612021565b50505050565b60008060009054906101000a900473ffffffffffffffffffffffffffffffffffffffff169050816000806101000a81548173ffffffffffffffffffffffffffffffffffffffff021916908373ffffffffffffffffffffffffffffffffffffffff1602179055508173ffffffffffffffffffffffffffffffffffffffff168173ffffffffffffffffffffffffffffffffffffffff167f8be0079c531659141344cd1fd0a4f28419497f9722a3daafe3b4186f6b6457e060405160405180910390a35050565b600033905090565b600080600090507a184f03e93ff9f4daa797ed6e38ed64bf6a1f0100000000000000008310611e6e577a184f03e93ff9f4daa797ed6e38ed64bf6a1f0100000000000000008381611e64577f4e487b7100000000000000000000000000000000000000000000000000000000600052601260045260246000fd5b0492506040810190505b6d04ee2d6d415b85acef81000000008310611ed1576d04ee2d6d415b85acef81000000008381611ec7577f4e487b7100000000000000000000000000000000000000000000000000000000600052601260045260246000fd5b0492506020810190505b662386f26fc100008310611f2657662386f26fc100008381611f1c577f4e487b7100000000000000000000000000000000000000000000000000000000600052601260045260246000fd5b0492506010810190505b6305f5e1008310611f75576305f5e1008381611f6b577f4e487b7100000000000000000000000000000000000000000000000000000000600052601260045260246000fd5b0492506008810190505b6127108310611fc0576127108381611fb6577f4e487b7100000000000000000000000000000000000000000000000000000000600052601260045260246000fd5b0492506004810190505b606483106120095760648381611fff577f4e487b7100000000000000000000000000000000000000000000000000000000600052601260045260246000fd5b0492506002810190505b600a8310612018576001810190505b80915050919050565b6000612083826040518060400160405280602081526020017f5361666545524332303a206c6f772d6c6576656c2063616c6c206661696c65648152508573ffffffffffffffffffffffffffffffffffffffff166120e99092919063ffffffff16565b90506000815114806120a55750808060200190518101906120a491906125cb565b5b6120e4576040517f08c379a00000000000000000000000000000000000000000000000000000000081526004016120db906130dd565b60405180910390fd5b505050565b60606120f88484600085612101565b90509392505050565b606082471015612146576040517f08c379a000000000000000000000000000000000000000000000000000000000815260040161213d90612ffd565b60405180910390fd5b6000808673ffffffffffffffffffffffffffffffffffffffff16858760405161216f9190612dfc565b60006040518083038185875af1925050503d80600081146121ac576040519150601f19603f3d011682016040523d82523d6000602084013e6121b1565b606091505b50915091506121c2878383876121ce565b92505050949350505050565b6060831561223157600083511415612229576121e985612244565b612228576040517f08c379a000000000000000000000000000000000000000000000000000000000815260040161221f906130bd565b60405180910390fd5b5b82905061223c565b61223b8383612283565b5b949350505050565b6000808273ffffffffffffffffffffffffffffffffffffffff16803b806020016040519081016040528181526000908060200190933c51119050919050565b6000825111156122965781518083602001fd5b806040517f08c379a00000000000000000000000000000000000000000000000000000000081526004016122ca9190612f5b565b60405180910390fd5b8280546122df90613467565b90600052602060002090601f0160209004810192826123015760008555612348565b82601f1061231a57805160ff1916838001178555612348565b82800160010185558215612348579182015b8281111561234757825182559160200191906001019061232c565b5b5090506123559190612397565b5090565b6040518060800160405280600073ffffffffffffffffffffffffffffffffffffffff1681526020016000815260200160008152602001606081525090565b5b808211156123b0576000816000905550600101612398565b5090565b60006123c76123c284613172565b613141565b9050828152602081018484840111156123df57600080fd5b6123ea848285613425565b509392505050565b600081359050612401816135af565b92915050565b600081519050612416816135af565b92915050565b60008151905061242b816135c6565b92915050565b60008083601f84011261244357600080fd5b8235905067ffffffffffffffff81111561245c57600080fd5b60208301915083600182028301111561247457600080fd5b9250929050565b60008135905061248a816135dd565b92915050565b60008135905061249f816135f4565b92915050565b600082601f8301126124b657600080fd5b81356124c68482602086016123b4565b91505092915050565b6000813590506124de8161360b565b92915050565b6000815190506124f38161360b565b92915050565b60006020828403121561250b57600080fd5b6000612519848285016123f2565b91505092915050565b60006020828403121561253457600080fd5b600061254284828501612407565b91505092915050565b60008060008060006080868803121561256357600080fd5b6000612571888289016123f2565b9550506020612582888289016123f2565b9450506040612593888289016124cf565b935050606086013567ffffffffffffffff8111156125b057600080fd5b6125bc88828901612431565b92509250509295509295909350565b6000602082840312156125dd57600080fd5b60006125eb8482850161241c565b91505092915050565b60006020828403121561260657600080fd5b60006126148482850161247b565b91505092915050565b60006020828403121561262f57600080fd5b600061263d84828501612490565b91505092915050565b60006020828403121561265857600080fd5b600082013567ffffffffffffffff81111561267257600080fd5b61267e848285016124a5565b91505092915050565b60006020828403121561269957600080fd5b60006126a7848285016124cf565b91505092915050565b6000602082840312156126c257600080fd5b60006126d0848285016124e4565b91505092915050565b600080604083850312156126ec57600080fd5b60006126fa858286016124cf565b925050602061270b858286016124cf565b9150509250929050565b60006127218383612d7b565b905092915050565b612732816133a7565b82525050565b6127418161330f565b82525050565b612750816132fd565b82525050565b6000612761826131c7565b61276b81856131f5565b93508360208202850161277d856131a2565b8060005b858110156127b9578484038952815161279a8582612715565b94506127a5836131e8565b925060208a01995050600181019050612781565b50829750879550505050505092915050565b6127d48161332d565b82525050565b60006127e5826131d2565b6127ef8185613206565b93506127ff818560208601613434565b80840191505092915050565b612814816133b9565b82525050565b612823816133dd565b82525050565b6000612834826131dd565b61283e8185613211565b935061284e818560208601613434565b6128578161359e565b840191505092915050565b600061286d826131dd565b6128778185613222565b9350612887818560208601613434565b6128908161359e565b840191505092915050565b60006128a6826131dd565b6128b08185613233565b93506128c0818560208601613434565b80840191505092915050565b600081546128d981613467565b6128e38186613233565b945060018216600081146128fe576001811461290f57612942565b60ff19831686528186019350612942565b612918856131b2565b60005b8381101561293a5781548189015260018201915060208101905061291b565b838801955050505b50505092915050565b6000612958601e83613222565b91507f4f6e6c79206f776e65722063616e20756e6c6973742074686973204e465400006000830152602082019050919050565b6000612998603083613222565b91507f4d61726b6574706c616365206973206e6f7420617070726f76656420746f207460008301527f72616e736665722074686973204e4654000000000000000000000000000000006020830152604082019050919050565b60006129fe602683613222565b91507f4f776e61626c653a206e6577206f776e657220697320746865207a65726f206160008301527f64647265737300000000000000000000000000000000000000000000000000006020830152604082019050919050565b6000612a64602283613222565b91507f4d696e696d756d20707269636520686173206e6f74206265656e20726561636860008301527f65640000000000000000000000000000000000000000000000000000000000006020830152604082019050919050565b6000612aca602683613222565b91507f416464726573733a20696e73756666696369656e742062616c616e636520666f60008301527f722063616c6c00000000000000000000000000000000000000000000000000006020830152604082019050919050565b6000612b30601c83613222565b91507f496e73756666696369656e74206163636f756e742062616c616e6365000000006000830152602082019050919050565b6000612b70602583613222565b91507f54686973204e465420646f65736e2774206578697374206f6e206d61726b657460008301527f706c6163650000000000000000000000000000000000000000000000000000006020830152604082019050919050565b6000612bd6602783613222565b91507f4f6e6c79206f776e65722063616e20757064617465207072696365206f66207460008301527f686973204e4654000000000000000000000000000000000000000000000000006020830152604082019050919050565b6000612c3c602083613222565b91507f4f776e61626c653a2063616c6c6572206973206e6f7420746865206f776e65726000830152602082019050919050565b6000612c7c602183613222565b91507f596f7520617265206e6f7420746865206f776e6572206f662074686973204e4660008301527f54000000000000000000000000000000000000000000000000000000000000006020830152604082019050919050565b6000612ce2601d83613222565b91507f416464726573733a2063616c6c20746f206e6f6e2d636f6e74726163740000006000830152602082019050919050565b6000612d22602a83613222565b91507f5361666545524332303a204552433230206f7065726174696f6e20646964206e60008301527f6f742073756363656564000000000000000000000000000000000000000000006020830152604082019050919050565b6000608083016000830151612d936000860182612738565b506020830151612da66020860182612dde565b506040830151612db96040860182612dde565b5060608301518482036060860152612dd18282612829565b9150508091505092915050565b612de78161339d565b82525050565b612df68161339d565b82525050565b6000612e0882846127da565b915081905092915050565b6000612e1f828661289b565b9150612e2b828561289b565b9150612e3782846128cc565b9150819050949350505050565b6000602082019050612e596000830184612747565b92915050565b6000604082019050612e746000830185612729565b612e816020830184612ded565b9392505050565b6000606082019050612e9d6000830186612747565b612eaa6020830185612747565b612eb76040830184612ded565b949350505050565b6000604082019050612ed46000830185612747565b612ee16020830184612ded565b9392505050565b60006020820190508181036000830152612f028184612756565b905092915050565b6000602082019050612f1f60008301846127cb565b92915050565b6000602082019050612f3a600083018461280b565b92915050565b6000602082019050612f55600083018461281a565b92915050565b60006020820190508181036000830152612f758184612862565b905092915050565b60006020820190508181036000830152612f968161294b565b9050919050565b60006020820190508181036000830152612fb68161298b565b9050919050565b60006020820190508181036000830152612fd6816129f1565b9050919050565b60006020820190508181036000830152612ff681612a57565b9050919050565b6000602082019050818103600083015261301681612abd565b9050919050565b6000602082019050818103600083015261303681612b23565b9050919050565b6000602082019050818103600083015261305681612b63565b9050919050565b6000602082019050818103600083015261307681612bc9565b9050919050565b6000602082019050818103600083015261309681612c2f565b9050919050565b600060208201905081810360008301526130b681612c6f565b9050919050565b600060208201905081810360008301526130d681612cd5565b9050919050565b600060208201905081810360008301526130f681612d15565b9050919050565b60006020820190506131126000830184612ded565b92915050565b600060408201905061312d6000830185612ded565b61313a6020830184612ded565b9392505050565b6000604051905081810181811067ffffffffffffffff821117156131685761316761356f565b5b8060405250919050565b600067ffffffffffffffff82111561318d5761318c61356f565b5b601f19601f8301169050602081019050919050565b6000819050602082019050919050565b60008190508160005260206000209050919050565b600081519050919050565b600081519050919050565b600081519050919050565b6000602082019050919050565b600082825260208201905092915050565b600081905092915050565b600082825260208201905092915050565b600082825260208201905092915050565b600081905092915050565b60006132498261339d565b91506132548361339d565b92508261326457613263613511565b5b828204905092915050565b600061327a8261339d565b91506132858361339d565b9250817fffffffffffffffffffffffffffffffffffffffffffffffffffffffffffffffff04831182151516156132be576132bd6134e2565b5b828202905092915050565b60006132d48261339d565b91506132df8361339d565b9250828210156132f2576132f16134e2565b5b828203905092915050565b60006133088261337d565b9050919050565b600061331a8261337d565b9050919050565b60008115159050919050565b60007fffffffff0000000000000000000000000000000000000000000000000000000082169050919050565b6000613364826132fd565b9050919050565b6000613376826132fd565b9050919050565b600073ffffffffffffffffffffffffffffffffffffffff82169050919050565b6000819050919050565b60006133b282613401565b9050919050565b60006133c4826133cb565b9050919050565b60006133d68261337d565b9050919050565b60006133e8826133ef565b9050919050565b60006133fa8261337d565b9050919050565b600061340c82613413565b9050919050565b600061341e8261337d565b9050919050565b82818337600083830152505050565b60005b83811015613452578082015181840152602081019050613437565b83811115613461576000848401525b50505050565b6000600282049050600182168061347f57607f821691505b6020821081141561349357613492613540565b5b50919050565b60006134a48261339d565b91507fffffffffffffffffffffffffffffffffffffffffffffffffffffffffffffffff8214156134d7576134d66134e2565b5b600182019050919050565b7f4e487b7100000000000000000000000000000000000000000000000000000000600052601160045260246000fd5b7f4e487b7100000000000000000000000000000000000000000000000000000000600052601260045260246000fd5b7f4e487b7100000000000000000000000000000000000000000000000000000000600052602260045260246000fd5b7f4e487b7100000000000000000000000000000000000000000000000000000000600052604160045260246000fd5b6000601f19601f8301169050919050565b6135b8816132fd565b81146135c357600080fd5b50565b6135cf81613321565b81146135da57600080fd5b50565b6135e681613359565b81146135f157600080fd5b50565b6135fd8161336b565b811461360857600080fd5b50565b6136148161339d565b811461361f57600080fd5b5056fea2646970667358221220d0c4088f10564db412feed48f0c44b169197904edd02b77abac3dfc107a34d5964736f6c63430008000033",
  "linkReferences": {},
  "deployedLinkReferences": {}
}