{
  "_format": "hh-sol-artifact-1",
  "contractName": "SimMarketplace",
  "sourceName": "contracts/SimMarketplace.sol",
  "abi": [
    {
      "inputs": [
        {
          "internalType": "contract IERC20",
          "name": "_token",
          "type": "address"
        },
        {
          "internalType": "contract IERC721Enumerable",
          "name": "_nft",
          "type": "address"
        }
      ],
      "stateMutability": "nonpayable",
      "type": "constructor"
    },
    {
      "anonymous": false,
      "inputs": [
        {
          "indexed": true,
          "internalType": "address",
          "name": "_from",
          "type": "address"
        },
        {
          "indexed": false,
          "internalType": "uint256",
          "name": "_tokenId",
          "type": "uint256"
        },
        {
          "indexed": false,
          "internalType": "uint256",
          "name": "_price",
          "type": "uint256"
        }
      ],
      "name": "BuyNFT",
      "type": "event"
    },
    {
      "anonymous": false,
      "inputs": [
        {
          "indexed": true,
          "internalType": "address",
          "name": "_from",
          "type": "address"
        },
        {
          "indexed": false,
          "internalType": "uint256",
          "name": "_tokenId",
          "type": "uint256"
        },
        {
          "indexed": false,
          "internalType": "uint256",
          "name": "_price",
          "type": "uint256"
        }
      ],
      "name": "ListNFT",
      "type": "event"
    },
    {
      "anonymous": false,
      "inputs": [
        {
          "indexed": true,
          "internalType": "address",
          "name": "previousOwner",
          "type": "address"
        },
        {
          "indexed": true,
          "internalType": "address",
          "name": "newOwner",
          "type": "address"
        }
      ],
      "name": "OwnershipTransferred",
      "type": "event"
    },
    {
      "anonymous": false,
      "inputs": [
        {
          "indexed": false,
          "internalType": "contract IERC721Enumerable",
          "name": "_nft",
          "type": "address"
        }
      ],
      "name": "SetNFT",
      "type": "event"
    },
    {
      "anonymous": false,
      "inputs": [
        {
          "indexed": false,
          "internalType": "uint256",
          "name": "_tax",
          "type": "uint256"
        }
      ],
      "name": "SetTax",
      "type": "event"
    },
    {
      "anonymous": false,
      "inputs": [
        {
          "indexed": false,
          "internalType": "contract IERC20",
          "name": "_token",
          "type": "address"
        }
      ],
      "name": "SetToken",
      "type": "event"
    },
    {
      "anonymous": false,
      "inputs": [
        {
          "indexed": true,
          "internalType": "address",
          "name": "_from",
          "type": "address"
        },
        {
          "indexed": false,
          "internalType": "uint256",
          "name": "_tokenId",
          "type": "uint256"
        }
      ],
      "name": "UnlistNFT",
      "type": "event"
    },
    {
      "anonymous": false,
      "inputs": [
        {
          "indexed": false,
          "internalType": "uint256",
          "name": "_tokenId",
          "type": "uint256"
        },
        {
          "indexed": false,
          "internalType": "uint256",
          "name": "_price",
          "type": "uint256"
        }
      ],
      "name": "UpdateListingNFTPrice",
      "type": "event"
    },
    {
      "inputs": [],
      "name": "baseExtensionPng",
      "outputs": [
        {
          "internalType": "string",
          "name": "",
          "type": "string"
        }
      ],
      "stateMutability": "view",
      "type": "function"
    },
    {
      "inputs": [
        {
          "internalType": "uint256",
          "name": "",
          "type": "uint256"
        }
      ],
      "name": "bundleInfo",
      "outputs": [
        {
          "internalType": "address payable",
          "name": "author",
          "type": "address"
        },
        {
          "internalType": "uint256",
          "name": "price",
          "type": "uint256"
        }
      ],
      "stateMutability": "view",
      "type": "function"
    },
    {
      "inputs": [
        {
          "internalType": "uint256[]",
          "name": "_tokenId",
          "type": "uint256[]"
        },
        {
          "internalType": "uint256",
          "name": "bundlePrice",
          "type": "uint256"
        }
      ],
      "name": "bundleList",
      "outputs": [],
      "stateMutability": "nonpayable",
      "type": "function"
    },
    {
      "inputs": [
        {
          "internalType": "uint256",
          "name": "",
          "type": "uint256"
        }
      ],
      "name": "bundles",
      "outputs": [
        {
          "internalType": "uint256",
          "name": "",
          "type": "uint256"
        }
      ],
      "stateMutability": "view",
      "type": "function"
    },
    {
      "inputs": [
        {
          "internalType": "uint256",
          "name": "bundleId",
          "type": "uint256"
        }
      ],
      "name": "buyBundle",
      "outputs": [],
      "stateMutability": "payable",
      "type": "function"
    },
    {
      "inputs": [
        {
          "internalType": "uint256",
          "name": "_tokenId",
          "type": "uint256"
        },
        {
          "internalType": "uint256",
          "name": "_price",
          "type": "uint256"
        }
      ],
      "name": "buyNft",
      "outputs": [],
      "stateMutability": "nonpayable",
      "type": "function"
    },
    {
      "inputs": [
        {
          "internalType": "uint256",
          "name": "bundleId",
          "type": "uint256"
        }
      ],
      "name": "getBundleInfo",
      "outputs": [
        {
          "internalType": "address",
          "name": "",
          "type": "address"
        },
        {
          "internalType": "uint256",
          "name": "",
          "type": "uint256"
        },
        {
          "internalType": "uint256[]",
          "name": "",
          "type": "uint256[]"
        }
      ],
      "stateMutability": "view",
      "type": "function"
    },
    {
      "inputs": [],
      "name": "getListedNft",
      "outputs": [
        {
          "components": [
            {
              "internalType": "address payable",
              "name": "author",
              "type": "address"
            },
            {
              "internalType": "uint256",
              "name": "price",
              "type": "uint256"
            },
            {
              "internalType": "uint256",
              "name": "tokenId",
              "type": "uint256"
            },
            {
              "internalType": "string",
              "name": "tokenPNG",
              "type": "string"
            }
          ],
          "internalType": "struct SimMarketplace.ListDetail[]",
          "name": "",
          "type": "tuple[]"
        }
      ],
      "stateMutability": "view",
      "type": "function"
    },
    {
      "inputs": [
        {
          "internalType": "uint256",
          "name": "_tokenId",
          "type": "uint256"
        },
        {
          "internalType": "uint256",
          "name": "_price",
          "type": "uint256"
        }
      ],
      "name": "listNft",
      "outputs": [],
      "stateMutability": "nonpayable",
      "type": "function"
    },
    {
      "inputs": [
        {
          "internalType": "uint256[]",
          "name": "_tokenId",
          "type": "uint256[]"
        },
        {
          "internalType": "uint256[]",
          "name": "_price",
          "type": "uint256[]"
        }
      ],
      "name": "multiListNft",
      "outputs": [],
      "stateMutability": "nonpayable",
      "type": "function"
    },
    {
      "inputs": [
        {
          "internalType": "address",
          "name": "",
          "type": "address"
        },
        {
          "internalType": "address",
          "name": "",
          "type": "address"
        },
        {
          "internalType": "uint256",
          "name": "",
          "type": "uint256"
        },
        {
          "internalType": "bytes",
          "name": "",
          "type": "bytes"
        }
      ],
      "name": "onERC721Received",
      "outputs": [
        {
          "internalType": "bytes4",
          "name": "",
          "type": "bytes4"
        }
      ],
      "stateMutability": "pure",
      "type": "function"
    },
    {
      "inputs": [],
      "name": "owner",
      "outputs": [
        {
          "internalType": "address",
          "name": "",
          "type": "address"
        }
      ],
      "stateMutability": "view",
      "type": "function"
    },
    {
      "inputs": [],
      "name": "renounceOwnership",
      "outputs": [],
      "stateMutability": "nonpayable",
      "type": "function"
    },
    {
      "inputs": [
        {
          "internalType": "string",
          "name": "_newUrlPng",
          "type": "string"
        }
      ],
      "name": "setBasePng",
      "outputs": [],
      "stateMutability": "nonpayable",
      "type": "function"
    },
    {
      "inputs": [
        {
          "internalType": "contract IERC721Enumerable",
          "name": "_nft",
          "type": "address"
        }
      ],
      "name": "setNft",
      "outputs": [],
      "stateMutability": "nonpayable",
      "type": "function"
    },
    {
      "inputs": [
        {
          "internalType": "uint256",
          "name": "_tax",
          "type": "uint256"
        }
      ],
      "name": "setTax",
      "outputs": [],
      "stateMutability": "nonpayable",
      "type": "function"
    },
    {
      "inputs": [
        {
          "internalType": "contract IERC20",
          "name": "_token",
          "type": "address"
        }
      ],
      "name": "setToken",
      "outputs": [],
      "stateMutability": "nonpayable",
      "type": "function"
    },
    {
      "inputs": [
        {
          "internalType": "uint256",
          "name": "tokenId",
          "type": "uint256"
        }
      ],
      "name": "tokenPNG",
      "outputs": [
        {
          "internalType": "string",
          "name": "",
          "type": "string"
        }
      ],
      "stateMutability": "view",
      "type": "function"
    },
    {
      "inputs": [
        {
          "internalType": "address",
          "name": "newOwner",
          "type": "address"
        }
      ],
      "name": "transferOwnership",
      "outputs": [],
      "stateMutability": "nonpayable",
      "type": "function"
    },
    {
      "inputs": [
        {
          "internalType": "uint256",
          "name": "_tokenId",
          "type": "uint256"
        }
      ],
      "name": "unlistNft",
      "outputs": [],
      "stateMutability": "nonpayable",
      "type": "function"
    },
    {
      "inputs": [
        {
          "internalType": "uint256",
          "name": "bundleId",
          "type": "uint256"
        }
      ],
      "name": "unlistbundle",
      "outputs": [],
      "stateMutability": "nonpayable",
      "type": "function"
    },
    {
      "inputs": [
        {
          "internalType": "uint256",
          "name": "_tokenId",
          "type": "uint256"
        },
        {
          "internalType": "uint256",
          "name": "_price",
          "type": "uint256"
        }
      ],
      "name": "updateListingNftPrice",
      "outputs": [],
      "stateMutability": "nonpayable",
      "type": "function"
    },
    {
      "inputs": [],
      "name": "withdraw",
      "outputs": [],
      "stateMutability": "nonpayable",
      "type": "function"
    },
    {
      "inputs": [],
      "name": "withdrawErc20",
      "outputs": [],
      "stateMutability": "nonpayable",
      "type": "function"
    },
    {
      "inputs": [
        {
          "internalType": "uint256",
          "name": "amount",
          "type": "uint256"
        }
      ],
      "name": "withdrawToken",
      "outputs": [],
      "stateMutability": "nonpayable",
      "type": "function"
    },
    {
      "stateMutability": "payable",
      "type": "receive"
    }
  ],
  "bytecode": "0x60806040526040518060400160405280600481526020017f2e706e6700000000000000000000000000000000000000000000000000000000815250600490805190602001906200005192919062000200565b50600a6007553480156200006457600080fd5b50604051620052703803806200527083398181016040528101906200008a9190620002de565b620000aa6200009e6200013460201b60201c565b6200013c60201b60201c565b80600160006101000a81548173ffffffffffffffffffffffffffffffffffffffff021916908373ffffffffffffffffffffffffffffffffffffffff16021790555081600260006101000a81548173ffffffffffffffffffffffffffffffffffffffff021916908373ffffffffffffffffffffffffffffffffffffffff160217905550505062000414565b600033905090565b60008060009054906101000a900473ffffffffffffffffffffffffffffffffffffffff169050816000806101000a81548173ffffffffffffffffffffffffffffffffffffffff021916908373ffffffffffffffffffffffffffffffffffffffff1602179055508173ffffffffffffffffffffffffffffffffffffffff168173ffffffffffffffffffffffffffffffffffffffff167f8be0079c531659141344cd1fd0a4f28419497f9722a3daafe3b4186f6b6457e060405160405180910390a35050565b8280546200020e906200037b565b90600052602060002090601f0160209004810192826200023257600085556200027e565b82601f106200024d57805160ff19168380011785556200027e565b828001600101855582156200027e579182015b828111156200027d57825182559160200191906001019062000260565b5b5090506200028d919062000291565b5090565b5b80821115620002ac57600081600090555060010162000292565b5090565b600081519050620002c181620003e0565b92915050565b600081519050620002d881620003fa565b92915050565b60008060408385031215620002f257600080fd5b60006200030285828601620002b0565b92505060206200031585828601620002c7565b9150509250929050565b60006200032c826200035b565b9050919050565b600062000340826200031f565b9050919050565b600062000354826200031f565b9050919050565b600073ffffffffffffffffffffffffffffffffffffffff82169050919050565b600060028204905060018216806200039457607f821691505b60208210811415620003ab57620003aa620003b1565b5b50919050565b7f4e487b7100000000000000000000000000000000000000000000000000000000600052602260045260246000fd5b620003eb8162000333565b8114620003f757600080fd5b50565b620004058162000347565b81146200041157600080fd5b50565b614e4c80620004246000396000f3fe60806040526004361061016a5760003560e01c806351646869116100d15780639e75689c1161008a578063dd9d82b411610064578063dd9d82b41461050a578063f2fde38b14610526578063f3c133871461054f578063fe8723e11461057857610171565b80639e75689c1461047b578063ac1e944d146104a4578063cf19384b146104cd57610171565b80635164686914610391578063556f8084146103ba578063715018a6146103e35780637a53fde6146103fa5780638da5cb5b146104255780639c0af63a1461045057610171565b80633ccfd60b116101235780633ccfd60b146102aa5780633cf51c08146102c15780633e3f2359146102ea5780634d1457f6146103015780634f2e789c1461032a57806350baa6221461036857610171565b806312d18d8014610176578063144fa6d7146101b5578063150b7a02146101de5780631a88c09b1461021b5780632e5bb6ff14610244578063358428451461026d57610171565b3661017157005b600080fd5b34801561018257600080fd5b5061019d60048036038101906101989190613c4a565b6105a1565b6040516101ac93929190614625565b60405180910390f35b3480156101c157600080fd5b506101dc60048036038101906101d79190613bb7565b61064b565b005b3480156101ea57600080fd5b5061020560048036038101906102009190613a41565b6106ce565b6040516102129190614685565b60405180910390f35b34801561022757600080fd5b50610242600480360381019061023d9190613ac1565b6106fc565b005b34801561025057600080fd5b5061026b60048036038101906102669190613c4a565b610bd4565b005b34801561027957600080fd5b50610294600480360381019061028f9190613c4a565b610c1d565b6040516102a191906146d6565b60405180910390f35b3480156102b657600080fd5b506102bf610c7f565b005b3480156102cd57600080fd5b506102e860048036038101906102e39190613b36565b610cd0565b005b3480156102f657600080fd5b506102ff61116d565b005b34801561030d57600080fd5b5061032860048036038101906103239190613c09565b6112d1565b005b34801561033657600080fd5b50610351600480360381019061034c9190613c4a565b6112f3565b60405161035f929190614573565b60405180910390f35b34801561037457600080fd5b5061038f600480360381019061038a9190613c4a565b611337565b005b34801561039d57600080fd5b506103b860048036038101906103b39190613c9c565b6114df565b005b3480156103c657600080fd5b506103e160048036038101906103dc9190613c9c565b6116f3565b005b3480156103ef57600080fd5b506103f8611ba8565b005b34801561040657600080fd5b5061040f611bbc565b60405161041c9190614663565b60405180910390f35b34801561043157600080fd5b5061043a611f1c565b6040516104479190614558565b60405180910390f35b34801561045c57600080fd5b50610465611f45565b60405161047291906146d6565b60405180910390f35b34801561048757600080fd5b506104a2600480360381019061049d9190613c4a565b611fd3565b005b3480156104b057600080fd5b506104cb60048036038101906104c69190613c4a565b612271565b005b3480156104d957600080fd5b506104f460048036038101906104ef9190613c4a565b612538565b60405161050191906148b8565b60405180910390f35b610524600480360381019061051f9190613c4a565b61255c565b005b34801561053257600080fd5b5061054d600480360381019061054891906139ef565b6129d7565b005b34801561055b57600080fd5b5061057660048036038101906105719190613be0565b612a5b565b005b34801561058457600080fd5b5061059f600480360381019061059a9190613c9c565b612ade565b005b600080606060006006600086815260200190815260200160002090508060000160009054906101000a900473ffffffffffffffffffffffffffffffffffffffff168160010154826002018080548060200260200160405190810160405280929190818152602001828054801561063657602002820191906000526020600020905b815481526020019060010190808311610622575b50505050509050935093509350509193909250565b610653612ec0565b80600260006101000a81548173ffffffffffffffffffffffffffffffffffffffff021916908373ffffffffffffffffffffffffffffffffffffffff1602179055507fefc1fd16ea80a922086ee4e995739d59b025c1bcea6d1f67855747480c83214b816040516106c391906146a0565b60405180910390a150565b60007f150b7a023d4804d13e8c85fb27262cb750cf6ba9f9dd3bb30d90f482ceeb4b1f905095945050505050565b818190508484905014610744576040517f08c379a000000000000000000000000000000000000000000000000000000000815260040161073b90614758565b60405180910390fd5b60005b84849050811015610bcd57600085858381811061078d577f4e487b7100000000000000000000000000000000000000000000000000000000600052603260045260246000fd5b90506020020135905060008484848181106107d1577f4e487b7100000000000000000000000000000000000000000000000000000000600052603260045260246000fd5b9050602002013590503373ffffffffffffffffffffffffffffffffffffffff16600160009054906101000a900473ffffffffffffffffffffffffffffffffffffffff1673ffffffffffffffffffffffffffffffffffffffff16636352211e846040518263ffffffff1660e01b815260040161084c91906148b8565b60206040518083038186803b15801561086457600080fd5b505afa158015610878573d6000803e3d6000fd5b505050506040513d601f19601f8201168201806040525081019061089c9190613a18565b73ffffffffffffffffffffffffffffffffffffffff16146108f2576040517f08c379a00000000000000000000000000000000000000000000000000000000081526004016108e990614858565b60405180910390fd5b3073ffffffffffffffffffffffffffffffffffffffff16600160009054906101000a900473ffffffffffffffffffffffffffffffffffffffff1673ffffffffffffffffffffffffffffffffffffffff1663081812fc846040518263ffffffff1660e01b815260040161096491906148b8565b60206040518083038186803b15801561097c57600080fd5b505afa158015610990573d6000803e3d6000fd5b505050506040513d601f19601f820116820180604052508101906109b49190613a18565b73ffffffffffffffffffffffffffffffffffffffff1614610a0a576040517f08c379a0000000000000000000000000000000000000000000000000000000008152600401610a0190614718565b60405180910390fd5b60405180608001604052803373ffffffffffffffffffffffffffffffffffffffff168152602001828152602001838152602001610a4684610c1d565b8152506008600084815260200190815260200160002060008201518160000160006101000a81548173ffffffffffffffffffffffffffffffffffffffff021916908373ffffffffffffffffffffffffffffffffffffffff16021790555060208201518160010155604082015181600201556060820151816003019080519060200190610ad3929190613732565b50905050600160009054906101000a900473ffffffffffffffffffffffffffffffffffffffff1673ffffffffffffffffffffffffffffffffffffffff166342842e0e3330856040518463ffffffff1660e01b8152600401610b36939291906145c5565b600060405180830381600087803b158015610b5057600080fd5b505af1158015610b64573d6000803e3d6000fd5b505050503373ffffffffffffffffffffffffffffffffffffffff167f6cd52e2afd4c9fdb90f6226975fb688c697f05f2c4306f5bff7ea8cd941ed7ce8383604051610bb09291906148d3565b60405180910390a250508080610bc590614c8d565b915050610747565b5050505050565b610bdc612ec0565b806007819055507f9fa979502e438dac613eeda5e69bdaf59a326dc09969a480e1e19078b24e15d181604051610c1291906148b8565b60405180910390a150565b60606000610c29612f3e565b90506000815111610c495760405180602001604052806000815250610c77565b80610c5384612fd0565b6004604051602001610c6793929190614527565b6040516020818303038152906040525b915050919050565b610c87612ec0565b3373ffffffffffffffffffffffffffffffffffffffff166108fc479081150290604051600060405180830381858888f19350505050158015610ccd573d6000803e3d6000fd5b50565b60018383905011610d16576040517f08c379a0000000000000000000000000000000000000000000000000000000008152600401610d0d90614778565b60405180910390fd5b60005b8383905081101561103d576000848483818110610d5f577f4e487b7100000000000000000000000000000000000000000000000000000000600052603260045260246000fd5b9050602002013590503373ffffffffffffffffffffffffffffffffffffffff16600160009054906101000a900473ffffffffffffffffffffffffffffffffffffffff1673ffffffffffffffffffffffffffffffffffffffff16636352211e836040518263ffffffff1660e01b8152600401610dda91906148b8565b60206040518083038186803b158015610df257600080fd5b505afa158015610e06573d6000803e3d6000fd5b505050506040513d601f19601f82011682018060405250810190610e2a9190613a18565b73ffffffffffffffffffffffffffffffffffffffff1614610e80576040517f08c379a0000000000000000000000000000000000000000000000000000000008152600401610e7790614858565b60405180910390fd5b3073ffffffffffffffffffffffffffffffffffffffff16600160009054906101000a900473ffffffffffffffffffffffffffffffffffffffff1673ffffffffffffffffffffffffffffffffffffffff1663081812fc836040518263ffffffff1660e01b8152600401610ef291906148b8565b60206040518083038186803b158015610f0a57600080fd5b505afa158015610f1e573d6000803e3d6000fd5b505050506040513d601f19601f82011682018060405250810190610f429190613a18565b73ffffffffffffffffffffffffffffffffffffffff1614610f98576040517f08c379a0000000000000000000000000000000000000000000000000000000008152600401610f8f90614718565b60405180910390fd5b600160009054906101000a900473ffffffffffffffffffffffffffffffffffffffff1673ffffffffffffffffffffffffffffffffffffffff166342842e0e3330846040518463ffffffff1660e01b8152600401610ff7939291906145c5565b600060405180830381600087803b15801561101157600080fd5b505af1158015611025573d6000803e3d6000fd5b5050505050808061103590614c8d565b915050610d19565b5060006005805490509050600581908060018154018082558091505060019003906000526020600020016000909190919091505560405180606001604052803373ffffffffffffffffffffffffffffffffffffffff168152602001838152602001858580806020026020016040519081016040528093929190818152602001838360200280828437600081840152601f19601f820116905080830192505050505050508152506006600083815260200190815260200160002060008201518160000160006101000a81548173ffffffffffffffffffffffffffffffffffffffff021916908373ffffffffffffffffffffffffffffffffffffffff1602179055506020820151816001015560408201518160020190805190602001906111639291906137b8565b5090505050505050565b611175612ec0565b600260009054906101000a900473ffffffffffffffffffffffffffffffffffffffff1673ffffffffffffffffffffffffffffffffffffffff1663a9059cbb33600260009054906101000a900473ffffffffffffffffffffffffffffffffffffffff1673ffffffffffffffffffffffffffffffffffffffff166370a08231306040518263ffffffff1660e01b815260040161120f9190614558565b60206040518083038186803b15801561122757600080fd5b505afa15801561123b573d6000803e3d6000fd5b505050506040513d601f19601f8201168201806040525081019061125f9190613c73565b6040518363ffffffff1660e01b815260040161127c9291906145fc565b602060405180830381600087803b15801561129657600080fd5b505af11580156112aa573d6000803e3d6000fd5b505050506040513d601f19601f820116820180604052508101906112ce9190613b8e565b50565b6112d9612ec0565b80600390805190602001906112ef929190613732565b5050565b60066020528060005260406000206000915090508060000160009054906101000a900473ffffffffffffffffffffffffffffffffffffffff16908060010154905082565b61133f612ec0565b80600260009054906101000a900473ffffffffffffffffffffffffffffffffffffffff1673ffffffffffffffffffffffffffffffffffffffff166370a08231306040518263ffffffff1660e01b815260040161139b9190614558565b60206040518083038186803b1580156113b357600080fd5b505afa1580156113c7573d6000803e3d6000fd5b505050506040513d601f19601f820116820180604052508101906113eb9190613c73565b101561142c576040517f08c379a0000000000000000000000000000000000000000000000000000000008152600401611423906147d8565b60405180910390fd5b600260009054906101000a900473ffffffffffffffffffffffffffffffffffffffff1673ffffffffffffffffffffffffffffffffffffffff1663a9059cbb33836040518363ffffffff1660e01b81526004016114899291906145fc565b602060405180830381600087803b1580156114a357600080fd5b505af11580156114b7573d6000803e3d6000fd5b505050506040513d601f19601f820116820180604052508101906114db9190613b8e565b5050565b3073ffffffffffffffffffffffffffffffffffffffff16600160009054906101000a900473ffffffffffffffffffffffffffffffffffffffff1673ffffffffffffffffffffffffffffffffffffffff16636352211e846040518263ffffffff1660e01b815260040161155191906148b8565b60206040518083038186803b15801561156957600080fd5b505afa15801561157d573d6000803e3d6000fd5b505050506040513d601f19601f820116820180604052508101906115a19190613a18565b73ffffffffffffffffffffffffffffffffffffffff16146115f7576040517f08c379a00000000000000000000000000000000000000000000000000000000081526004016115ee906147f8565b60405180910390fd5b3373ffffffffffffffffffffffffffffffffffffffff166008600084815260200190815260200160002060000160009054906101000a900473ffffffffffffffffffffffffffffffffffffffff1673ffffffffffffffffffffffffffffffffffffffff161461169b576040517f08c379a000000000000000000000000000000000000000000000000000000000815260040161169290614818565b60405180910390fd5b8060086000848152602001908152602001600020600101819055507fc7113691cf96332a4c71d0e3d8fc13f177dc22111131519552cd24a04fde1e5c82826040516116e79291906148d3565b60405180910390a15050565b670de0b6b3a7640000816117079190614a63565b600260009054906101000a900473ffffffffffffffffffffffffffffffffffffffff1673ffffffffffffffffffffffffffffffffffffffff166370a08231336040518263ffffffff1660e01b81526004016117629190614558565b60206040518083038186803b15801561177a57600080fd5b505afa15801561178e573d6000803e3d6000fd5b505050506040513d601f19601f820116820180604052508101906117b29190613c73565b10156117f3576040517f08c379a00000000000000000000000000000000000000000000000000000000081526004016117ea906147d8565b60405180910390fd5b3073ffffffffffffffffffffffffffffffffffffffff16600160009054906101000a900473ffffffffffffffffffffffffffffffffffffffff1673ffffffffffffffffffffffffffffffffffffffff16636352211e846040518263ffffffff1660e01b815260040161186591906148b8565b60206040518083038186803b15801561187d57600080fd5b505afa158015611891573d6000803e3d6000fd5b505050506040513d601f19601f820116820180604052508101906118b59190613a18565b73ffffffffffffffffffffffffffffffffffffffff161461190b576040517f08c379a0000000000000000000000000000000000000000000000000000000008152600401611902906147f8565b60405180910390fd5b8060086000848152602001908152602001600020600101541115611964576040517f08c379a000000000000000000000000000000000000000000000000000000000815260040161195b90614798565b60405180910390fd5b6119a5600260009054906101000a900473ffffffffffffffffffffffffffffffffffffffff163330670de0b6b3a7640000856119a09190614a63565b6130f4565b600260009054906101000a900473ffffffffffffffffffffffffffffffffffffffff1673ffffffffffffffffffffffffffffffffffffffff1663a9059cbb6008600085815260200190815260200160002060000160009054906101000a900473ffffffffffffffffffffffffffffffffffffffff1660646007546064611a2b9190614abd565b670de0b6b3a764000086611a3f9190614a63565b611a499190614a63565b611a539190614a32565b6040518363ffffffff1660e01b8152600401611a7092919061459c565b602060405180830381600087803b158015611a8a57600080fd5b505af1158015611a9e573d6000803e3d6000fd5b505050506040513d601f19601f82011682018060405250810190611ac29190613b8e565b50600160009054906101000a900473ffffffffffffffffffffffffffffffffffffffff1673ffffffffffffffffffffffffffffffffffffffff166342842e0e3033856040518463ffffffff1660e01b8152600401611b22939291906145c5565b600060405180830381600087803b158015611b3c57600080fd5b505af1158015611b50573d6000803e3d6000fd5b505050503373ffffffffffffffffffffffffffffffffffffffff167f5d963241241cfe9e161d13500d628058954b3febfde03e4b1f4071370e72fe2b8383604051611b9c9291906148d3565b60405180910390a25050565b611bb0612ec0565b611bba600061317d565b565b60606000600160009054906101000a900473ffffffffffffffffffffffffffffffffffffffff1673ffffffffffffffffffffffffffffffffffffffff166370a08231306040518263ffffffff1660e01b8152600401611c1b9190614558565b60206040518083038186803b158015611c3357600080fd5b505afa158015611c47573d6000803e3d6000fd5b505050506040513d601f19601f82011682018060405250810190611c6b9190613c73565b905060008167ffffffffffffffff811115611caf577f4e487b7100000000000000000000000000000000000000000000000000000000600052604160045260246000fd5b604051908082528060200260200182016040528015611ce857816020015b611cd5613805565b815260200190600190039081611ccd5790505b50905060005b82811015611f135760086000600160009054906101000a900473ffffffffffffffffffffffffffffffffffffffff1673ffffffffffffffffffffffffffffffffffffffff16632f745c5930856040518363ffffffff1660e01b8152600401611d579291906145fc565b60206040518083038186803b158015611d6f57600080fd5b505afa158015611d83573d6000803e3d6000fd5b505050506040513d601f19601f82011682018060405250810190611da79190613c73565b81526020019081526020016000206040518060800160405290816000820160009054906101000a900473ffffffffffffffffffffffffffffffffffffffff1673ffffffffffffffffffffffffffffffffffffffff1673ffffffffffffffffffffffffffffffffffffffff1681526020016001820154815260200160028201548152602001600382018054611e3a90614c5b565b80601f0160208091040260200160405190810160405280929190818152602001828054611e6690614c5b565b8015611eb35780601f10611e8857610100808354040283529160200191611eb3565b820191906000526020600020905b815481529060010190602001808311611e9657829003601f168201915b505050505081525050828281518110611ef5577f4e487b7100000000000000000000000000000000000000000000000000000000600052603260045260246000fd5b60200260200101819052508080611f0b90614c8d565b915050611cee565b50809250505090565b60008060009054906101000a900473ffffffffffffffffffffffffffffffffffffffff16905090565b60048054611f5290614c5b565b80601f0160208091040260200160405190810160405280929190818152602001828054611f7e90614c5b565b8015611fcb5780601f10611fa057610100808354040283529160200191611fcb565b820191906000526020600020905b815481529060010190602001808311611fae57829003601f168201915b505050505081565b3073ffffffffffffffffffffffffffffffffffffffff16600160009054906101000a900473ffffffffffffffffffffffffffffffffffffffff1673ffffffffffffffffffffffffffffffffffffffff16636352211e836040518263ffffffff1660e01b815260040161204591906148b8565b60206040518083038186803b15801561205d57600080fd5b505afa158015612071573d6000803e3d6000fd5b505050506040513d601f19601f820116820180604052508101906120959190613a18565b73ffffffffffffffffffffffffffffffffffffffff16146120eb576040517f08c379a00000000000000000000000000000000000000000000000000000000081526004016120e2906147f8565b60405180910390fd5b3373ffffffffffffffffffffffffffffffffffffffff166008600083815260200190815260200160002060000160009054906101000a900473ffffffffffffffffffffffffffffffffffffffff1673ffffffffffffffffffffffffffffffffffffffff161461218f576040517f08c379a0000000000000000000000000000000000000000000000000000000008152600401612186906146f8565b60405180910390fd5b600160009054906101000a900473ffffffffffffffffffffffffffffffffffffffff1673ffffffffffffffffffffffffffffffffffffffff166342842e0e3033846040518463ffffffff1660e01b81526004016121ee939291906145c5565b600060405180830381600087803b15801561220857600080fd5b505af115801561221c573d6000803e3d6000fd5b505050503373ffffffffffffffffffffffffffffffffffffffff167f995270fd4f93cea033cdf0da430f296d82414eb9a7d99b6b391bb3e8a1ee9fc28260405161226691906148b8565b60405180910390a250565b600060066000838152602001908152602001600020905060005b816002018054905081116125335760008260020182815481106122d7577f4e487b7100000000000000000000000000000000000000000000000000000000600052603260045260246000fd5b906000526020600020015490503073ffffffffffffffffffffffffffffffffffffffff16600160009054906101000a900473ffffffffffffffffffffffffffffffffffffffff1673ffffffffffffffffffffffffffffffffffffffff16636352211e836040518263ffffffff1660e01b815260040161235691906148b8565b60206040518083038186803b15801561236e57600080fd5b505afa158015612382573d6000803e3d6000fd5b505050506040513d601f19601f820116820180604052508101906123a69190613a18565b73ffffffffffffffffffffffffffffffffffffffff16146123fc576040517f08c379a00000000000000000000000000000000000000000000000000000000081526004016123f3906147f8565b60405180910390fd5b3373ffffffffffffffffffffffffffffffffffffffff168360000160009054906101000a900473ffffffffffffffffffffffffffffffffffffffff1673ffffffffffffffffffffffffffffffffffffffff161461248e576040517f08c379a0000000000000000000000000000000000000000000000000000000008152600401612485906146f8565b60405180910390fd5b600160009054906101000a900473ffffffffffffffffffffffffffffffffffffffff1673ffffffffffffffffffffffffffffffffffffffff166342842e0e3033846040518463ffffffff1660e01b81526004016124ed939291906145c5565b600060405180830381600087803b15801561250757600080fd5b505af115801561251b573d6000803e3d6000fd5b5050505050808061252b90614c8d565b91505061228b565b505050565b6005818154811061254857600080fd5b906000526020600020016000915090505481565b60006006600083815260200190815260200160002090508060010154600260009054906101000a900473ffffffffffffffffffffffffffffffffffffffff1673ffffffffffffffffffffffffffffffffffffffff166370a08231336040518263ffffffff1660e01b81526004016125d39190614558565b60206040518083038186803b1580156125eb57600080fd5b505afa1580156125ff573d6000803e3d6000fd5b505050506040513d601f19601f820116820180604052508101906126239190613c73565b1015612664576040517f08c379a000000000000000000000000000000000000000000000000000000000815260040161265b906147d8565b60405180910390fd5b60005b816002018054905081116129d25760008260020182815481106126b3577f4e487b7100000000000000000000000000000000000000000000000000000000600052603260045260246000fd5b906000526020600020015490503073ffffffffffffffffffffffffffffffffffffffff16600160009054906101000a900473ffffffffffffffffffffffffffffffffffffffff1673ffffffffffffffffffffffffffffffffffffffff16636352211e836040518263ffffffff1660e01b815260040161273291906148b8565b60206040518083038186803b15801561274a57600080fd5b505afa15801561275e573d6000803e3d6000fd5b505050506040513d601f19601f820116820180604052508101906127829190613a18565b73ffffffffffffffffffffffffffffffffffffffff16146127d8576040517f08c379a00000000000000000000000000000000000000000000000000000000081526004016127cf906147f8565b60405180910390fd5b61281d600260009054906101000a900473ffffffffffffffffffffffffffffffffffffffff163330670de0b6b3a764000087600101546128189190614a63565b6130f4565b600260009054906101000a900473ffffffffffffffffffffffffffffffffffffffff1673ffffffffffffffffffffffffffffffffffffffff1663a9059cbb8460000160009054906101000a900473ffffffffffffffffffffffffffffffffffffffff16606460075460646128919190614abd565b670de0b6b3a764000088600101546128a99190614a63565b6128b39190614a63565b6128bd9190614a32565b6040518363ffffffff1660e01b81526004016128da92919061459c565b602060405180830381600087803b1580156128f457600080fd5b505af1158015612908573d6000803e3d6000fd5b505050506040513d601f19601f8201168201806040525081019061292c9190613b8e565b50600160009054906101000a900473ffffffffffffffffffffffffffffffffffffffff1673ffffffffffffffffffffffffffffffffffffffff166342842e0e3033846040518463ffffffff1660e01b815260040161298c939291906145c5565b600060405180830381600087803b1580156129a657600080fd5b505af11580156129ba573d6000803e3d6000fd5b505050505080806129ca90614c8d565b915050612667565b505050565b6129df612ec0565b600073ffffffffffffffffffffffffffffffffffffffff168173ffffffffffffffffffffffffffffffffffffffff161415612a4f576040517f08c379a0000000000000000000000000000000000000000000000000000000008152600401612a4690614738565b60405180910390fd5b612a588161317d565b50565b612a63612ec0565b80600160006101000a81548173ffffffffffffffffffffffffffffffffffffffff021916908373ffffffffffffffffffffffffffffffffffffffff1602179055507ff8525b9383ba5cc1b196c9a879bcbe7911913876aaff159ec424e1bb6136fff281604051612ad391906146bb565b60405180910390a150565b3373ffffffffffffffffffffffffffffffffffffffff16600160009054906101000a900473ffffffffffffffffffffffffffffffffffffffff1673ffffffffffffffffffffffffffffffffffffffff16636352211e846040518263ffffffff1660e01b8152600401612b5091906148b8565b60206040518083038186803b158015612b6857600080fd5b505afa158015612b7c573d6000803e3d6000fd5b505050506040513d601f19601f82011682018060405250810190612ba09190613a18565b73ffffffffffffffffffffffffffffffffffffffff1614612bf6576040517f08c379a0000000000000000000000000000000000000000000000000000000008152600401612bed90614858565b60405180910390fd5b3073ffffffffffffffffffffffffffffffffffffffff16600160009054906101000a900473ffffffffffffffffffffffffffffffffffffffff1673ffffffffffffffffffffffffffffffffffffffff1663081812fc846040518263ffffffff1660e01b8152600401612c6891906148b8565b60206040518083038186803b158015612c8057600080fd5b505afa158015612c94573d6000803e3d6000fd5b505050506040513d601f19601f82011682018060405250810190612cb89190613a18565b73ffffffffffffffffffffffffffffffffffffffff1614612d0e576040517f08c379a0000000000000000000000000000000000000000000000000000000008152600401612d0590614718565b60405180910390fd5b60405180608001604052803373ffffffffffffffffffffffffffffffffffffffff168152602001828152602001838152602001612d4a84610c1d565b8152506008600084815260200190815260200160002060008201518160000160006101000a81548173ffffffffffffffffffffffffffffffffffffffff021916908373ffffffffffffffffffffffffffffffffffffffff16021790555060208201518160010155604082015181600201556060820151816003019080519060200190612dd7929190613732565b50905050600160009054906101000a900473ffffffffffffffffffffffffffffffffffffffff1673ffffffffffffffffffffffffffffffffffffffff166342842e0e3330856040518463ffffffff1660e01b8152600401612e3a939291906145c5565b600060405180830381600087803b158015612e5457600080fd5b505af1158015612e68573d6000803e3d6000fd5b505050503373ffffffffffffffffffffffffffffffffffffffff167f6cd52e2afd4c9fdb90f6226975fb688c697f05f2c4306f5bff7ea8cd941ed7ce8383604051612eb49291906148d3565b60405180910390a25050565b612ec8613241565b73ffffffffffffffffffffffffffffffffffffffff16612ee6611f1c565b73ffffffffffffffffffffffffffffffffffffffff1614612f3c576040517f08c379a0000000000000000000000000000000000000000000000000000000008152600401612f3390614838565b60405180910390fd5b565b606060038054612f4d90614c5b565b80601f0160208091040260200160405190810160405280929190818152602001828054612f7990614c5b565b8015612fc65780601f10612f9b57610100808354040283529160200191612fc6565b820191906000526020600020905b815481529060010190602001808311612fa957829003601f168201915b5050505050905090565b606060006001612fdf84613249565b01905060008167ffffffffffffffff811115613024577f4e487b7100000000000000000000000000000000000000000000000000000000600052604160045260246000fd5b6040519080825280601f01601f1916602001820160405280156130565781602001600182028036833780820191505090505b509050600082602001820190505b6001156130e9578080600190039150507f3031323334353637383961626364656600000000000000000000000000000000600a86061a8153600a85816130d3577f4e487b7100000000000000000000000000000000000000000000000000000000600052601260045260246000fd5b04945060008514156130e4576130e9565b613064565b819350505050919050565b613177846323b872dd60e01b858585604051602401613115939291906145c5565b604051602081830303815290604052907bffffffffffffffffffffffffffffffffffffffffffffffffffffffff19166020820180517bffffffffffffffffffffffffffffffffffffffffffffffffffffffff8381831617835250505050613480565b50505050565b60008060009054906101000a900473ffffffffffffffffffffffffffffffffffffffff169050816000806101000a81548173ffffffffffffffffffffffffffffffffffffffff021916908373ffffffffffffffffffffffffffffffffffffffff1602179055508173ffffffffffffffffffffffffffffffffffffffff168173ffffffffffffffffffffffffffffffffffffffff167f8be0079c531659141344cd1fd0a4f28419497f9722a3daafe3b4186f6b6457e060405160405180910390a35050565b600033905090565b600080600090507a184f03e93ff9f4daa797ed6e38ed64bf6a1f01000000000000000083106132cd577a184f03e93ff9f4daa797ed6e38ed64bf6a1f01000000000000000083816132c3577f4e487b7100000000000000000000000000000000000000000000000000000000600052601260045260246000fd5b0492506040810190505b6d04ee2d6d415b85acef81000000008310613330576d04ee2d6d415b85acef81000000008381613326577f4e487b7100000000000000000000000000000000000000000000000000000000600052601260045260246000fd5b0492506020810190505b662386f26fc10000831061338557662386f26fc10000838161337b577f4e487b7100000000000000000000000000000000000000000000000000000000600052601260045260246000fd5b0492506010810190505b6305f5e10083106133d4576305f5e10083816133ca577f4e487b7100000000000000000000000000000000000000000000000000000000600052601260045260246000fd5b0492506008810190505b612710831061341f576127108381613415577f4e487b7100000000000000000000000000000000000000000000000000000000600052601260045260246000fd5b0492506004810190505b60648310613468576064838161345e577f4e487b7100000000000000000000000000000000000000000000000000000000600052601260045260246000fd5b0492506002810190505b600a8310613477576001810190505b80915050919050565b60006134e2826040518060400160405280602081526020017f5361666545524332303a206c6f772d6c6576656c2063616c6c206661696c65648152508573ffffffffffffffffffffffffffffffffffffffff166135489092919063ffffffff16565b90506000815114806135045750808060200190518101906135039190613b8e565b5b613543576040517f08c379a000000000000000000000000000000000000000000000000000000000815260040161353a90614898565b60405180910390fd5b505050565b60606135578484600085613560565b90509392505050565b6060824710156135a5576040517f08c379a000000000000000000000000000000000000000000000000000000000815260040161359c906147b8565b60405180910390fd5b6000808673ffffffffffffffffffffffffffffffffffffffff1685876040516135ce9190614510565b60006040518083038185875af1925050503d806000811461360b576040519150601f19603f3d011682016040523d82523d6000602084013e613610565b606091505b50915091506136218783838761362d565b92505050949350505050565b606083156136905760008351141561368857613648856136a3565b613687576040517f08c379a000000000000000000000000000000000000000000000000000000000815260040161367e90614878565b60405180910390fd5b5b82905061369b565b61369a83836136e2565b5b949350505050565b6000808273ffffffffffffffffffffffffffffffffffffffff16803b806020016040519081016040528181526000908060200190933c51119050919050565b6000825111156136f55781518083602001fd5b806040517f08c379a000000000000000000000000000000000000000000000000000000000815260040161372991906146d6565b60405180910390fd5b82805461373e90614c5b565b90600052602060002090601f01602090048101928261376057600085556137a7565b82601f1061377957805160ff19168380011785556137a7565b828001600101855582156137a7579182015b828111156137a657825182559160200191906001019061378b565b5b5090506137b49190613843565b5090565b8280548282559060005260206000209081019282156137f4579160200282015b828111156137f35782518255916020019190600101906137d8565b5b5090506138019190613843565b5090565b6040518060800160405280600073ffffffffffffffffffffffffffffffffffffffff1681526020016000815260200160008152602001606081525090565b5b8082111561385c576000816000905550600101613844565b5090565b600061387361386e8461492d565b6148fc565b90508281526020810184848401111561388b57600080fd5b613896848285614c19565b509392505050565b6000813590506138ad81614da3565b92915050565b6000815190506138c281614da3565b92915050565b60008083601f8401126138da57600080fd5b8235905067ffffffffffffffff8111156138f357600080fd5b60208301915083602082028301111561390b57600080fd5b9250929050565b60008151905061392181614dba565b92915050565b60008083601f84011261393957600080fd5b8235905067ffffffffffffffff81111561395257600080fd5b60208301915083600182028301111561396a57600080fd5b9250929050565b60008135905061398081614dd1565b92915050565b60008135905061399581614de8565b92915050565b600082601f8301126139ac57600080fd5b81356139bc848260208601613860565b91505092915050565b6000813590506139d481614dff565b92915050565b6000815190506139e981614dff565b92915050565b600060208284031215613a0157600080fd5b6000613a0f8482850161389e565b91505092915050565b600060208284031215613a2a57600080fd5b6000613a38848285016138b3565b91505092915050565b600080600080600060808688031215613a5957600080fd5b6000613a678882890161389e565b9550506020613a788882890161389e565b9450506040613a89888289016139c5565b935050606086013567ffffffffffffffff811115613aa657600080fd5b613ab288828901613927565b92509250509295509295909350565b60008060008060408587031215613ad757600080fd5b600085013567ffffffffffffffff811115613af157600080fd5b613afd878288016138c8565b9450945050602085013567ffffffffffffffff811115613b1c57600080fd5b613b28878288016138c8565b925092505092959194509250565b600080600060408486031215613b4b57600080fd5b600084013567ffffffffffffffff811115613b6557600080fd5b613b71868287016138c8565b93509350506020613b84868287016139c5565b9150509250925092565b600060208284031215613ba057600080fd5b6000613bae84828501613912565b91505092915050565b600060208284031215613bc957600080fd5b6000613bd784828501613971565b91505092915050565b600060208284031215613bf257600080fd5b6000613c0084828501613986565b91505092915050565b600060208284031215613c1b57600080fd5b600082013567ffffffffffffffff811115613c3557600080fd5b613c418482850161399b565b91505092915050565b600060208284031215613c5c57600080fd5b6000613c6a848285016139c5565b91505092915050565b600060208284031215613c8557600080fd5b6000613c93848285016139da565b91505092915050565b60008060408385031215613caf57600080fd5b6000613cbd858286016139c5565b9250506020613cce858286016139c5565b9150509250929050565b6000613ce4838361448f565b905092915050565b6000613cf883836144f2565b60208301905092915050565b613d0d81614b9b565b82525050565b613d1c81614b03565b82525050565b613d2b81614b03565b82525050565b613d3a81614af1565b82525050565b6000613d4b82614992565b613d5581856149d8565b935083602082028501613d678561495d565b8060005b85811015613da35784840389528151613d848582613cd8565b9450613d8f836149be565b925060208a01995050600181019050613d6b565b50829750879550505050505092915050565b6000613dc08261499d565b613dca81856149e9565b9350613dd58361496d565b8060005b83811015613e06578151613ded8882613cec565b9750613df8836149cb565b925050600181019050613dd9565b5085935050505092915050565b613e1c81614b21565b82525050565b6000613e2d826149a8565b613e3781856149fa565b9350613e47818560208601614c28565b80840191505092915050565b613e5c81614bad565b82525050565b613e6b81614bd1565b82525050565b6000613e7c826149b3565b613e868185614a05565b9350613e96818560208601614c28565b613e9f81614d92565b840191505092915050565b6000613eb5826149b3565b613ebf8185614a16565b9350613ecf818560208601614c28565b613ed881614d92565b840191505092915050565b6000613eee826149b3565b613ef88185614a27565b9350613f08818560208601614c28565b80840191505092915050565b60008154613f2181614c5b565b613f2b8186614a27565b94506001821660008114613f465760018114613f5757613f8a565b60ff19831686528186019350613f8a565b613f608561497d565b60005b83811015613f8257815481890152600182019150602081019050613f63565b838801955050505b50505092915050565b6000613fa0601e83614a16565b91507f4f6e6c79206f776e65722063616e20756e6c6973742074686973204e465400006000830152602082019050919050565b6000613fe0603083614a16565b91507f4d61726b6574706c616365206973206e6f7420617070726f76656420746f207460008301527f72616e736665722074686973204e4654000000000000000000000000000000006020830152604082019050919050565b6000614046602683614a16565b91507f4f776e61626c653a206e6577206f776e657220697320746865207a65726f206160008301527f64647265737300000000000000000000000000000000000000000000000000006020830152604082019050919050565b60006140ac602683614a16565b91507f496e70757420617272617973206d7573742068617665207468652073616d652060008301527f6c656e67687400000000000000000000000000000000000000000000000000006020830152604082019050919050565b6000614112602f83614a16565b91507f4174206c656173742074776f204e4654206d75737420626520696e636c75646560008301527f6420696e207468652062756e646c6500000000000000000000000000000000006020830152604082019050919050565b6000614178602283614a16565b91507f4d696e696d756d20707269636520686173206e6f74206265656e20726561636860008301527f65640000000000000000000000000000000000000000000000000000000000006020830152604082019050919050565b60006141de602683614a16565b91507f416464726573733a20696e73756666696369656e742062616c616e636520666f60008301527f722063616c6c00000000000000000000000000000000000000000000000000006020830152604082019050919050565b6000614244601c83614a16565b91507f496e73756666696369656e74206163636f756e742062616c616e6365000000006000830152602082019050919050565b6000614284602583614a16565b91507f54686973204e465420646f65736e2774206578697374206f6e206d61726b657460008301527f706c6163650000000000000000000000000000000000000000000000000000006020830152604082019050919050565b60006142ea602783614a16565b91507f4f6e6c79206f776e65722063616e20757064617465207072696365206f66207460008301527f686973204e4654000000000000000000000000000000000000000000000000006020830152604082019050919050565b6000614350602083614a16565b91507f4f776e61626c653a2063616c6c6572206973206e6f7420746865206f776e65726000830152602082019050919050565b6000614390602183614a16565b91507f596f7520617265206e6f7420746865206f776e6572206f662074686973204e4660008301527f54000000000000000000000000000000000000000000000000000000000000006020830152604082019050919050565b60006143f6601d83614a16565b91507f416464726573733a2063616c6c20746f206e6f6e2d636f6e74726163740000006000830152602082019050919050565b6000614436602a83614a16565b91507f5361666545524332303a204552433230206f7065726174696f6e20646964206e60008301527f6f742073756363656564000000000000000000000000000000000000000000006020830152604082019050919050565b60006080830160008301516144a76000860182613d13565b5060208301516144ba60208601826144f2565b5060408301516144cd60408601826144f2565b50606083015184820360608601526144e58282613e71565b9150508091505092915050565b6144fb81614b91565b82525050565b61450a81614b91565b82525050565b600061451c8284613e22565b915081905092915050565b60006145338286613ee3565b915061453f8285613ee3565b915061454b8284613f14565b9150819050949350505050565b600060208201905061456d6000830184613d31565b92915050565b60006040820190506145886000830185613d22565b6145956020830184614501565b9392505050565b60006040820190506145b16000830185613d04565b6145be6020830184614501565b9392505050565b60006060820190506145da6000830186613d31565b6145e76020830185613d31565b6145f46040830184614501565b949350505050565b60006040820190506146116000830185613d31565b61461e6020830184614501565b9392505050565b600060608201905061463a6000830186613d31565b6146476020830185614501565b81810360408301526146598184613db5565b9050949350505050565b6000602082019050818103600083015261467d8184613d40565b905092915050565b600060208201905061469a6000830184613e13565b92915050565b60006020820190506146b56000830184613e53565b92915050565b60006020820190506146d06000830184613e62565b92915050565b600060208201905081810360008301526146f08184613eaa565b905092915050565b6000602082019050818103600083015261471181613f93565b9050919050565b6000602082019050818103600083015261473181613fd3565b9050919050565b6000602082019050818103600083015261475181614039565b9050919050565b600060208201905081810360008301526147718161409f565b9050919050565b6000602082019050818103600083015261479181614105565b9050919050565b600060208201905081810360008301526147b18161416b565b9050919050565b600060208201905081810360008301526147d1816141d1565b9050919050565b600060208201905081810360008301526147f181614237565b9050919050565b6000602082019050818103600083015261481181614277565b9050919050565b60006020820190508181036000830152614831816142dd565b9050919050565b6000602082019050818103600083015261485181614343565b9050919050565b6000602082019050818103600083015261487181614383565b9050919050565b60006020820190508181036000830152614891816143e9565b9050919050565b600060208201905081810360008301526148b181614429565b9050919050565b60006020820190506148cd6000830184614501565b92915050565b60006040820190506148e86000830185614501565b6148f56020830184614501565b9392505050565b6000604051905081810181811067ffffffffffffffff8211171561492357614922614d63565b5b8060405250919050565b600067ffffffffffffffff82111561494857614947614d63565b5b601f19601f8301169050602081019050919050565b6000819050602082019050919050565b6000819050602082019050919050565b60008190508160005260206000209050919050565b600081519050919050565b600081519050919050565b600081519050919050565b600081519050919050565b6000602082019050919050565b6000602082019050919050565b600082825260208201905092915050565b600082825260208201905092915050565b600081905092915050565b600082825260208201905092915050565b600082825260208201905092915050565b600081905092915050565b6000614a3d82614b91565b9150614a4883614b91565b925082614a5857614a57614d05565b5b828204905092915050565b6000614a6e82614b91565b9150614a7983614b91565b9250817fffffffffffffffffffffffffffffffffffffffffffffffffffffffffffffffff0483118215151615614ab257614ab1614cd6565b5b828202905092915050565b6000614ac882614b91565b9150614ad383614b91565b925082821015614ae657614ae5614cd6565b5b828203905092915050565b6000614afc82614b71565b9050919050565b6000614b0e82614b71565b9050919050565b60008115159050919050565b60007fffffffff0000000000000000000000000000000000000000000000000000000082169050919050565b6000614b5882614af1565b9050919050565b6000614b6a82614af1565b9050919050565b600073ffffffffffffffffffffffffffffffffffffffff82169050919050565b6000819050919050565b6000614ba682614bf5565b9050919050565b6000614bb882614bbf565b9050919050565b6000614bca82614b71565b9050919050565b6000614bdc82614be3565b9050919050565b6000614bee82614b71565b9050919050565b6000614c0082614c07565b9050919050565b6000614c1282614b71565b9050919050565b82818337600083830152505050565b60005b83811015614c46578082015181840152602081019050614c2b565b83811115614c55576000848401525b50505050565b60006002820490506001821680614c7357607f821691505b60208210811415614c8757614c86614d34565b5b50919050565b6000614c9882614b91565b91507fffffffffffffffffffffffffffffffffffffffffffffffffffffffffffffffff821415614ccb57614cca614cd6565b5b600182019050919050565b7f4e487b7100000000000000000000000000000000000000000000000000000000600052601160045260246000fd5b7f4e487b7100000000000000000000000000000000000000000000000000000000600052601260045260246000fd5b7f4e487b7100000000000000000000000000000000000000000000000000000000600052602260045260246000fd5b7f4e487b7100000000000000000000000000000000000000000000000000000000600052604160045260246000fd5b6000601f19601f8301169050919050565b614dac81614af1565b8114614db757600080fd5b50565b614dc381614b15565b8114614dce57600080fd5b50565b614dda81614b4d565b8114614de557600080fd5b50565b614df181614b5f565b8114614dfc57600080fd5b50565b614e0881614b91565b8114614e1357600080fd5b5056fea26469706673582212202234d32cffc6e40d4ec0b450f2b6e4bb645554af9d3710461936341f0fa1395f64736f6c63430008000033",
  "linkReferences": {},
  "deployedLinkReferences": {}
}