{
  "_format": "hh-sol-artifact-1",
  "contractName": "Faucet",
  "sourceName": "contracts/Faucet.sol",
  "abi": [
    {
      "inputs": [],
      "stateMutability": "payable",
      "type": "constructor"
    },
    {
      "anonymous": false,
      "inputs": [
        {
          "indexed": true,
          "internalType": "address",
          "name": "form",
          "type": "address"
        },
        {
          "indexed": true,
          "internalType": "uint256",
          "name": "amount",
          "type": "uint256"
        }
      ],
      "name": "Deposit",
      "type": "event"
    },
    {
      "anonymous": false,
      "inputs": [
        {
          "indexed": true,
          "internalType": "address",
          "name": "previousOwner",
          "type": "address"
        },
        {
          "indexed": true,
          "internalType": "address",
          "name": "newOwner",
          "type": "address"
        }
      ],
      "name": "OwnershipTransferred",
      "type": "event"
    },
    {
      "inputs": [
        {
          "internalType": "uint256",
          "name": "_amount",
          "type": "uint256"
        }
      ],
      "name": "deposits",
      "outputs": [],
      "stateMutability": "nonpayable",
      "type": "function"
    },
    {
      "inputs": [],
      "name": "faucetAmount",
      "outputs": [
        {
          "internalType": "uint256",
          "name": "",
          "type": "uint256"
        }
      ],
      "stateMutability": "view",
      "type": "function"
    },
    {
      "inputs": [],
      "name": "getBalance",
      "outputs": [
        {
          "components": [
            {
              "internalType": "uint256",
              "name": "Sim",
              "type": "uint256"
            },
            {
              "internalType": "uint256",
              "name": "Usdt",
              "type": "uint256"
            }
          ],
          "internalType": "struct Faucet.balances",
          "name": "",
          "type": "tuple"
        }
      ],
      "stateMutability": "nonpayable",
      "type": "function"
    },
    {
      "inputs": [],
      "name": "locktime",
      "outputs": [
        {
          "internalType": "uint256",
          "name": "",
          "type": "uint256"
        }
      ],
      "stateMutability": "view",
      "type": "function"
    },
    {
      "inputs": [],
      "name": "myBalances",
      "outputs": [
        {
          "internalType": "uint256",
          "name": "Sim",
          "type": "uint256"
        },
        {
          "internalType": "uint256",
          "name": "Usdt",
          "type": "uint256"
        }
      ],
      "stateMutability": "view",
      "type": "function"
    },
    {
      "inputs": [],
      "name": "owner",
      "outputs": [
        {
          "internalType": "address",
          "name": "",
          "type": "address"
        }
      ],
      "stateMutability": "view",
      "type": "function"
    },
    {
      "inputs": [],
      "name": "renounceOwnership",
      "outputs": [],
      "stateMutability": "nonpayable",
      "type": "function"
    },
    {
      "inputs": [],
      "name": "requesttoken",
      "outputs": [],
      "stateMutability": "nonpayable",
      "type": "function"
    },
    {
      "inputs": [
        {
          "internalType": "uint256",
          "name": "amount",
          "type": "uint256"
        }
      ],
      "name": "setFaucetAmount",
      "outputs": [],
      "stateMutability": "nonpayable",
      "type": "function"
    },
    {
      "inputs": [
        {
          "internalType": "uint256",
          "name": "amount",
          "type": "uint256"
        }
      ],
      "name": "setLocktime",
      "outputs": [],
      "stateMutability": "nonpayable",
      "type": "function"
    },
    {
      "inputs": [
        {
          "internalType": "address",
          "name": "tokenAddress",
          "type": "address"
        }
      ],
      "name": "setTokenSim",
      "outputs": [],
      "stateMutability": "nonpayable",
      "type": "function"
    },
    {
      "inputs": [
        {
          "internalType": "address",
          "name": "tokenAddress",
          "type": "address"
        }
      ],
      "name": "setTokenUsdt",
      "outputs": [],
      "stateMutability": "nonpayable",
      "type": "function"
    },
    {
      "inputs": [],
      "name": "tokenSim",
      "outputs": [
        {
          "internalType": "contract IERC20",
          "name": "",
          "type": "address"
        }
      ],
      "stateMutability": "view",
      "type": "function"
    },
    {
      "inputs": [],
      "name": "tokenUsdt",
      "outputs": [
        {
          "internalType": "contract IERC20",
          "name": "",
          "type": "address"
        }
      ],
      "stateMutability": "view",
      "type": "function"
    },
    {
      "inputs": [
        {
          "internalType": "address",
          "name": "newOwner",
          "type": "address"
        }
      ],
      "name": "transferOwnership",
      "outputs": [],
      "stateMutability": "nonpayable",
      "type": "function"
    },
    {
      "inputs": [],
      "name": "withdraws",
      "outputs": [],
      "stateMutability": "nonpayable",
      "type": "function"
    },
    {
      "stateMutability": "payable",
      "type": "receive"
    }
  ],
  "bytecode": "0x60806040526802b5e3af16b1880000600455603c60055561003261002761007860201b60201c565b61008060201b60201c565b33600160006101000a81548173ffffffffffffffffffffffffffffffffffffffff021916908373ffffffffffffffffffffffffffffffffffffffff160217905550610144565b600033905090565b60008060009054906101000a900473ffffffffffffffffffffffffffffffffffffffff169050816000806101000a81548173ffffffffffffffffffffffffffffffffffffffff021916908373ffffffffffffffffffffffffffffffffffffffff1602179055508173ffffffffffffffffffffffffffffffffffffffff168173ffffffffffffffffffffffffffffffffffffffff167f8be0079c531659141344cd1fd0a4f28419497f9722a3daafe3b4186f6b6457e060405160405180910390a35050565b611f24806101536000396000f3fe6080604052600436106100f75760003560e01c80638da5cb5b1161008a578063b8f20cfd11610059578063b8f20cfd14610319578063d951021514610345578063f2fde38b1461035c578063fb41f7591461038557610142565b80638da5cb5b146102715780639c2814301461029c5780639cf7a6a8146102c7578063b02c43d0146102f057610142565b80636a0eacf3116100c65780636a0eacf3146101f15780636a81426914610208578063715018a61461023157806381d2fd9c1461024857610142565b806312065fe014610147578063301099a3146101725780633b7acec61461019b57806361c533b4146101c657610142565b3661014257343373ffffffffffffffffffffffffffffffffffffffff167fe1fffcc4923d04b559f4d29a8bfc6cda04eb5b0d3c460751c2402c5c5cc9109c60405160405180910390a3005b600080fd5b34801561015357600080fd5b5061015c6103b0565b6040516101699190611c89565b60405180910390f35b34801561017e57600080fd5b506101996004803603810190610194919061164f565b610560565b005b3480156101a757600080fd5b506101b061057e565b6040516101bd9190611b2c565b60405180910390f35b3480156101d257600080fd5b506101db6105a4565b6040516101e89190611ca4565b60405180910390f35b3480156101fd57600080fd5b506102066105aa565b005b34801561021457600080fd5b5061022f600480360381019061022a91906115fd565b610a31565b005b34801561023d57600080fd5b50610246610a7d565b005b34801561025457600080fd5b5061026f600480360381019061026a919061164f565b610a91565b005b34801561027d57600080fd5b50610286610ab6565b6040516102939190611ab1565b60405180910390f35b3480156102a857600080fd5b506102b1610adf565b6040516102be9190611ca4565b60405180910390f35b3480156102d357600080fd5b506102ee60048036038101906102e991906115fd565b610ae5565b005b3480156102fc57600080fd5b506103176004803603810190610312919061164f565b610b31565b005b34801561032557600080fd5b5061032e610d90565b60405161033c929190611cbf565b60405180910390f35b34801561035157600080fd5b5061035a610da2565b005b34801561036857600080fd5b50610383600480360381019061037e91906115fd565b611060565b005b34801561039157600080fd5b5061039a6110e4565b6040516103a79190611b2c565b60405180910390f35b6103b861158f565b6040518060400160405280600260009054906101000a900473ffffffffffffffffffffffffffffffffffffffff1673ffffffffffffffffffffffffffffffffffffffff166370a08231306040518263ffffffff1660e01b815260040161041e9190611ab1565b60206040518083038186803b15801561043657600080fd5b505afa15801561044a573d6000803e3d6000fd5b505050506040513d601f19601f8201168201806040525081019061046e9190611678565b8152602001600360009054906101000a900473ffffffffffffffffffffffffffffffffffffffff1673ffffffffffffffffffffffffffffffffffffffff166370a08231306040518263ffffffff1660e01b81526004016104ce9190611ab1565b60206040518083038186803b1580156104e657600080fd5b505afa1580156104fa573d6000803e3d6000fd5b505050506040513d601f19601f8201168201806040525081019061051e9190611678565b81525060076000820151816000015560208201518160010155905050600760405180604001604052908160008201548152602001600182015481525050905090565b61056861110a565b603c816105759190611d70565b60058190555050565b600360009054906101000a900473ffffffffffffffffffffffffffffffffffffffff1681565b60055481565b600073ffffffffffffffffffffffffffffffffffffffff163373ffffffffffffffffffffffffffffffffffffffff16141561061a576040517f08c379a000000000000000000000000000000000000000000000000000000000815260040161061190611bc9565b60405180910390fd5b600454600260009054906101000a900473ffffffffffffffffffffffffffffffffffffffff1673ffffffffffffffffffffffffffffffffffffffff166370a08231306040518263ffffffff1660e01b81526004016106789190611ab1565b60206040518083038186803b15801561069057600080fd5b505afa1580156106a4573d6000803e3d6000fd5b505050506040513d601f19601f820116820180604052508101906106c89190611678565b1015610709576040517f08c379a000000000000000000000000000000000000000000000000000000000815260040161070090611c29565b60405180910390fd5b600454600360009054906101000a900473ffffffffffffffffffffffffffffffffffffffff1673ffffffffffffffffffffffffffffffffffffffff166370a08231306040518263ffffffff1660e01b81526004016107679190611ab1565b60206040518083038186803b15801561077f57600080fd5b505afa158015610793573d6000803e3d6000fd5b505050506040513d601f19601f820116820180604052508101906107b79190611678565b10156107f8576040517f08c379a00000000000000000000000000000000000000000000000000000000081526004016107ef90611c29565b60405180910390fd5b600660003373ffffffffffffffffffffffffffffffffffffffff1673ffffffffffffffffffffffffffffffffffffffff1681526020019081526020016000205442101561087a576040517f08c379a000000000000000000000000000000000000000000000000000000000815260040161087190611be9565b60405180910390fd5b600554426108889190611d1a565b600660003373ffffffffffffffffffffffffffffffffffffffff1673ffffffffffffffffffffffffffffffffffffffff16815260200190815260200160002081905550600260009054906101000a900473ffffffffffffffffffffffffffffffffffffffff1673ffffffffffffffffffffffffffffffffffffffff1663a9059cbb336004546040518363ffffffff1660e01b815260040161092a929190611b03565b602060405180830381600087803b15801561094457600080fd5b505af1158015610958573d6000803e3d6000fd5b505050506040513d601f19601f8201168201806040525081019061097c9190611626565b50600360009054906101000a900473ffffffffffffffffffffffffffffffffffffffff1673ffffffffffffffffffffffffffffffffffffffff1663a9059cbb336004546040518363ffffffff1660e01b81526004016109dc929190611b03565b602060405180830381600087803b1580156109f657600080fd5b505af1158015610a0a573d6000803e3d6000fd5b505050506040513d601f19601f82011682018060405250810190610a2e9190611626565b50565b610a3961110a565b80600360006101000a81548173ffffffffffffffffffffffffffffffffffffffff021916908373ffffffffffffffffffffffffffffffffffffffff16021790555050565b610a8561110a565b610a8f6000611188565b565b610a9961110a565b670de0b6b3a764000081610aad9190611d70565b60048190555050565b60008060009054906101000a900473ffffffffffffffffffffffffffffffffffffffff16905090565b60045481565b610aed61110a565b80600260006101000a81548173ffffffffffffffffffffffffffffffffffffffff021916908373ffffffffffffffffffffffffffffffffffffffff16021790555050565b80600260009054906101000a900473ffffffffffffffffffffffffffffffffffffffff1673ffffffffffffffffffffffffffffffffffffffff166370a08231336040518263ffffffff1660e01b8152600401610b8d9190611ab1565b60206040518083038186803b158015610ba557600080fd5b505afa158015610bb9573d6000803e3d6000fd5b505050506040513d601f19601f82011682018060405250810190610bdd9190611678565b1015610c1e576040517f08c379a0000000000000000000000000000000000000000000000000000000008152600401610c1590611ba9565b60405180910390fd5b80600360009054906101000a900473ffffffffffffffffffffffffffffffffffffffff1673ffffffffffffffffffffffffffffffffffffffff166370a08231336040518263ffffffff1660e01b8152600401610c7a9190611ab1565b60206040518083038186803b158015610c9257600080fd5b505afa158015610ca6573d6000803e3d6000fd5b505050506040513d601f19601f82011682018060405250810190610cca9190611678565b1015610d0b576040517f08c379a0000000000000000000000000000000000000000000000000000000008152600401610d0290611ba9565b60405180910390fd5b610d4c600260009054906101000a900473ffffffffffffffffffffffffffffffffffffffff163330670de0b6b3a764000085610d479190611d70565b61124c565b610d8d600360009054906101000a900473ffffffffffffffffffffffffffffffffffffffff163330670de0b6b3a764000085610d889190611d70565b61124c565b50565b60078060000154908060010154905082565b610daa61110a565b600360009054906101000a900473ffffffffffffffffffffffffffffffffffffffff1673ffffffffffffffffffffffffffffffffffffffff1663a9059cbb33600360009054906101000a900473ffffffffffffffffffffffffffffffffffffffff1673ffffffffffffffffffffffffffffffffffffffff166370a08231306040518263ffffffff1660e01b8152600401610e449190611ab1565b60206040518083038186803b158015610e5c57600080fd5b505afa158015610e70573d6000803e3d6000fd5b505050506040513d601f19601f82011682018060405250810190610e949190611678565b6040518363ffffffff1660e01b8152600401610eb1929190611b03565b602060405180830381600087803b158015610ecb57600080fd5b505af1158015610edf573d6000803e3d6000fd5b505050506040513d601f19601f82011682018060405250810190610f039190611626565b50600260009054906101000a900473ffffffffffffffffffffffffffffffffffffffff1673ffffffffffffffffffffffffffffffffffffffff1663a9059cbb33600260009054906101000a900473ffffffffffffffffffffffffffffffffffffffff1673ffffffffffffffffffffffffffffffffffffffff166370a08231306040518263ffffffff1660e01b8152600401610f9e9190611ab1565b60206040518083038186803b158015610fb657600080fd5b505afa158015610fca573d6000803e3d6000fd5b505050506040513d601f19601f82011682018060405250810190610fee9190611678565b6040518363ffffffff1660e01b815260040161100b929190611b03565b602060405180830381600087803b15801561102557600080fd5b505af1158015611039573d6000803e3d6000fd5b505050506040513d601f19601f8201168201806040525081019061105d9190611626565b50565b61106861110a565b600073ffffffffffffffffffffffffffffffffffffffff168173ffffffffffffffffffffffffffffffffffffffff1614156110d8576040517f08c379a00000000000000000000000000000000000000000000000000000000081526004016110cf90611b69565b60405180910390fd5b6110e181611188565b50565b600260009054906101000a900473ffffffffffffffffffffffffffffffffffffffff1681565b6111126112d5565b73ffffffffffffffffffffffffffffffffffffffff16611130610ab6565b73ffffffffffffffffffffffffffffffffffffffff1614611186576040517f08c379a000000000000000000000000000000000000000000000000000000000815260040161117d90611c09565b60405180910390fd5b565b60008060009054906101000a900473ffffffffffffffffffffffffffffffffffffffff169050816000806101000a81548173ffffffffffffffffffffffffffffffffffffffff021916908373ffffffffffffffffffffffffffffffffffffffff1602179055508173ffffffffffffffffffffffffffffffffffffffff168173ffffffffffffffffffffffffffffffffffffffff167f8be0079c531659141344cd1fd0a4f28419497f9722a3daafe3b4186f6b6457e060405160405180910390a35050565b6112cf846323b872dd60e01b85858560405160240161126d93929190611acc565b604051602081830303815290604052907bffffffffffffffffffffffffffffffffffffffffffffffffffffffff19166020820180517bffffffffffffffffffffffffffffffffffffffffffffffffffffffff83818316178352505050506112dd565b50505050565b600033905090565b600061133f826040518060400160405280602081526020017f5361666545524332303a206c6f772d6c6576656c2063616c6c206661696c65648152508573ffffffffffffffffffffffffffffffffffffffff166113a59092919063ffffffff16565b90506000815114806113615750808060200190518101906113609190611626565b5b6113a0576040517f08c379a000000000000000000000000000000000000000000000000000000000815260040161139790611c69565b60405180910390fd5b505050565b60606113b484846000856113bd565b90509392505050565b606082471015611402576040517f08c379a00000000000000000000000000000000000000000000000000000000081526004016113f990611b89565b60405180910390fd5b6000808673ffffffffffffffffffffffffffffffffffffffff16858760405161142b9190611a9a565b60006040518083038185875af1925050503d8060008114611468576040519150601f19603f3d011682016040523d82523d6000602084013e61146d565b606091505b509150915061147e8783838761148a565b92505050949350505050565b606083156114ed576000835114156114e5576114a585611500565b6114e4576040517f08c379a00000000000000000000000000000000000000000000000000000000081526004016114db90611c49565b60405180910390fd5b5b8290506114f8565b6114f7838361153f565b5b949350505050565b6000808273ffffffffffffffffffffffffffffffffffffffff16803b806020016040519081016040528181526000908060200190933c51119050919050565b6000825111156115525781518083602001fd5b806040517f08c379a00000000000000000000000000000000000000000000000000000000081526004016115869190611b47565b60405180910390fd5b604051806040016040528060008152602001600081525090565b6000813590506115b881611ea9565b92915050565b6000815190506115cd81611ec0565b92915050565b6000813590506115e281611ed7565b92915050565b6000815190506115f781611ed7565b92915050565b60006020828403121561160f57600080fd5b600061161d848285016115a9565b91505092915050565b60006020828403121561163857600080fd5b6000611646848285016115be565b91505092915050565b60006020828403121561166157600080fd5b600061166f848285016115d3565b91505092915050565b60006020828403121561168a57600080fd5b6000611698848285016115e8565b91505092915050565b6116aa81611dca565b82525050565b60006116bb82611ce8565b6116c58185611cfe565b93506116d5818560208601611e36565b80840191505092915050565b6116ea81611e12565b82525050565b60006116fb82611cf3565b6117058185611d09565b9350611715818560208601611e36565b61171e81611e98565b840191505092915050565b6000611736602683611d09565b91507f4f776e61626c653a206e6577206f776e657220697320746865207a65726f206160008301527f64647265737300000000000000000000000000000000000000000000000000006020830152604082019050919050565b600061179c602683611d09565b91507f416464726573733a20696e73756666696369656e742062616c616e636520666f60008301527f722063616c6c00000000000000000000000000000000000000000000000000006020830152604082019050919050565b6000611802601c83611d09565b91507f496e73756666696369656e74206163636f756e742062616c616e6365000000006000830152602082019050919050565b6000611842602e83611d09565b91507f52657175657374206d757374206e6f74206f726967696e6174652066726f6d2060008301527f61207a65726f206163636f756e740000000000000000000000000000000000006020830152604082019050919050565b60006118a8604083611d09565b91507f496e73756666696369656e742074696d6520656c61707365642073696e63652060008301527f6c61737420776974686472616c202d206c61737420616761696e206c617465726020830152604082019050919050565b600061190e602083611d09565b91507f4f776e61626c653a2063616c6c6572206973206e6f7420746865206f776e65726000830152602082019050919050565b600061194e603483611d09565b91507f496e73756666696369656e742062616c616e636520696e20666175636574206660008301527f6f722077697468647261776c20726571756573740000000000000000000000006020830152604082019050919050565b60006119b4601d83611d09565b91507f416464726573733a2063616c6c20746f206e6f6e2d636f6e74726163740000006000830152602082019050919050565b60006119f4602a83611d09565b91507f5361666545524332303a204552433230206f7065726174696f6e20646964206e60008301527f6f742073756363656564000000000000000000000000000000000000000000006020830152604082019050919050565b604082016000820151611a636000850182611a7c565b506020820151611a766020850182611a7c565b50505050565b611a8581611e08565b82525050565b611a9481611e08565b82525050565b6000611aa682846116b0565b915081905092915050565b6000602082019050611ac660008301846116a1565b92915050565b6000606082019050611ae160008301866116a1565b611aee60208301856116a1565b611afb6040830184611a8b565b949350505050565b6000604082019050611b1860008301856116a1565b611b256020830184611a8b565b9392505050565b6000602082019050611b4160008301846116e1565b92915050565b60006020820190508181036000830152611b6181846116f0565b905092915050565b60006020820190508181036000830152611b8281611729565b9050919050565b60006020820190508181036000830152611ba28161178f565b9050919050565b60006020820190508181036000830152611bc2816117f5565b9050919050565b60006020820190508181036000830152611be281611835565b9050919050565b60006020820190508181036000830152611c028161189b565b9050919050565b60006020820190508181036000830152611c2281611901565b9050919050565b60006020820190508181036000830152611c4281611941565b9050919050565b60006020820190508181036000830152611c62816119a7565b9050919050565b60006020820190508181036000830152611c82816119e7565b9050919050565b6000604082019050611c9e6000830184611a4d565b92915050565b6000602082019050611cb96000830184611a8b565b92915050565b6000604082019050611cd46000830185611a8b565b611ce16020830184611a8b565b9392505050565b600081519050919050565b600081519050919050565b600081905092915050565b600082825260208201905092915050565b6000611d2582611e08565b9150611d3083611e08565b9250827fffffffffffffffffffffffffffffffffffffffffffffffffffffffffffffffff03821115611d6557611d64611e69565b5b828201905092915050565b6000611d7b82611e08565b9150611d8683611e08565b9250817fffffffffffffffffffffffffffffffffffffffffffffffffffffffffffffffff0483118215151615611dbf57611dbe611e69565b5b828202905092915050565b6000611dd582611de8565b9050919050565b60008115159050919050565b600073ffffffffffffffffffffffffffffffffffffffff82169050919050565b6000819050919050565b6000611e1d82611e24565b9050919050565b6000611e2f82611de8565b9050919050565b60005b83811015611e54578082015181840152602081019050611e39565b83811115611e63576000848401525b50505050565b7f4e487b7100000000000000000000000000000000000000000000000000000000600052601160045260246000fd5b6000601f19601f8301169050919050565b611eb281611dca565b8114611ebd57600080fd5b50565b611ec981611ddc565b8114611ed457600080fd5b50565b611ee081611e08565b8114611eeb57600080fd5b5056fea264697066735822122080973ade00922f8e99db225f784387fb34fe205877daa223554f119888fab2f364736f6c63430008000033",
  "linkReferences": {},
  "deployedLinkReferences": {}
}